:020000040040BA
:10000000003D002025124000211240002112400036
:100010002112400021124000211240000000000087
:10002000000000000000000000000000211240005D
:100030002112400000000000211240002112400067
:1000400021124000211240002112400021124000E4
:1000500021124000211240002112400021124000D4
:100060002112400021124000000000001D1040003D
:100070003110400045104000211240002112400084
:10008000000000000000000021124000211240008A
:100090002112400021124000211240002112400094
:1000A0002112400021124000211240002112400084
:1000B0002112400021124000211240002112400074
:1000C00021124000211240002112400010B5054CC1
:1000D000237833B9044B13B10448AFF300800123F4
:1000E000237010BD4C08002000000000382E400096
:1000F000084B10B51BB108480849AFF30080084809
:10010000036803B910BD074B002BFBD0BDE81040BE
:10011000184700BF00000000382E400050080020A3
:10012000382E40000000000010B50E480E4B9847D6
:1001300000203E210D4B98470D4CA0470028FCD0D5
:100140000C4B98470C4A0D4B9A620D4CA047002867
:10015000FCD010200B4B98470B4B98470148024BA3
:10016000984710BD000E2707E9134000C11040005A
:100170001511400025114000013F132000040E40DE
:100180003511400059104000D5124000A8B92DE9A2
:10019000F0410C469046002A0ADD8F18084E094DA2
:1001A000306821462B6898470134BC42F8D101E001
:1001B0004FF000084046BDE8F0814FF0FF30704737
:1001C000E00C0020D80C00200138022818D82DE9B6
:1001D000F0410E46144682B10D46DFF838800C4FD0
:1001E000D8F8000015F8011B3B68984700280ADB87
:1001F000A81B013CF4D1BDE8F0810020BDE8F081EE
:100200004FF0FF3070474FF0FF30BDE8F08100BF86
:10021000DC0C0020E00C002038B54FF40042244BE9
:100220005A600B20234CA0470C20A0470D20A0476C
:1002300013204FF06051204CA04714204FF0605124
:10024000A04723201D49A0474C201D49A0471D4819
:100250004FF4C0614FF000621B4B98471B4D40208C
:100260002946A04741202946A04742202946A047C9
:1002700043202946A04744202946A0474520294637
:10028000A04746202946A04747202946A0474B20A3
:100290002946A04748202946A0474F202946A04785
:1002A00053202946A0474D204FF04051A04738BD6C
:1002B00050140E4045114000B50D40007900002853
:1002C00059000028000E0E40D90E40000100000821
:1002D00070B483B0C0F11100102828BF102000288E
:1002E00008BF01200021104E4FF4005518247563FB
:1002F0000194019B5A1E0192002BFAD1356301949F
:10030000019B5A1E0192002BFAD101318142EED39A
:100310004FF400330193019B5A1E0192002BFAD136
:1003200003B070BC704700BF00120E4082B04FF4A3
:100330000052064B5A634FF400330193019B5A1E3F
:100340000192002BFAD102B0704700BF00120E409C
:100350000A4B1B78012B06D14FF0C24300221A70C2
:1003600022221A707047022B07D14FF0C2432C2271
:100370001A7000221A703C221A707047280C002054
:10038000C0F30742034B1A70C0F307221A70C0B2C1
:1003900018707047020000612DE9F843074688464F
:1003A00031F0070918D004460026124D57F82600F0
:1003B000A8476068A847A068A847E068A8472069E0
:1003C000A8476069A847A069A847E069A847083618
:1003D00020344E45EAD300E00026B04508D907EBAB
:1003E0008604044D54F8040BA8470136B045F9D8EB
:1003F000BDE8F883810340004FF0C24300221A7029
:1004000018700A0A02331A70C9B21970704700BF17
:1004100010B44FF0C24300241C7018704AB14B1E38
:10042000501E51FA80F1044813F8012F02708B42DC
:10043000FAD15DF8044B70470200006182B00023DE
:100440000193019B984211D90021094A0191019B16
:10045000934205D8019B01330193019B9342F9D943
:10046000019B01330193019B8342EFD302B070479C
:100470009F86010030B4154C24680568A54224BF4E
:1004800004F1FF3505601568AC429CBF04F1FF34F0
:1004900014600F4C24680D68A54224BF04F1FF3599
:1004A0000D601D68AC429CBF04F1FF341C60046801
:1004B0001568AC4284BF056014600A6818688242FF
:1004C00084BF08601A6030BC704700BF0000002085
:1004D0000400002082B04FF0C24300221A70D322E1
:1004E0001A7002331A788DF800201A788DF80120DE
:1004F0001A788DF802201B78DBB28DF80330D2B267
:1005000003EB02239BB249F24132934204D102220F
:100510000E4B1A70002017E04FF0C24300221A70F1
:100520001A7002331A788DF800201B78D2B203EBD0
:1005300002239BB249F22532934204D10122034B9C
:100540001A70002000E0012002B07047280C002043
:1005500008B5094B1B78012B05D1072040F2331158
:10056000064B984708BD022B04D1292000210A46DA
:10057000034B984708BD00BF280C0020F90340003A
:1005800011044000044A131F02F56F7243F8040F70
:100590009342FBD1704700BF680800202DE9F0416D
:1005A00082B00C4617461E46224B1B78012B14D1F5
:1005B00085B250202946DFF88480C047791E29443F
:1005C000512089B2C047A4B252202146C047711EB3
:1005D0002144532089B2C04728E0022B26D1030AC8
:1005E0008DF80430C3B28DF80530013A1044000A8A
:1005F0008DF8060017461F448DF807702A2001A9C0
:1006000004220D4DA847230A8DF80430E3B28DF87B
:100610000530721E1444240A8DF8064016461E4406
:100620008DF807602B2001A90422A84702B0BDE87D
:10063000F08100BF280C002011044000F9034000A5
:1006400038B5064B1B78012B07D10C4601462020FC
:10065000034DA84721202146A84738BD280C00207B
:10066000F90340002DE9F04383B00646AC4B9847B0
:10067000002840F04F81F022AA4B1A604FF4A0727C
:10068000A94B1A60A94B1B78012B40F0B1800720C1
:100690003321A74CA04710200021A04700200121B2
:1006A000A04701204FF48071A04702204FF4E06181
:1006B000A04704200021A047082040F20721A047BE
:1006C00009200021A0470A200021A0470C2000217A
:1006D000A0470D200021A0470F200021A047102097
:1006E0000021A04711200021A04712200021A0478F
:1006F00013200021A047C8208E4DA847102041F2AA
:100700009021A047112040F22721A0473220A8477E
:1007100012201B21A0473220A84713204FF48851F4
:10072000A04729201921A0472B200D21A0473220C6
:10073000A84730200021A04731204FF40171A04785
:1007400032204FF40071A04735200721A047362002
:1007500041F20441A047372040F20571A0473820FC
:1007600040F20531A047392040F20771A0473C20F4
:1007700040F20171A0473D200E21A04703204DF219
:100780001001A04760204FF42741A04761200121BC
:10079000A0476A200021A04780200021A047812097
:1007A0000021A04782200021A04783200021A047EC
:1007B00084200021A04785200021A04790201021FF
:1007C000A04792204FF4C061A04795204FF4887154
:1007D000A0470020014632687368574CA047B068B4
:1007E000564B984700200146554B9847002094E00F
:1007F000022B40F0918039238DF800302C238DF8A6
:10080000013000248DF8024034238DF80330022794
:100810008DF80470CB20694605224A4DA8478DF813
:100820000040AA238DF80130B0238DF80230CF208C
:1008300069460322A84730238DF80030F720694627
:100840000122A84725238DF80030C02069460122E7
:10085000A8474FF011098DF80090C1206946012288
:10086000A8475C238DF800304C238DF80130C5205B
:1008700069463A46A84794238DF80030C720694658
:100880000122A84785238DF800304FF001088DF82C
:10089000018078238DF80230E82069460322A847BA
:1008A0008DF800408DF80140EA2069463A46A84795
:1008B00048238DF80030362069464246A847062373
:1008C0008DF800303A2069464246A8478DF80070FE
:1008D00082238DF8013027238DF802308DF80340F4
:1008E000B62069460422A84720462146326873682C
:1008F000114FB847B068114B9847484669462246A1
:10090000A8470A200B4B9847292069462246A8474A
:10091000204602E0012000E0012003B0BDE8F083A2
:10092000D50440000000002004000020280C002016
:10093000F90340003D0440009D054000850540004E
:10094000410640001104400010B5164B1B6883425D
:1009500021D9154B1B688B421FD9144B1B78012BD7
:100960000BD180B289B2124B9847124B9847124B69
:100970001868124B9847002010BD022B0FD100229F
:1009800013460F4CA0470B4B98470B4B18680B4B6B
:100990009847002010BD012010BD012010BD00208F
:1009A00010BD00BF0000002004000020280C002023
:1009B00041064000510340006808002081034000C8
:1009C0009D0540002DE9F04184B003900291019211
:1009D000009303A802A901AA6B46224CA047039DDD
:1009E000029C01994A1C00994B1C28462146521B27
:1009F0001B1B1D4CA047BDF80C00BDF808101B4B7D
:100A000098471B4B9847029A009B9A1A019B03F147
:100A10000108039BC3EB080802FB0888154CA4FBE4
:100A20000834E40907D0144FF026144D38463146F7
:100A3000A847013CFAD10F49A1FB0831C909C1EB14
:100A400001110D48A8EB01110C4B984700200146FD
:100A50000B4B1A680B4B1B68034CA04704B0BDE856
:100A6000F08100BF750440009D0540004106400034
:100A70005103400089888888680800209903400055
:100A800000000020040000202DE9F04F83B006464E
:100A90008846994201D0904204D1304641462B4CC1
:100AA000A04750E081460F46121A5B1A002ACCBFBD
:100AB00001214FF0FF310091002BCCBF01214FF0FD
:100AC000FF31019182EAE275A5EBE27583EAE374F6
:100AD000A4EBE37441461E4B9847A5421ADD4FEA4A
:100AE0006508002D2FDD009B99461E444FF0010A3A
:100AF000DFF85CB0A044454503DCC5EB0808019B6A
:100B00001F4430463946D8470AF1010A4E4455453C
:100B1000F0DA18E06710002C15DD019B9B4643447A
:100B20001E464FF00108DFF828A02F44BC4202DC2B
:100B30003F1B009B994448463146D04708F10108C5
:100B40005E444445F1DA03B0BDE8F08FC5094000CA
:100B500049094000002A44D02DE9F04F83B0814676
:100B60008A4616465700C7F1030700251F4C05EBC0
:100B7000090B06EB0A0858464146A047C6EB0A0394
:100B8000584601931946A047C5EB090B5846414604
:100B9000A04758460199A04706EB090B05EB0A0848
:100BA00058464146A047C5EB0A03584601931946EB
:100BB000A047C6EB090B58464146A0475846019945
:100BC000A047002F03DA07EB8507063704E00A3752
:100BD000AB1B07EB8307013E0135AE42C7D20020B5
:100BE00001E00120704703B0BDE8F08F49094000E3
:100BF0002DE9F04F85B0039002921378002B46D078
:100C00008B460190DFF890900A2B04D10BF1100B6A
:100C1000039B019335E003EB83031E4E06EB830336
:100C2000A3F27F26019A13460A33009390460724C5
:100C300037460BEB040A3D4616F8013C234113F0FE
:100C4000010F03D04046C4EB0A01C847013CB4F190
:100C5000FF3FF0D107240BF10F072B78234113F04E
:100C6000010F02D04046391BC847013C012CF4D18A
:100C7000023608F10108009B9845D8D1019B0C333E
:100C80000193029A12F8013F0292002BBCD105B0E9
:100C9000BDE8F08F78264000490940000901425024
:100CA000704700BF00EB01114A60704700EB011173
:100CB0008A60704700EB0111CA6070474264B1F16D
:100CC000C05F2FD007D8B1F1006F14D0B1F1805FB1
:100CD0001ED039B97047B1F1205F37D004D8B1F1D7
:100CE000005F29D042607047B1F1405F2ED0B1F172
:100CF000605F2BD0F6E710B4016F046FD34321403F
:100D000019400167416F446F21400B4043671AE06F
:100D1000036F13430367436F416F0B4023EA0203E2
:100D20004367DFE7036F016F0B4023EA02030367AA
:100D3000436F13434367D5E7036F13430367436F61
:100D400013434367CEE742605DF8044B704700BF32
:100D5000416412F0010F14BF4166016612F00A0FE0
:100D600014BF0162416212F0020F02D0C0F880107D
:100D700004E012F0080F18BFC0F884104161016050
:100D8000704700BF10B44164019C0CB1416600E0A3
:100D900001660BB1016500E041650AB1016300E045
:100DA0004163016101605DF8044B7047C06C70479E
:100DB000806C704770B582B00D46430903F500138F
:100DC00003F207735C0201F0F043B3F1005F47D018
:100DD00009D8B3F1805F21D0B3F1C05F2FD0B3F158
:100DE000006F6FD109E0B3F1405F55D0B3F1605FA0
:100DF00052D0B3F1205F44D064E000F01F00012620
:100E0000864020464FF000613246304B984715F03F
:100E1000010F14BF66662666012054E000F01F0033
:100E20000126864020464FF080513246274B984796
:100E300015F0010F14BF66662666012043E000F03E
:100E40001F000126864020464FF0C05132461F4BFE
:100E5000984715F0010F14BF66662666012032E040
:100E600000F01F000126864020464FF00051324618
:100E7000164B984715F0010F14BF666626660120D1
:100E800021E000F01F030126204606FA03F12A465E
:100E90000F4B9847304616E000F01F03012605F07F
:100EA000605205EA06010091204606FA03F1B2F10C
:100EB000605F14BF00220122C5F38003054CA047E8
:100EC000304600E0002002B070BD00BFBD0C400005
:100ED000510D4000850D400070B582B006460D46AC
:100EE000144602F0F043B3F1005F38D009D8B3F1F3
:100EF000805F1CD0B3F1C05F25D0B3F1006F50D13B
:100F000009E0B3F1405F3AD0B3F1605F37D0B3F19D
:100F1000205F30D045E04FF000612A46224B9847D1
:100F200014F0010F14BF7566356601203AE04FF0EA
:100F300080512A461C4B984714F0010F14BF756668
:100F4000356601202EE04FF0C0512A46164B9847D7
:100F500014F0010F14BF75663566012022E04FF0D2
:100F600000512A46104B984714F0010F14BF7566C4
:100F70003566012016E00D4B9847012012E004F081
:100F8000605204F00103009330462946B2F1605FDD
:100F900014BF00220122C4F38003054CA0470120A6
:100FA00000E0002002B070BDBD0C4000510D4000BB
:100FB000850D40002DE9F84381468846124B98473D
:100FC00005464846114B9847054013D0104C04F194
:100FD00060062368434508D16168294205D0E3686B
:100FE00040469847636825EA0305B44202D01034AE
:100FF000002DEED1074B1B6823B1074B1B680BB1CB
:1010000048469847BDE8F883AD0D4000B10D40005B
:10101000300C0020E40C00202C0C002008B5024805
:101020000B21024B984708BD000E0E40B50F400043
:1010300008B502480C21024B984708BD00100E402D
:10104000B50F400008B502480D21024B984708BD76
:1010500000120E40B50F4000184A136B23F07003C6
:1010600018431063936E13F0080F03D009E0013B9F
:1010700003D11EE04FF4006310498A6E12F0080F8E
:10108000F5D00E4A136B23F0030343F002031363FE
:10109000906E10F0080004D000207047013B03D18F
:1010A00009E04FF4006305498A6E12F0080FF5D08D
:1010B0007047012070470120704700BF00040E40B8
:1010C00038B111490B6A114A1A40114B13430B6294
:1010D00070470D4A136A23F45C1323F0030343F4AF
:1010E0005C1343F00103090289B20B431362936E50
:1010F00013F0010FFBD0044A136A43F09B7343F4CF
:1011000080331362704700BF00040E40FCFFC8FE2E
:1011100002003701024B986E00F48030704700BF28
:1011200000040E404FF00052014B9A62704700BF1E
:1011300000040E40024B986E00F00200704700BFA2
:1011400000040E4022281ED81F280CD8114B9A6983
:10115000012383401A40934217D0012383400D4A54
:101160001361002070470B4BD3F80821203801236E
:1011700083401A4093420AD001238340054AC2F8B3
:101180000031002070470120704700207047002088
:10119000704700BF00040E4010B4AC2303600B681E
:1011A0004A68B3FBF2F31B095C1E4FF6FE729442D1
:1011B0000AD803628B68436040F20223C0F82031F2
:1011C00050230360002000E001205DF8044B7047CD
:1011D000436913F0020F1ABFC1610020012070475C
:1011E000436913F0010F1DBF83690B7000200120BC
:1011F000704700BF436913F0020F1DBFC1F3080120
:10120000C161002001207047436913F0010F05D030
:101210008369C3F308030B60002070470120704707
:10122000FEE700BF08B5204B204A9A4213D9204B55
:101230001D4A9A421FD21146043203339B1A23F0EF
:1012400003030433194A134452F8040B41F8040B06
:101250009A42F9D10FE0144B144A9A420BD2144B24
:10126000114A9A1A134881182AB151F8042943F8EF
:10127000042D8142F9D100BF0F4B104A9A420BD284
:10128000131D0F4AD21A22F003021A44043B002114
:1012900043F8041B9342FBD10A4B0B4A9A600B4B59
:1012A00098470B4B9847FEE700000020382E40007F
:1012B0004C080020342E4000FC0C00204C0800207C
:1012C000FF0C002000ED00E000004000611740002E
:1012D000C51540003D4B1B6B03F00303032B5DD88A
:1012E000DFE803F0020E2B2B394B5B6913F0800F04
:1012F00014BF4FF400424FF4FA42364B1A604DE0EF
:10130000324B1B6A13F0807F03D0334A314B1A6093
:1013100044E0324A2F4B1A602C4B1B6A03F07003D7
:10132000102B02D0202B04D038E02D4A294B1A6014
:1013300034E0294A274B1A6030E0244B1B6A13F033
:10134000807F03D0244A234B1A6012E0234A214BAA
:101350001A601E4B1B6A03F07003102B02D0202B67
:1013600004D006E01E4A1B4B1A6002E01A4A194BD1
:101370001A60164B1B6B03F00303022B134A07BFC3
:10138000936A926AD36AD26A1248C3F30A41036825
:1013900001FB0333D2B2B3FBF2F303600B4B1B6BC5
:1013A00003F07003702B07D10A4A13680D49A1FBA3
:1013B00003135B0813607047044B1A6B0549C2F3B3
:1013C00002120B68D3400B60704700BF00040E4050
:1013D00010140E4008000020001BB70000093D005B
:1013E00000127A00ABAAAAAA1A4B984207D84FF06B
:1013F0008063194A136002F5007213607047174B3F
:10140000984206D8164B144A136002F50072136016
:101410007047144B984206D8134B0F4A136002F5DD
:10142000007213607047114B984206D8104B0A4A5D
:10143000136002F50072136070470E4B984294BF20
:101440004FF004230C4B044A136002F50072136042
:10145000704700BFFF2C3101000A0E40FF596202A5
:1014600000010004FF86930300020004FFB3C404DC
:1014700000030004FFE0F50500050004094B1B68AC
:1014800013B9094A074B1A60064B1B681A1807491B
:10149000914204DB1046034A1060184670474FF033
:1014A000FF307047A00C0020003D0020FC7F022090
:1014B0004FF0FF30704700BF00207047F0B583B099
:1014C00005460C4600230193184B984207D11F464E
:1014D000174E38462146B0470028FAD117E0154B81
:1014E000984207D11E46124D30462146A847002893
:1014F000FAD118E0104B984209D11E460F4D3046E4
:1015000001A9A8470028FAD1019B23700BE00C4BDE
:101510009D4208D11E46094D304601A9A847002822
:10152000FAD1019B237003B0F0BD00BF00060E404E
:10153000E111400000080E40004002400912400046
:101540000080024070B50C46184B984208D11E46E8
:10155000174D30462146A8470028FAD1012070BD1A
:10156000144B984208D11E46114D30462146A847DB
:101570000028FAD1012070BD0F4B984208D11E46B9
:101580000E4D30462146A8470028FAD1012070BDF3
:101590000B4B984208D11E46084D30462146A847BD
:1015A0000028FAD1012070BD002070BD00060E4059
:1015B000D111400000080E4000400240F5114000EB
:1015C0000080024080B584B0444B9847444B984714
:1015D0000820444CA047444D444B1D60444A454BB1
:1015E0001A60454A454B1A60454B01934FF4E1336D
:1015F00002934FF4006303930820A047284601A9F3
:10160000404B9847404E3368986800213F4DA847AB
:10161000336858680021A8470A20A0473C4C204660
:1016200001214FF002323B4B9847204601213A4AB4
:101630003A4B984720460121394A3A4B9847204671
:1016400001210322384B9847384DF0272F604FF483
:10165000A0766E600024AC606FF07F48C5F80C8007
:10166000334B98472846334B98470820324B9847CE
:101670004046324DA847204621463A463346DFF8D9
:10168000D8C0E0472E4B9847204621462D4B98471F
:101690002046A8470A2014212B4A2C4B98474FF488
:1016A0007F00A8473C20A0212822DFF8B080C04757
:1016B0004FF47F40A8477820A0212822C047FF2070
:1016C000A847B420A0212822C0472148A847204687
:1016D00021463A4633461F4CA047FEE72901400009
:1016E000190240004511400000060E40E00C0020A9
:1016F00045154000DC0C0020BD144000D80C002033
:10170000000E270799114000380400204D184000B2
:1017100000000E409D0C400004040A0AA50C400085
:101720000A001600AD0C4000B50C4000E80C00208B
:101730002D03400065064000D102400085054000B1
:101740005105400041064000F82D4000F10B4000DB
:10175000EE82EE00890A4000C5094000550B4000AA
:1017600070B50F4E0F4D761BB61018BF002405D074
:10177000013455F8043B9847A642F9D10A4E0B4D67
:10178000761B01F047FBB61018BF002406D00134C9
:1017900055F8043B9847A642F9D170BD70BD00BF13
:1017A000202E4000202E4000282E4000202E4000F9
:1017B00070B4840746D0541E002A41D0CDB20346EF
:1017C00002E0621EE4B3144603F8015B9A07F8D105
:1017D000032C2ED9CDB245EA05250F2C45EA054547
:1017E00019D903F110022646103E0F2E42F8105C64
:1017F00042F80C5C42F8085C42F8045C02F110020A
:10180000F2D8A4F1100222F00F0204F00F041032FB
:10181000032C13440DD91E462246043A032A46F8E7
:10182000045BFAD8221F22F003020432134404F0AE
:1018300003042CB1C9B21C4403F8011BA342FBD121
:1018400070BC704714460346C2E700BF00290CBFB6
:10185000022200224FF4806300F000B82DE9F0412D
:101860003A4C26680D46044690461F4616B1B36BA7
:10187000002B3CD0B8F1020F2FD8002F2DDB2146D2
:10188000304600F021F9A18900236360A3610B06B3
:1018900027D421F0830189B2B8F1020FA1812AD0A7
:1018A000002D36D0B8F1010F11D089B201F0080037
:1018B000274BF36380B225602561676178B111F031
:1018C000030F18BF0027A7600020BDE8F08141F09A
:1018D00001017B42A181A361E7E74FF0FF30BDE842
:1018E000F0812169304600F0F1F9A189D1E7304655
:1018F00000F07EF9BEE7002004F1430341F002014D
:1019000000250122A181A560236023616261BDE8F9
:10191000F081002F08BF4FF48067384600F0D8FAF6
:10192000054628B1A18941F0800189B2A181B9E7BA
:101930004FF4806000F0CCFA054618B9A1894FF049
:10194000FF30D9E74FF48067ECE700BF3804002090
:10195000F51A4000024B13B1024800F005B8704779
:1019600000000000051C400001460020024603461E
:1019700000F0B4BD8B899AB22DE9F0410D461107F4
:1019800080463CD46A6843F40063002AAB8165DD7D
:10199000AE6A002E4BD09BB203F48052002192B26B
:1019A000D8F80040C8F80010002A5BD02A6D5F0705
:1019B00005D569682B6B521A0BB1EB6BD21A4046F6
:1019C000E9690023B047461C56D0AB892A692A60D2
:1019D00023F400639BB200226A60DA04AB813BD43B
:1019E000296BC8F8004011B305F14003994202D0B9
:1019F000404600F06BF900202863BDE8F0812E69B5
:101A0000AEB12C682E6091070CBF6B690023A41B3C
:101A1000AB600AE0324623466F6AE9694046B84740
:101A20000028A4EB0004064404DD002CF2DC0020B6
:101A3000BDE8F081AB8943F04003AB814FF0FF304C
:101A4000BDE8F081AB892A69696023F400639BB229
:101A5000AB81DB042A60C3D52865C1E7EA6B002AA5
:101A600096DCE4E701234046E969B047431C02469F
:101A700019D0AB89AE6A9AE7D8F800100029E1D0F6
:101A80001D2907D0162905D0AB8943F04003AB814F
:101A9000BDE8F081AB892A692A6023F40063002243
:101AA000AB816A609CE7D8F80030002BE1D01D2B99
:101AB00007D0162B05D0AB8943F04003AB81BDE8BE
:101AC000F081C8F80040B2E710B5044682B008B112
:101AD000836B53B1B1F90C0008B902B010BD2046B8
:101AE00002B0BDE81040FFF745BF019100F080F85B
:101AF0000199EFE7014900F0C1B900BFA5254000F9
:101B00002DE9F04F354B4568C3630024074600F5C7
:101B10003B7204230321C0F8E412C0F8E822C0F8A5
:101B2000E04283B02C606C60AC606C66EC812C6130
:101B30006C61AC61AB81214605F15C000822FFF7C6
:101B400037FEBE68DFF898B0DFF898A0DFF898900D
:101B5000DFF89880C5F820B001230922C5F824A039
:101B6000C5F82890C5F82C80ED612146F381B2813B
:101B700006F15C0034607460B46074663461746152
:101B8000B46108220193FFF713FEFD68F66112208D
:101B90000222C6F820B0C6F824A0C6F82890C6F8DD
:101BA0002C802146A881EA812C606C60AC606C6658
:101BB0002C616C61AC6105F15C000822FFF7F8FD57
:101BC000019BED61C5F820B0C5F824A0C5F82890A8
:101BD000C5F82C80BB6303B0BDE8F08FF51A400058
:101BE00031244000552440008D244000AD244000A5
:101BF000836B03B17047FFF783BF00BF704700BF1F
:101C0000704700BF38B5084B084DED1AAC1018BF2F
:101C1000ED1805D0013C55F8043D9847002CF9D14A
:101C2000BDE8384001F000B9342E4000382E4000A5
:101C3000F8B5234F0C46064600F0E4FBBB685D6830
:101C400025F00305291B01F6EF7121F47F6121F0D6
:101C50000F01A1F58054B4F5805F07DB3046002109
:101C600000F0D4FBBB682B44984204D0304600F00F
:101C7000CBFB0020F8BD3046614200F0C7FB0130CD
:101C80000DD0104BBA6819682D1B45F00105304680
:101C9000091B5560196000F0B7FB0120F8BD304604
:101CA000002100F0B3FBBA68831A0F2BDEDD064C6F
:101CB0000449246843F00103001B53600860D5E722
:101CC0003C040020B00C00204808002000294ED021
:101CD0002DE9F0410C46804600F094FB54F8047C5A
:101CE000624927F00102A4F10805AB188E68586814
:101CF0009E4220F003005AD0FE0758600BD454F8DF
:101D0000087CED1B01F1080EAC6874453A4467D0BD
:101D1000EF68E760BC601C186468E4070CD4544F9B
:101D20009C68BC4202447CD0D868E06042F0010369
:101D300084606B60AA5003E042F001036B60AA501C
:101D4000B2F5007F14D2D20801EBC20348689F6845
:101D5000AF609210012404FA02F21043EB60486075
:101D60009D60FD604046BDE8F04100F04DBB70470E
:101D7000530A042B47D8930903F13804600001EBA0
:101D800080003A498368834243D0596821F00301B7
:101D9000914202D99B689842F7D1DA68EA60AB6059
:101DA00040469560DD60BDE8F04100F02DBBFF07C7
:101DB000024407D454F8083CED1A1A44A868EB68AA
:101DC000C36098602B4B1B6842F001009A42686028
:101DD0008D60C7D3284B40461968FFF729FFC1E73C
:101DE00019184968C90709D4D9689B68024442F0A8
:101DF0000100D9608B606860AA50B3E742F001032C
:101E00006B60AA50AEE7142B14D803F15B0460009A
:101E1000B5E74A68A4100120A04002434A601A4670
:101E2000BCE742F001034D610D61EC60AC606B609A
:101E3000AA5097E7542B04D8130B03F16E046000EB
:101E40009DE7B3F5AA7F04D8D30B03F177046000B4
:101E500095E740F25450834204D8930C03F17C047C
:101E600060008CE7FC207E2489E700BF3C04002052
:101E70004404002044080020AC0C00202DE9F84365
:101E800010F538771FD0884606464FF000097D6868
:101E9000BC68013D11D4A389012B05F1FF3508D998
:101EA000B4F90E3001332146304602D0C04749EA2A
:101EB00000096B1C04F16804EDD13F68002FE6D1E6
:101EC0004846BDE8F883B9464846BDE8F88300BFF8
:101ED000024B0146186800F003B800BF3804002028
:101EE0002DE9F04F01F10B05162D83B0064627D9D9
:101EF00035F0070500F1B680A94200F2B38000F08A
:101F000081FAB5F5FC7F22D2C24FE80807EBC00387
:101F1000DC689C4200F0C8816368E168A56823F032
:101F20000303234430465A68E96042F001028D60A1
:101F30005A6000F069FA0834204603B0BDE8F08F1B
:101F4000102900F28F8000F05DFA1025DCE7680AA6
:101F500000F08F80042800F25481A8093830410035
:101F6000AC4F07EB8101CC68A14206D10CE0002AFE
:101F700080F28280E468A14206D0636823F0030304
:101F80005A1B0F2AF3DD01380130A2493C6901F1E7
:101F9000080E744500F07D81636823F003035A1B2B
:101FA0000F2A00F36381002AC1F814E0C1F810E0A1
:101FB00073DAB3F5007F80F03981DB0801EBC308E9
:101FC0004FEAA30C4A68D8F80890C4F80890012397
:101FD00003FA0CF31343C4F80C804B60C8F80840B4
:101FE000C9F80C408210012494409C4262D82342DC
:101FF00006D120F003006400234200F10400FAD06F
:1020000007EBC008C4468146DCF80C309C4507D17C
:1020100041E1002980F25181DB689C4500F03B8161
:102020005A6822F00302511B0F29F2DD1C46D3F837
:102030000CC054F8088F5A1945F0010941F0010508
:10204000C3F804903046C8F80CC0CCF808807A6118
:102050003A61C2F80CE0C2F808E05560515000F057
:10206000D3F969E700240C232046336003B0BDE8B0
:10207000F08F7E213F2073E72344E1685A68A5680A
:1020800042F00102E96030468D605A6000F0BCF910
:102090000834204603B0BDE8F08F234430465A6828
:1020A00042F001025A6000F0AFF90834204603B054
:1020B000BDE8F08FBC68636823F00308454504D889
:1020C000C5EB08030F2B00F38C80534BDFF858A1AE
:1020D0001A68DAF8003001332A4404EB080B00F0E8
:1020E000508102F580520F3222F47F6222F00F02FB
:1020F00011463046019200F089F9B0F1FF3F814668
:10210000019A00F04781834500F2EE80434B196845
:10211000CB451144196000F04281DAF80000DFF885
:1021200008E101301BBFCBEB090B5944CEF80090FE
:10213000196019F0070100F00781C1F10800C1F52D
:102140008051814408314A44C2F30B02C2EB010AB8
:1021500051463046019300F059F9431C019B00F0B1
:102160002C81C9EB0002524442F001021968C7F801
:1021700008905144BC42C9F804201960DFF89CA0C3
:1021800016D0B8F10F0F40F2EE806268A8F10C0390
:1021900023F00703E01802F001024FF0050E1A4386
:1021A0000F2B6260C0F804E0C0F808E000F209817B
:1021B0001B4BBC681A68914288BF1960194B1A689A
:1021C0009142626888BF196022F003029542A2EB37
:1021D000050301D80F2B04DC304600F015F900246C
:1021E000AAE6621943F0010345F001056560304637
:1021F000BA60536000F008F90834204603B0BDE827
:10220000F08F142868D9542800F29780280B6E307C
:102210004100A5E63C040020AC0C0020B00C0020DE
:10222000A80C0020A40C0020480800205A0A042A08
:1022300055D9142A00F2A7805B324FEA420C07EB13
:102240008C0CDFF8BC81DCF8081061457FD04A684F
:1022500022F00302934202D289688C45F7D1CA6802
:102260007B68E260A1609460CC60BBE6631942F0D9
:10227000010745F00105656030464B610B61C3F80D
:102280000CE0C3F808E05F609A50083400F0BCF836
:1022900052E64B68A6E609F1010919F0030F0CF1AB
:1022A000080C7FF4B1AE2CE004F108036469A3428A
:1022B00008BF02303FF469AE2EE61A441C4651684E
:1022C000DB6854F8085F41F0010151603046EB6073
:1022D0009D6000F099F82FE65B30410040E69A09D6
:1022E00038324FEA420CAAE7BC42454B3FF40EAFEE
:1022F0009C68626822F0030268E7D8F8008098457D
:102300007CD110F0030FA8F1080300F1FF30F4D1E5
:102310007B6823EA04037B6064009C423FF6CAAEFC
:10232000002C3FF4C7AE234248467FF469AE6400F8
:10233000234200F10400FAD062E6B0F5AA7F18D873
:10234000E80B773041000BE64FF48051FBE6D8F8FC
:10235000043092104FF0010C0CFA02F21343C8F84B
:1023600004300A467DE70123C9F804304C460022B8
:102370002CE740F2545398421CD8A80C7C30410002
:10238000EEE51032B4E6542A23D81A0B6E324FEA27
:10239000420C54E7BC68626822F0030216E7CBF3F4
:1023A0000B0000287FF4B9AE4244BB6842F0010242
:1023B0005A60FDE6FC217E20D2E501224FF0000AA2
:1023C000D4E604F108013046FFF780FCDAF800108B
:1023D000EEE6B2F5AA7F04D8DA0B77324FEA420C68
:1023E0002DE740F254518A4204D89A0C7C324FEACD
:1023F000420C24E74FF0FC0C7E2220E77B688BE741
:102400003C040020704700BF704700BF38B5074C40
:102410000023054608462360FFF730F8431C00D030
:1024200038BD2368002BFBD02B6038BDF80C002092
:1024300010B50C46B1F90E1000F00AF9002803DBC4
:10244000236D0344236510BDA38923F48053A38126
:1024500010BD00BF2DE9F04116468A891D46D305FF
:102460000C46074606D50022B1F90E10022300F0F3
:10247000DBF8A289B4F90E1022F48052A28138460A
:1024800032462B46BDE8F04100F014B810B50C46BA
:10249000B1F90E1000F0C8F8A389421C0EBF23F456
:1024A000805343F480532065A38110BDB1F90E1011
:1024B00000F066B870B5084C06460025084611467F
:1024C0001A462560FDF780FE431C00D070BD2368CE
:1024D000002BFBD0336070BDF80C00202DE9F047D5
:1024E000254C2568D5F848410646884692469946C7
:1024F000CCB360681F2818DC431C7EB104EB800558
:102500000121C5F888A0D4F8887101FA00F21743B8
:10251000022EC4F88871C5F808911ED0023063609D
:1025200044F820800020BDE8F087144B03B34FF43B
:10253000C870FFF7CDFC0446D0B1D5F8483100276C
:1025400080E88800C5F8484138460123C4F88871FE
:10255000C4F88C71002EE1D0D0E7D4F88C110A4376
:10256000C4F88C21DAE705F5A674C5F84841C0E740
:102570004FF0FF30BDE8F087102E4000D11E400024
:1025800038B5074C0023054608462360FEF790FF48
:10259000431C00D038BD2368002BFBD02B6038BD16
:1025A000F80C002000293DD070B505460C4608B156
:1025B000836B7BB3B4F90C300BB9002070BD284697
:1025C0002146FFF7D7F9E36A064633B12846E169A9
:1025D00098470028B8BF4FF0FF36A3891B061CD4CC
:1025E000216B41B104F14003994202D02846FFF724
:1025F0006DFB00232363616C21B12846FFF766FB66
:1026000000236364FFF7FAFA0023A381FFF7F8FAC7
:10261000304670BDFFF7ECFACCE728462169FFF79A
:1026200055FBDDE70020704770B5084C06460025D5
:10263000084611461A462560FEF73EFF431C00D0AF
:1026400070BD2368002BFBD0336070BDF80C0020F8
:1026500070B5084C06460025084611461A46256006
:10266000FDF794FD431C00D070BD2368002BFBD008
:10267000336070BDF80C0020000000000000000076
:10268000000000000000000000000000000000004A
:1026900000000000FFCCFFCC0000000000000000A4
:1026A00000000000F000F00000000000F000F0006A
:1026B000000000000CC00CC0FFFCFFFC0CC00CC0F4
:1026C000FFFCFFFC0CC00CC00C601E703F303330B0
:1026D000FFFCFFFC333033F039E018C06000F00C31
:1026E000F03C60F003C00F003C18F03CC03C001808
:1026F0003CF07FF8C31CC78CCFCCDCEC7878303052
:1027000000FC00CC0000000000004400EC00F800D9
:102710007000000000000000000000000FC03FF04B
:1027200078786018C00CC00C0000000000000000A9
:10273000C00CC00C601878783FF00FC0000000009B
:102740000C600EE007C003803FF83FF8038007C02D
:102750000EE00C6003000300030003003FF03FF0B5
:102760000300030003000300004400EC00F80070C5
:102770000000000000000000000000000300030053
:102780000300030003000300030003000300030031
:102790000018003C003C0018000000000000000091
:1027A000000000000000000C003C00F003C00F001F
:1027B0003C00F000C00000003FF07FF8E0FCC1CC1E
:1027C000C38CC70CCE0CFC1C7FF83FF0000000004F
:1027D000300C700CFFFCFFFC000C000C0000000033
:1027E000300C701CE03CC07CC0ECC1CCC38CE70C4E
:1027F0007E0C3C0C30307038E01CC00CC00CC30C9C
:10280000C30CE31C7FF83CF003C007C00EC01CC023
:1028100038C070C0FFFCFFFC00C000C0FC30FC38BA
:10282000CC1CCC0CCC0CCC0CCC0CCE1CC7F8C3F004
:102830003FF07FF8E31CC30CC30CC30CC30CE39C38
:1028400071F830F0C000C000C000C000C3FCC7FC7D
:10285000CE00DC00F800F0003CF07FF8E79CC30CF1
:10286000C30CC30CC30CE79C7FF83CF03C007E001B
:10287000E70CC30CC31CC338C370E7E07FC03F80C4
:1028800000000000000018603CF03CF01860000000
:102890000000000000000000000018443CEC3CF880
:1028A00018700000000000000000030007800FC047
:1028B0001CE038707038E01CC00C00000CC00CC06C
:1028C0000CC00CC00CC00CC00CC00CC00CC00CC0A8
:1028D0000000C00CE01C703838701CE00FC007808E
:1028E0000300000030007000E000C000C1ECC3EC49
:1028F000C300E6007E003C0030F071F8E39CC30C9E
:10290000C3FCC3FCC00CE01C7FF83FF03FFC7FFC25
:10291000E0C0C0C0C0C0C0C0C0C0E0C07FFC3FFCC1
:10292000FFFCFFFCC30CC30CC30CC30CC30CE79C23
:102930007FF83CF03FF07FF8E01CC00CC00CC00CEE
:10294000C00CE01C70383030FFFCFFFCC00CC00C29
:10295000C00CC00CC00CE01C7FF83FF0FFFCFFFC7B
:10296000C30CC30CC30CC30CC30CC30CC00CC00CF5
:10297000FFFCFFFCC300C300C300C300C300C300CF
:10298000C000C0003FF07FF8E01CC00CC00CC30CBE
:10299000C30CE31C73F833F0FFFCFFFC03000300DF
:1029A0000300030003000300FFFCFFFC0000000025
:1029B000C00CC00CFFFCFFFCC00CC00C00000000F1
:1029C00000300038C01CC00CC00CC01CFFF8FFF069
:1029D000C000C000FFFCFFFC078007800FC01CE0A8
:1029E00038707038E01CC00CFFFCFFFC000C000CC1
:1029F000000C000C000C000C000C000CFFFCFFFC99
:102A0000700038001F001F0038007000FFFCFFFC42
:102A1000FFFCFFFC1C000E000700038001C000E06B
:102A2000FFFCFFFC3FF07FF8E01CC00CC00CC00CAA
:102A3000C00CE01C7FF83FF0FFFCFFFCC300C300AC
:102A4000C300C300C300E7007E003C003FF07FF8F6
:102A5000E01CC00CC0CCC0ECC07CE0387FFC3FEC7C
:102A6000FFFCFFFCC300C380C380C3C0C3C0E770CA
:102A70007E3C3C1C3C187E1CE70CC30CC30CC30CF6
:102A8000C30CC39CE1F860F0C000C000C000C000EF
:102A9000FFFCFFFCC000C000C000C000FFF0FFF85A
:102AA000001C000C000C000C000C001CFFF8FFF0D8
:102AB000FFC0FFE000700038001C001C00380070F0
:102AC000FFE0FFC0FFF0FFF8001C003C00F800F83A
:102AD000003C001CFFF8FFF0F03CF87C1CE00FC04D
:102AE000078007800FC01CE0F87CF03CFC00FE0073
:102AF0000700038001FC01FC03800700FE00FC00CE
:102B0000C03CC07CC0ECC1CCC38CC70CCE0CDC0C70
:102B1000F80CF00C00000000FFFCFFFCC00CC00C27
:102B2000C00C000000000000300030000C000C0061
:102B30000300030000C000C00030003000000000AF
:102B4000C00CC00CC00CFFFCFFFC0000000000002B
:102B50000C001C0038007000E000E000700038003D
:102B60001C000C00000C000C000C000C000C000CF5
:102B7000000C000C000C000C00000000C000E00085
:102B800070003800180000000000000000300678D7
:102B90000EFC0CCC0CCC0CCC0CCC0ECC07FC03F8F3
:102BA000FFFCFFFC030C030C030C030C030C039C45
:102BB00001F800F003F007F80E1C0C0C0C0C0C0CC8
:102BC0000C0C0E1C0738033000F001F8039C030CBA
:102BD000030C030C030C030CFFFCFFFC03F007F8D1
:102BE0000EDC0CCC0CCC0CCC0CCC0EDC07D803903F
:102BF000000003003FFC7FFCE300E30070003000B6
:102C0000000000000318079C0FCC0CCC0CCC0CCCA3
:102C10000CCC0CDC0FF807F0FFFCFFFC03000300FA
:102C200003000300038001FC00FC00000000000022
:102C3000000000001BFC1BFC000000000000000066
:102C4000000000300038001C000C000C001CCFF805
:102C5000CFF000000000FFFCFFFC00E001E003F00B
:102C600007380E1C0C0C000000000000C00CC00C4B
:102C7000FFFCFFFC000C000C000000000FFC0FFC30
:102C80000E00070003C003C007000E000FFC0FFC7E
:102C90000FFC0FFC030007000E000C000C000E00E0
:102CA00007FC03FC03F007F80E1C0C0C0C0C0C0CBE
:102CB0000C0C0E1C07F803F00FFC0FFC0CC00CC032
:102CC0000CC00CC00CC00FC00780030003000780BD
:102CD0000FC00CC00CC00CC00CC00CC00FFC0FFC13
:102CE0000FFC0FFC038007000E000C000C000E0010
:102CF000070003000318079C0FCC0CCC0CCC0CCCA9
:102D00000CCC0CFC0E78063000000C000C00FFF020
:102D1000FFF80C1C0C1C0C380C3000000FF00FF8E6
:102D2000001C000C000C000C000C001C0FF80FF035
:102D30000FC00FE000700038001C001C003800704D
:102D40000FE00FC00FF00FF8001C001C00F800F897
:102D5000001C001C0FF80FF00C0C0E1C073803F0C1
:102D600001E001E003F007380E1C0C0C0C000E0013
:102D7000070C039C01F801F0038007000E000C0013
:102D80000C0C0C1C0C3C0C7C0CEC0DCC0F8C0F0CAC
:102D90000E0C0C0C0000030007803FF07CF8E01CD8
:102DA000C00CC00CC00C0000030C030C3FFC7FFCEB
:102DB000E30CC30CC00CE00C700C300C0000C00C19
:102DC000C00CC00CE01C7CF83FF007800300000042
:102DD000C000C000C000C000C000C000C000C000F3
:102DE000C000C000FFFCFFFCFFFCFFFCFFFCFFFC81
:102DF000FFFCFFFCFFFCFFFC696C69393378785FEE
:102E00006C6364206578616D706C65004300000040
:102E100010000020F8B500BFF8BC08BC9E46704703
:102E200055194000F1004000F8B500BFF8BC08BCDF
:082E30009E467047CD004000F2
:102E3800F00000004001000000093D000000000013
:102E480000000000FC02002064030020CC030020E6
:102E5800000000000000000000000000000000006A
:102E6800000000000000000000000000000000005A
:102E7800000000000C2E40000000000000000000D0
:102E8800000000000000000000000000000000003A
:102E9800000000000000000000000000000000002A
:102EA800000000000000000000000000000000001A
:102EB800000000000000000000000000000000000A
:102EC80000000000000000000000000000000000FA
:102ED80000000000000000000000000000000000EA
:102EE80000000000000000000100000000000000D9
:102EF8000E33CDAB34126DE6ECDE05000B0000009E
:102F080000000000000000000000000000000000B9
:102F180000000000000000000000000000000000A9
:102F28000000000000000000000000000000000099
:102F38000000000000000000000000000000000089
:103268000000000000000000100000200000000026
:10327800000000003C0400203C040020440400201E
:10328800440400204C0400204C0400205404002076
:10329800540400205C0400205C0400206404002026
:1032A800640400206C0400206C04002074040020D6
:1032B800740400207C0400207C0400208404002086
:1032C800840400208C0400208C0400209404002036
:1032D800940400209C0400209C040020A4040020E6
:1032E800A4040020AC040020AC040020B404002096
:1032F800B4040020BC040020BC040020C404002046
:10330800C4040020CC040020CC040020D4040020F5
:10331800D4040020DC040020DC040020E4040020A5
:10332800E4040020EC040020EC040020F404002055
:10333800F4040020FC040020FC0400200405002004
:10334800040500200C0500200C05002014050020B1
:10335800140500201C0500201C0500202405002061
:10336800240500202C0500202C0500203405002011
:10337800340500203C0500203C05002044050020C1
:10338800440500204C0500204C0500205405002071
:10339800540500205C0500205C0500206405002021
:1033A800640500206C0500206C05002074050020D1
:1033B800740500207C0500207C0500208405002081
:1033C800840500208C0500208C0500209405002031
:1033D800940500209C0500209C050020A4050020E1
:1033E800A4050020AC050020AC050020B405002091
:1033F800B4050020BC050020BC050020C405002041
:10340800C4050020CC050020CC050020D4050020F0
:10341800D4050020DC050020DC050020E4050020A0
:10342800E4050020EC050020EC050020F405002050
:10343800F4050020FC050020FC05002004060020FF
:10344800040600200C0600200C06002014060020AC
:10345800140600201C0600201C060020240600205C
:10346800240600202C0600202C060020340600200C
:10347800340600203C0600203C06002044060020BC
:10348800440600204C0600204C060020540600206C
:10349800540600205C0600205C060020640600201C
:1034A800640600206C0600206C06002074060020CC
:1034B800740600207C0600207C060020840600207C
:1034C800840600208C0600208C060020940600202C
:1034D800940600209C0600209C060020A4060020DC
:1034E800A4060020AC060020AC060020B40600208C
:1034F800B4060020BC060020BC060020C40600203C
:10350800C4060020CC060020CC060020D4060020EB
:10351800D4060020DC060020DC060020E40600209B
:10352800E4060020EC060020EC060020F40600204B
:10353800F4060020FC060020FC06002004070020FA
:10354800040700200C0700200C07002014070020A7
:10355800140700201C0700201C0700202407002057
:10356800240700202C0700202C0700203407002007
:10357800340700203C0700203C07002044070020B7
:10358800440700204C0700204C0700205407002067
:10359800540700205C0700205C0700206407002017
:1035A800640700206C0700206C07002074070020C7
:1035B800740700207C0700207C0700208407002077
:1035C800840700208C0700208C0700209407002027
:1035D800940700209C0700209C070020A4070020D7
:1035E800A4070020AC070020AC070020B407002087
:1035F800B4070020BC070020BC070020C407002037
:10360800C4070020CC070020CC070020D4070020E6
:10361800D4070020DC070020DC070020E407002096
:10362800E4070020EC070020EC070020F407002046
:10363800F4070020FC070020FC07002004080020F5
:10364800040800200C0800200C08002014080020A2
:10365800140800201C0800201C0800202408002052
:10366800240800202C0800202C0800203408002002
:0C3678003408002000000200FFFFFFFFEC
:040000050040122580
:00000001FF
