:020000040040BA
:10000000B03B002005084000010840000108400006
:100010000108400001084000010840000000000005
:10002000000000000000000000000000650B400020
:100030000108400000000000150C400001084000CD
:10004000010840000108400001084000010840008C
:10005000010840000108400001084000010840007C
:10006000010840000108400000000000FD054000BC
:10007000110640002506400001084000010840002C
:1000800000000000000000000108400001084000DE
:10009000010840000108400001084000010840003C
:1000A000010840000108400001084000010840002C
:1000B000010840000108400001084000010840001C
:1000C00001084000010840000108400010B5054C3F
:1000D000237833B9044B13B10448AFF300800123F4
:1000E000237010BDAC08002000000000E882400032
:1000F000084B10B51BB108490848AFF30080084809
:10010000036803B910BD074B002BFBD0BDE81040BE
:10011000184700BF00000000B0080020E88240003F
:10012000E88240000000000010B50E480E4B9847D2
:100130003E2100200D4B98470D4CA0470028FCD0D5
:100140000C4B98470C4A0D4B9A620D4CA047002867
:10015000FCD000200B4B98470B4B98470148024BB3
:10016000984710BD000E2707C9094000A1064000AE
:10017000F506400005074000033F1D2000040E4027
:100180001507400039064000B508400090B92DE938
:10019000F0410C469046002A0FDD8F18084E094D9D
:1001A000306821462B6898470134A742F8D1404671
:1001B000BDE8F0814FF0FF3070470020BDE8F081CE
:1001C000A40B00209C0B00200138022815D82DE933
:1001D000F0410E4614469AB10D46DFF838800C4FB8
:1001E000D8F8000015F8011B3B68984700280ADB87
:1001F000A81B013CF4D1BDE8F0814FF0FF307047FF
:100200000020BDE8F0814FF0FF30BDE8F08100BF75
:10021000A00B0020A40B002010B54FF40042104B9F
:100220005A600B200F4CA0470C20A0470D20A04780
:100230004FF0605113200C4CA0474FF06051142038
:10024000A0470A492320A04709494C20A0474FF066
:1002500000624FF4C0610748074B984710BD00BFCC
:1002600050140E40250740009503400079000028F7
:1002700059000028000E0E40B90440004264B1F15C
:10028000C05F2FD007D8B1F1006F14D0B1F1805FFB
:100290001ED039B97047B1F1205F36D004D8B1F122
:1002A000005F29D042607047B1F1405F2DD0B1F1BD
:1002B000605F2AD0F6E710B4046F016FD34321408A
:1002C00019400167446F416F21400B4043671AE0BA
:1002D000036F13430367416F436F0B4023EA02032D
:1002E0004367DFE7016F036F0B4023EA02030367F5
:1002F000436F13434367D5E7036F13430367436FAC
:1003000013434367CEE7426010BC7047416412F06C
:10031000010F14BF4166016612F00A0F14BF01629B
:10032000416212F0020F02D0C0F8801004E012F017
:10033000080F18BFC0F8841041610160704700BF0A
:1003400010B44164019C0CB1416600E001660BB140
:10035000016500E041650AB1016300E041630161AC
:10036000016010BC704700BFC06C7047806C704764
:10037000430903F5001303F207735B02996B00F066
:100380001F00012202FA00F0014214BF58631863F3
:10039000704700BF70B582B00D46430903F50013E6
:1003A00003F207735C0201F0F043B3F1005F47D042
:1003B00009D8B3F1805F21D0B3F1C05F2FD0B3F182
:1003C000006F6FD109E0B3F1405F55D0B3F1605FCA
:1003D00052D0B3F1205F44D064E000F01F0001264A
:1003E000864032464FF000612046304B984715F06A
:1003F000010F14BF66662666012054E000F01F005E
:100400000126864032464FF080512046274B9847C0
:1004100015F0010F14BF66662666012043E000F068
:100420001F000126864032464FF0C05120461F4B28
:10043000984715F0010F14BF66662666012032E06A
:1004400000F01F000126864032464FF00051204642
:10045000164B984715F0010F14BF666626660120FB
:1004600021E000F01F0101262A4606FA01F120468C
:100470000F4B9847304616E005F0605200F01F0120
:10048000012605EA06030093C5F38003B2F1605F1D
:1004900014BF0022012206FA01F12046054CA047B4
:1004A000304600E0002002B070BD00BF7D02400079
:1004B0000D0340004103400070B582B005460E4672
:1004C000144602F0F043B3F1005F38D009D8B3F11D
:1004D000805F1CD0B3F1C05F25D0B3F1006F50D165
:1004E00009E0B3F1405F3AD0B3F1605F37D0B3F1C8
:1004F000205F30D045E00A464FF00061224B98471C
:1005000014F0010F14BF6E662E6601203AE00A4611
:100510004FF080511C4B984714F0010F14BF6E66CA
:100520002E6601202EE00A464FF0C051164B984728
:1005300014F0010F14BF6E662E66012022E00A46F9
:100540004FF00051104B984714F0010F14BF6E6626
:100550002E66012016E00D4B9847012012E004F0B2
:10056000605204F001030093C4F38003B2F1605FB2
:1005700014BF0022012231462846054CA047012025
:1005800000E0002002B070BD7D0240000D0340007D
:10059000410340002DE9F84381468846124B9847B5
:1005A00005464846114B9847054013D0104C04F1BE
:1005B00060062368434508D16168294205D0E36895
:1005C00040469847636825EA0305B44202D01034D8
:1005D000002DEED1074B1B6823B1074B1B680BB1F5
:1005E00048469847BDE8F883690340006D03400022
:1005F000CC080020A80B0020C808002008B50B215B
:100600000148024B984708BD000E0E40950540007A
:1006100008B50C210148024B984708BD00100E4058
:100620009505400008B50D210148024B984708BDCB
:1006300000120E4095054000184A136B23F070031A
:1006400018431063936E13F0080F03D009E0013BC9
:1006500003D11EE04FF4006310498A6E12F0080FB8
:10066000F5D00E4A136B23F0030343F00203136328
:10067000906E10F0080004D000207047013B03D1B9
:1006800009E04FF4006305498A6E12F0080FF5D0B7
:100690007047012070470120704700BF00040E40E2
:1006A00038B111490B6A114A1A40114B13430B62BE
:1006B00070470D48026A090289B222F45C1323F0E4
:1006C000030343F45C1343F001030B43036202464C
:1006D000936E13F0010FFBD0034A136A43F09B7330
:1006E00043F480331362704700040E40FCFFC8FEE1
:1006F00002003701024B986E00F48030704700BF53
:1007000000040E404FF00052014B9A62704700BF48
:1007100000040E40024B986E00F00200704700BFCC
:1007200000040E4022281ED81F280CD8114B9A69AD
:1007300001238340934318D0012303FA00F00D4BAB
:1007400018610020704720380A4BD3F80821012394
:10075000834093430BD0012303FA00F0054BC3F809
:1007600000010020704701207047002070470020E2
:10077000704700BF00040E4010B4AC2303600B6848
:100780004A68B3FBF2F31B095C1E4FF6FE729442FB
:100790000AD803628B68436040F20223C0F820311C
:1007A00050230360002000E0012010BC704700BF10
:1007B000436913F0020F1ABFC16100200120704786
:1007C000436913F0010F1DBF83690B7000200120E6
:1007D000704700BF436913F0020F1DBFC1F308014A
:1007E000C161002001207047436913F0010F05D05B
:1007F0008369C3F308030B60002070470120704732
:10080000FEE700BF08B5204B204A9A4212D9204B80
:100810001D4A9A421ED21146013B9B1A23F0030344
:1008200004331A4A134452F8040B41F8040B9A4259
:10083000F9D10FE0144B154A9A420BD2144B124ACD
:100840009A1A144811182AB151F8042943F8042DB2
:100850008142F9D100BF104B104A9A420BD2131DAE
:100860000F4AD21A22F003021A44043B002143F833
:10087000041B9A42FBD10B4B0B4A9A600B4B9847D7
:100880000B4B9847FEE700BF00000020E8824000C5
:10089000AC080020E4824000B00B0020AC0800202F
:1008A000B30B002000ED00E000004000C91640003E
:1008B000B11540003D4B1B6B03F00303032B5DD8C8
:1008C000DFE803F0020E2B2B394B5B6913F0800F2E
:1008D00014BF4FF400424FF4FA42364B1A604DE019
:1008E000324B1B6A13F0807F03D0334A314B1A60BE
:1008F00044E0324A2F4B1A602C4B1B6A03F0700302
:10090000102B02D0202B04D038E02D4A294B1A603E
:1009100034E0294A274B1A6030E0244B1B6A13F05D
:10092000807F03D0244A234B1A6012E0234A214BD4
:100930001A601E4B1B6A03F07003102B02D0202B91
:1009400004D006E01E4A1B4B1A6002E01A4A194BFB
:100950001A60164B1B6B03F00303022B134A07BFED
:10096000936A926AD36AD26A1248C3F30A4103684F
:1009700001FB0333D2B2B3FBF2F303600B4B1B6BEF
:1009800003F07003702B07D10A4A13680D49A1FBCD
:1009900003135B0813607047044B1B6B0549C3F3DB
:1009A00002120B68D3400B60704700BF00040E407A
:1009B00010140E4000000020001BB70000093D008D
:1009C00000127A00ABAAAAAA1A4B984207D84FF095
:1009D0008063194A136002F5007213607047174B69
:1009E000984206D8164B144A136002F50072136041
:1009F0007047144B984206D8134B0F4A136002F508
:100A0000007213607047114B984206D8104B0A4A87
:100A1000136002F50072136070470E4B984294BF4A
:100A20004FF004230C4B044A136002F5007213606C
:100A3000704700BFFF2C3101000A0E40FF596202CF
:100A400000010004FF86930300020004FFB3C40406
:100A500000030004FFE0F50500050004094B1B68D6
:100A600013B9094A074B1A60064B1B681A18074945
:100A7000914204DB1046034A1060184670474FF05D
:100A8000FF3070473C090020B03B0020FC7F022073
:100A90004FF0FF30704700BF4FF400534B60002011
:100AA000704700BF012070470020704700F1080325
:100AB00043604FF0FF328260C36003610023036034
:100AC000704700BF00230361704700BF43685A6846
:100AD0004A6042688A605A68916059604160086162
:100AE000036801330360704710B40C68B4F1FF3F32
:100AF00001D103690AE000F10803C2681268944258
:100B000004D35B685A6812689442FAD25A684A6001
:100B100091608B605960086103680133036010BC09
:100B2000704700BF436882689A60836842685A6071
:100B300003695A68904204BF82685A6000220261C9
:100B40001A68013A1A6070474FF0807340F8043C0D
:100B500040F8081C002340F80C3C40F8202C40389A
:100B6000704700BF064B19680868B0E8F00F80F3C3
:100B700009884FF0000080F311884EF00D0E704789
:100B8000E009002002480068006880F3088800DF60
:100B900008ED00E010B50B4B1A6842F470021A60C1
:100BA0001A6842F070421A60074AA3F60C531A60A2
:100BB0000722043B1A600024044B1C60044B984736
:100BC000204610BD20ED00E0BFD40100040000204D
:100BD000850B40004FF08052014B1A60704700BFF8
:100BE00004ED00E04FF0500080F31188024A1368D2
:100BF00001331360704700BF04000020044A1368EB
:100C0000013B13601BB94FF0000080F3118870475F
:100C100004000020EFF309800C4B1A6820E9F00F64
:100C200010602DE908404FF0500080F3118800F06B
:100C30005DFB4FF0000080F31188BDE808401968A3
:100C40000868B0E8F00F80F309887047E0090020D9
:100C500010B50446044B98472046044B9847044679
:100C6000034B9847204610BDBD0F40004117400080
:100C7000F510400048B110B50446044B9847204693
:100C8000034B9847034B984710BD7047BD0F40007A
:100C900051174000F510400010B50F4B1B6858600D
:100CA0000E4B1B68984207D20D4B18680A4B196807
:100CB00004310C4B984710BD04460B4B1868064B8B
:100CC00019680431074B9847084B1B689C423CBF8E
:100CD000064B1C6010BD00BFE00900204409002045
:100CE000AC090020E90A4000B40900200C000020F3
:100CF00008B5024D024CA847A047FCE7D50B4000C1
:100D0000A91540002DE9F04F87B005900D46934698
:100D10004B685B684B6001F10807BB4204BF5B682E
:100D20004B604B68D3F80CA0DFF86490164EDFF8E8
:100D300064806B685B686B609F4204BFEB686B60AC
:100D40006B68DC68226B1378A52B07D10023013375
:100D50009BB212F8011FA529F9D000E00023E26A36
:100D6000616C02919B08019300925B4604F134028E
:100D700049463046C04731460598044B9847A2453E
:100D8000D7D107B0BDE8F08FE4090020DD20400096
:100D900030804000912040002DE9F04F83B0834621
:100DA0000E4615460193DDF830A0DDF834900E9F15
:100DB0004C20564B9847002800F0A2800446002F94
:100DC00040F09B80A800514B9847206318B92046FB
:100DD0004F4B984794E0AA00A5214E4B984705F148
:100DE0008045013D236B03EB850525F007051022A7
:100DF000314604F13400484B9847002384F84330CF
:100E00005646042E28BF0426E662A664271D3846EF
:100E1000DFF85081C04704F11800C0472461C6F1D3
:100E20000506A6616462019A594628463B4B9847DD
:100E30002060B9F1000F01D0C9F80040384B984745
:100E4000384A136801331360374B1B68FBB9364BC4
:100E50001C601368012B24D1344D05F16408344E15
:100E60002846B04714354545FAD1DFF8FC804046A6
:100E70002F4DA8472F4E3046A8472F48A8472F4848
:100E8000A8472F4BC3F800802E4B1E6009E02E4B65
:100E90001B6833B9244B1B68DB6A9A4524BF224B7D
:100EA0001C60E06A294B1B68984284BF274B18607E
:100EB000274A1368636401331360264B1B6898420A
:100EC00084BF244B186000EB80003946174B03EBBE
:100ED0008000214B9847214B98471B4B1B6843B11F
:100EE000114B1B68DB6A9A4505D91D4B98470120B9
:100EF00008E0012006E0012004E0076338466AE7C5
:100F00004FF0FF3003B0BDE8F08F00BF510C400040
:100F1000750C4000691E4000DD224000490B400076
:100F2000E50B4000B8090020E00900204809002036
:100F3000AD0A4000400A0020BC090020180A002029
:100F4000B4090020AC090020D0090020640A002068
:100F5000D809002040090020CD0A4000FD0B4000C8
:100F6000D50B4000C50A40002C0A002010B584B003
:100F700000230393029301930093462209490A48F0
:100F80000A4CA04701280BD14FF0500080F3118884
:100F90000122074B1A600022064B1A60064B984745
:100FA00004B010BD44804000F10C4000990D400099
:100FB000D009002044090020950B4000024A136824
:100FC00001331360704700BF540A0020014B1868BA
:100FD000704700BFB80900202DE9F041394B1B686C
:100FE000002B61D1384B1A6801321A601B68C3B9F3
:100FF000364B1968364A10681860116035490A681E
:1010000001320A601B681B6823B94FF0FF32324B74
:101010001A6006E02D4B1B68DB68DB685A682E4BB4
:101020001A60294B1A682C4B1B689A4242D3274BF3
:101030001B681B686BB1254B1B68DB68DC68636849
:10104000214A1268934212D8244E254FDFF8A0801F
:1010500010E04FF0FF32204B1A602BE01B4B1B6857
:10106000DB68DC686368184A1268934202D91A4A3E
:1010700013601FE0251D2846B047A36A13B104F191
:101080001800B047E06A3B68984288BF386000EBC0
:101090008000294608EB8000124B98470B4B1B68D9
:1010A0001B68002BDAD1D4E70F4A136801331360B1
:1010B0000E4B98470C4B1B680BB90C4B9847BDE87F
:1010C000F08100BF540A002044090020B409002028
:1010D000AC090020600A00200C000020250B400015
:1010E00040090020CD0A4000580A0020AD154000FC
:1010F000480900202DE9F8432C4B98472C4B1A68DF
:10110000013A1A601B68002B48D12A4B1B6803BBAD
:10111000002446E0FB68DC6804F11800C047251D88
:101120002846C047E06AD9F80030984288BFC9F81D
:10113000000000EB800029461F4B03EB80001F4B93
:1011400098471F4B1B68E26ADB6A9A4228BF012658
:1011500005E000261B4FDFF88480DFF884903B68B1
:10116000002BD7D1184B1B685BB1174B1B6843B1E1
:10117000164D154CA8472368013B23602368002BBC
:10118000F8D1012E03D0124B1B68012B08D100228D
:101190000F4B1A600F4B9847012402E0002400E037
:1011A00000240D4B98472046BDE8F883E50B40002E
:1011B000540A0020B809002048090020CD0A400048
:1011C000E0090020BC090020580A0020D90F400087
:1011D000D4090020D50B4000FD0B4000250B40003A
:1011E0004009002010B580B10446094B9847094BCF
:1011F0001B681C44084B18680430084B984720466D
:10120000074B9847074B984708B9074B984710BDBD
:10121000BD0F400044090020E0090020250B4000DC
:10122000990C4000F5104000D50B40002DE9F84323
:101230000646244B9847002333703046224B98478C
:101240003218224B19889B7831529370204B1C68BE
:10125000013404EB84051F4B03EB8505143D1F4649
:101260004FF05209DFF87480013C04EB840357F817
:1012700023301BB14A4629463046C047143D002C56
:10128000F2D1154B1B681B682BB1134B1968422216
:101290003046124B9847124B1B681B682BB1104B02
:1012A0001968422230460D4B98470E4B1B6823B1FC
:1012B00053220C493046094B98470B4B9847BDE8E1
:1012C000F88300BFBD0F4000012240008480400031
:1012D000640A002048090020B4090020050D4000E0
:1012E000AC090020180A0020F51040003E4B1B6896
:1012F0001BB101223D4B1A60704710B53C4B1A6878
:101300001B6812681B6B9A4205D8394B186819681C
:101310003431384B9847364B1B6814223649186BCA
:10132000364B984728B1324B186819683431314B25
:101330009847334B1B6803EB83039B00314AD35818
:101340005BB92F4A2F491368013B1360136803EB05
:10135000830351F82330002BF5D0294B1B68294A11
:101360009900C81802EB8000446864684460024633
:101370000832944206D1606803EB8302214901EBF5
:101380008202506003EB83031E4A02EB83035B6817
:10139000DA68174B1A601C4B1B681BB3144B1B6895
:1013A0005A6C1A4B1B689A421CD0194B1B680833A5
:1013B000184A12689A4212D90D4B1B68596C134B8C
:1013C0001960134B1A681448006810601A680432D8
:1013D0001A601A6811601A6804321A6010BD00227F
:1013E000094B1A6010BD00BF540A0020D409002028
:1013F000E0090020911540001C804000D11C4000F5
:101400004009002048090020B00900200800002001
:10141000DC0900205C0A00204409002008B5064EC3
:10142000064D074C1320B0472846A0474FF47A706A
:10143000044B9847F6E700BF710340004C80400022
:1014400019174000E511400080B5094F094E0A4DBB
:10145000B84701463046A847084C2046084B9847F5
:101460002046A8474FF47A70064B9847F0E700BF34
:10147000CD0F40006080400019174000680A00202E
:101480002D124000E5114000F0B583B005460C4632
:1014900000230193184B984207D11F46174E21464F
:1014A0003846B0470028FAD117E0154B984207D1CB
:1014B0001E46124D21463046A8470028FAD118E0B2
:1014C000104B984209D11E460F4D01A93046A8473E
:1014D0000028FAD1019B23700BE00C4B9D4208D1F0
:1014E0001E46094D01A93046A8470028FAD1019BA4
:1014F000237003B0F0BD00BF00060E40C1074000DE
:1015000000080E4000400240E90740000080024011
:1015100070B50C46184B984208D11E46174D21460F
:101520003046A8470028FAD1012070BD144B9842DC
:1015300008D11E46114D21463046A8470028FAD151
:10154000012070BD0F4B984208D11E460E4D21461A
:101550003046A8470028FAD1012070BD0B4B9842B5
:1015600008D11E46084D21463046A8470028FAD12A
:10157000012070BD002070BD00060E40B107400084
:1015800000080E4000400240D507400000800240A5
:1015900008B50A4601460248024B9847FEE700BFDD
:1015A0007080400019174000704700BF704700BFAF
:1015B00030B589B0294B9847294B9847294C2A4B7D
:1015C0001C602A4A2A4B1A602A4A2B4B1A602B4B62
:1015D00005934FF4E13306934FF40063079308201B
:1015E000274B984705A92046264B9847264D2B6840
:1015F00000219868254CA0472B6800215868A04717
:101600002B6800219868A0472148224CA047224916
:101610002248A047224A23492348A0470024039494
:1016200002940194009423464FF400721F4920480D
:10163000204DA847039402940194009423464FF44C
:1016400080721D491D48A847012802D01C48114B33
:1016500098471C4B9847002009B030BD2901400035
:101660001902400000060E40A40B00201115400096
:10167000A00B0020891440009C0B0020000E2707BF
:10168000250740007907400038040020311F400042
:101690008880400019174000A4804000B0804000BE
:1016A000B8804000C4804000D0804000E880400006
:1016B00049144000990D4000F08040001D14400086
:1016C000F48040006D0F400070B50F4E0F4D761B3B
:1016D000B61018BF002405D0013455F8043B9847D4
:1016E000A642F9D10A4E0B4D761B06F0E7FDB61067
:1016F00018BF002406D0013455F8043B9847A64291
:10170000F9D170BD70BD00BFC8824000C8824000E2
:10171000D0824000C88240000FB400B5074983B0B2
:1017200004AB086853F8042B8168019302F094F924
:1017300003B05DF804EB04B0704700BF380400202C
:10174000024B0146186800F00BB800BF38040020B7
:10175000024B0146186804F0E9BA00BF38040020C3
:101760002DE9F04F01F10B05162D83B0064640F22E
:101770009F8035F0070500F1BF80A94200F2BC80D0
:1017800000F0C0FBB5F5FC7FC0F09C826B0A00F056
:10179000BA80042B00F28381A80900F1390E4FEAC8
:1017A0004E033830C44F07EB8303A3F108015C6894
:1017B000A14207D1ACE0002A80F2AC80E468A142EB
:1017C00000F0A680636823F003035A1B0F2AF2DDA2
:1017D000B9493C6901F1080E744500F0B3816368B2
:1017E00023F003035A1B0F2A00F39981002AC1F842
:1017F00014E0C1F810E080F29E80B3F5007F80F025
:101800006781DB0803F1010C01229B1002FA03F34C
:101810004A6851F83C80C4F8088001EBCC091A43AF
:10182000A9F10803E3604A6041F83C40C8F80C4065
:10183000831001249C40944200F28A80144206D115
:1018400020F003006400144200F10400FAD007EB1A
:10185000C009CC468046DCF80C108C4507D173E1FA
:10186000002A80F28181C9688C4500F06D814B6847
:1018700023F003035A1B0F2AF2DD0C46D1F80CC0EB
:1018800054F8088F4B1945F001054D6042F00101F5
:10189000C8F80CC03046CCF808807B613B61C3F8C7
:1018A0000CE0C3F808E059609A5000F02DFB1FE0EF
:1018B000102921D800F026FB1025062302207E4F98
:1018C00007EB8303A3F108025C68944200F04581B2
:1018D0006368E168A56823F00303234430465A682F
:1018E000E96042F001028D605A6000F00DFB08349F
:1018F000204603B0BDE8F08F00240C23204633605F
:1019000003B0BDE8F08F80234FF0400E3F2049E741
:1019100070465DE72344E1685A68A56842F0010219
:10192000E96030468D605A6000F0EEFA08342046D7
:1019300003B0BDE8F08F234430465A6842F00102FC
:101940005A6000F0E1FA0834204603B0BDE8F08F99
:10195000BC68636823F00308A84504D3C5EB0803FB
:101960000F2B00F38C80554BDFF860911A68D9F883
:10197000003001332A4404EB080A00F0608102F5CC
:1019800080520F3222F47F6222F00F02114630465D
:10199000019200F0BBFAB0F1FF3F8346019A00F0DC
:1019A0005881824500F2FC80454B1968DA451144A4
:1019B000196000F05381D9F80000DFF810E1013020
:1019C0001BBFCAEB0B0A5144CEF800B019601BF0E4
:1019D000070100F01781C1F10800C1F5805183446F
:1019E00008315A44C2F30B02C2EB010949463046A2
:1019F000019300F08BFA431C019B00F03F81CBEB7D
:101A000000024A4442F001021968C7F808B049448C
:101A1000BC42CBF804201960DFF8A49016D0B8F1CE
:101A20000F0F40F2FD806268A8F10C0323F007035A
:101A3000E01802F001024FF0050E1A430F2B62600E
:101A4000C0F804E0C0F808E000F21C811D4BBC683F
:101A50001A68914288BF19601B4B1A6891426268EC
:101A600088BF196022F003029542A2EB050301D85A
:101A70000F2B04DC304600F047FA002438E76219E7
:101A800043F0010345F0010565603046BA605360DC
:101A900000F03AFA0834204603B0BDE8F08F142B6A
:101AA00071D9542B00F2A480280B00F16F0E4FEA7D
:101AB0004E036E3076E600BF3C040020700B002021
:101AC000740B00206C0B0020680B002048080020DD
:101AD0005A0A042A5ED9142A00F2B38002F15C018A
:101AE00049005B3207EB810C57F82110DFF8DC81ED
:101AF000ACF1080C8C4500F088804A6822F00302A3
:101B0000934202D289688C45F7D1D1F80CC07A682B
:101B1000C4F80CC0A160CCF80840CC6088E663191A
:101B200042F0010745F00105656030464B610B61ED
:101B3000C3F80CE0C3F808E05F609A50083400F086
:101B4000E3F9D5E64A6873E608F1010818F0030FD7
:101B50000CF1080C7FF47FAE30E0DC68A34208BFD4
:101B600002303FF435AEB3E60B440C465A68C96800
:101B700054F8085F42F001025A603046E9608D6017
:101B800000F0C2F9B4E603F15C0E03F15B004FEA2A
:101B90004E0307E69A0902F1390149003832A1E7FC
:101BA000BC424A4B3FF400AF9C68626822F00302DB
:101BB0005AE759F80839994540F0828010F0030F30
:101BC00000F1FF30F5D17B6823EA04037B606400F9
:101BD0009C423FF6BDAE002C3FF4BAAE1C424046DC
:101BE0007FF435AE64001C4200F10400FAD02EE60A
:101BF000B3F5AA7F18D8E80B00F1780E4FEA4E0330
:101C00007730CFE54FF48051EBE60121D8F804306E
:101C1000921001FA02F21A43C8F80420614677E7ED
:101C20000123CBF8043025E740F25452934220D8E8
:101C3000A80C00F17D0E4FEA4E037C30B2E5103265
:101C4000A4E6542A26D81A0B02F16F0149006E321D
:101C500048E7BC68626822F0030205E7CAF30B009C
:101C600000287FF4A8AE4244BB6842F001025A60EB
:101C7000ECE6FE234FF07F0E7E2093E501224FF02D
:101C80000009C1E604F10801304604F04FF8D9F824
:101C90000010DBE6B2F5AA7F05D8DA0B02F1780175
:101CA000490077321EE740F254518A4205D89A0C17
:101CB00002F17D0149007C3214E7FE217E2211E70A
:101CC0007B6884E7E808431C5B00F8E53C040020DF
:101CD000032A70B426D940EA01039B0711D0047887
:101CE0000D78AC4222D10244431C05E013F8014BAD
:101CF00011F8015FAC4219D19342F7D1002070BCBA
:101D000070470C4603461E682568AE4218462146B9
:101D100003F1040304F10404E1D1043A032A184650
:101D20002146F0D8002ADAD11046E8E7601B70BCE3
:101D3000704700BF844641EA000313F003036DD1EE
:101D4000403A41D351F8043B40F8043B51F8043B7E
:101D500040F8043B51F8043B40F8043B51F8043B85
:101D600040F8043B51F8043B40F8043B51F8043B75
:101D700040F8043B51F8043B40F8043B51F8043B65
:101D800040F8043B51F8043B40F8043B51F8043B55
:101D900040F8043B51F8043B40F8043B51F8043B45
:101DA00040F8043B51F8043B40F8043B51F8043B35
:101DB00040F8043B51F8043B40F8043B51F8043B25
:101DC00040F8043B403ABDD2303211D351F8043BC5
:101DD00040F8043B51F8043B40F8043B51F8043B05
:101DE00040F8043B51F8043B40F8043B103AEDD274
:101DF0000C3205D351F8043B40F8043B043AF9D2C5
:101E0000043208D0D2071CBF11F8013B00F8013B97
:101E100001D30B8803806046704700BF082A13D3A4
:101E20008B078DD010F003038AD0C3F10403D21ABC
:101E3000DB071CBF11F8013B00F8013B80D331F8F0
:101E4000023B20F8023B7BE7043AD9D3013A11F870
:101E5000013B00F8013BF9D20B7803704B784370DB
:101E60008B7883706046704770B4840746D0541EE8
:101E7000002A41D0CDB2034602E0621EE4B314460C
:101E800003F8015B9A07F8D1032C2ED9CDB245EAAD
:101E900005250F2C45EA054519D903F11002264600
:101EA000103E0F2E42F8105C42F80C5C42F8085CC1
:101EB00042F8045C02F11002F2D8A4F1100222F000
:101EC0000F0204F00F041032032C13440DD91E46E8
:101ED0002246043A032A46F8045BFAD8221F22F06D
:101EE00003020432134404F003042CB1C9B21C44AD
:101EF00003F8011BA342FBD170BC70471446034694
:101F0000C2E700BF704700BF704700BF38B5074C3D
:101F10000023054608462360FEF7A0FD431C00D0C1
:101F200038BD2368002BFBD02B6038BDAC0B0020E4
:101F300000290CBF022200224FF4806300F000B899
:101F40002DE9F043514C256883B004460F46904676
:101F50001E4615B1AB6B002B79D0B8F1020F04D03F
:101F6000B8F1010F7FD8002E7DDB2146284603F013
:101F70007FFD216B41B104F14003994202D0284614
:101F800003F0D4FE00232363B4F90C300022A261D5
:101F900062601A0654D423F44A6323F00303B8F1B1
:101FA000020FA38139D001AB6A462146284604F0CE
:101FB0005FF9A3891843A08126B327B3AB6B002B2D
:101FC0004DD0009BB4F90C0027609E421CBF40F42A
:101FD0000060A081B8F1010F08BF40F0010083B29A
:101FE00008BFA08103F0080080B22761666118B3C2
:101FF00013F001002FD000207642A661A06003B04C
:10200000BDE8F083009E3046FFF79AFB074668B3B1
:10201000A38943F08003A381D0E7002004F14302A9
:1020200043F0020300250121A381A5602260226103
:10203000616103B0BDE8F083A06003B0BDE8F08348
:102040002169284603F072FEB4F90C30A3E7284654
:1020500003F0A2FD81E7A66003B0BDE8F083284647
:1020600003F09AFDADE74FF0FF30E2E7DDF80090B6
:10207000B14506D04846FFF763FB074608B14E4618
:10208000C6E7B4F90C304FF0FF30C7E73804002042
:102090000EB4F0B59CB021AB0F4953F8042B01935B
:1020A00005466FF00044086802954FF402774FF63A
:1020B000FF7602A90695ADF8147004940794ADF864
:1020C000166000F03FF9029B00221A701CB0BDE8B8
:1020D000F04003B0704700BF38040020830710B5FC
:1020E000044610D10268A2F1013323EA020313F07F
:1020F000803F08D150F8042FA2F1013323EA0203F4
:1021000013F0803FF6D003781BB110F8013F002B8D
:10211000FBD100F003F8204610BD00BF80EA0102A9
:10212000844612F0030F4FD111F0030F32D14DF856
:10213000044D11F0040F51F8043B0BD0A3F1013210
:102140009A4312F0803F04BF4CF8043B51F8043B23
:1021500016D100BF51F8044BA3F101329A4312F09B
:10216000803FA4F101320BD14CF8043BA24312F0A2
:10217000803F04BF51F8043B4CF8044BEAD023469F
:102180000CF8013B13F0FF0F4FEA3323F8D15DF851
:10219000044B704711F0010F06D011F8012B0CF819
:1021A000012B002A08BF704711F0020FBFD031F891
:1021B000022B12F0FF0F16BF2CF8022B8CF8002018
:1021C00012F47F4FB3D1704711F8012B0CF8012B9B
:1021D000002AF9D1704700BF000000000000000095
:1021E00000000000000000000000000000000000EF
:1021F00000000000000000000000000000000000DF
:1022000090F800F06DE9024520F007016FF0000C36
:1022100010F0070491F820F040F049804FF00004DE
:102220006FF00700D1E9002391F840F000F10800B9
:1022300082FA4CF2A4FA8CF283FA4CF3A2FA8CF3F1
:102240004BBBD1E9022382FA4CF200F10800A4FA58
:102250008CF283FA4CF3A2FA8CF3E3B9D1E90423AC
:1022600082FA4CF200F10800A4FA8CF283FA4CF3E3
:10227000A2FA8CF37BB9D1E9062301F1200182FA9D
:102280004CF200F10800A4FA8CF283FA4CF3A2FAA3
:102290008CF3002BC6D0002A04BF04301A4612BAB1
:1022A000B2FA82F2FDE8024500EBD2007047D1E9B4
:1022B000002304F00305C4F100004FEAC50514F043
:1022C000040F91F840F00CFA05F562EA05021CBF14
:1022D00063EA050362464FF00004A9E740EA010300
:1022E0009B0770B42BD1032A29D90C4603462146FB
:1022F00054F8046BA6F1013525EA060515F0803F78
:1023000006D1043A032A43F8046B2146EFD8A2B160
:102310000C781C70013A013301313CB16AB111F8FB
:10232000014B03F8014B013A002CF7D12AB11A44B2
:10233000002103F8011B9A42FBD170BC7047034691
:10234000E5E700BF2DE9F04FC1B00C4609911546F5
:102350000E930A9003F088FF036817931846FFF75F
:102360004FFFA38916901E0603D52369002B01F0A9
:10237000198100231A4612932593249319930B93E2
:10238000DFF864A4149230AB239399461592A846C3
:1023900098F800304446EBB1252B02D11AE0252BEA
:1023A00003D014F8013F002BF9D1C8EB04058DB11F
:1023B000249B259AC9F8008001332A44072BC9F8C9
:1023C00004502592249300F3A68009F108090B9B81
:1023D0002B440B932378002B00F0A68000231A4691
:1023E0008DF86F3019460C9307934FF0FF3B6378DD
:1023F00004F101085D4608F10108A3F12000582806
:1024000000F22584DFE810F08803230423049003FE
:102410002304230423042304230423049703A50390
:1024200023045D00E2002304FE000501050105010F
:10243000050105010501050105010501230423042A
:102440002304230423042304230423042304230454
:10245000150181022304810223042304230423049D
:10246000C60223042304CD022304230423042304EB
:102470002304F70223042304250323042304230451
:1024800023042304230423042304230423046603D2
:1024900079038102810281028103790323042304E9
:1024A000D1032304DB03A3006400EE032304F5033C
:1024B0002304AA0323042304BC030C980E93404274
:1024C0000C90079B43F00403079398F8003092E7C1
:1024D0000E98AB46002104688DF86F10071D079811
:1024E000302378228B458DF870304FF000058DF841
:1024F000712040F00203C0F2C78320F0800343F054
:102500000203079354EA05030E9700F093830F46E6
:102510001192B348CEE223AA09990A9804F016FD55
:1025200048B90DF1C00952E7259B23B10A980999D2
:1025300023AA04F00BFD099B9B8913F0400F0B9B12
:1025400018BF4FF0FF33184641B0BDE8F08F11932C
:10255000AB46002A41F02382079A12F0200300F0D4
:102560002E820E9F073727F00703002703F108018B
:10257000BB450E91D3E900458DF86F70C0F25287CC
:1025800022F08003079354EA050300F0758330AE10
:10259000E20842EA4572E90804F007030D461446D2
:1025A000303354EA050206F8013DF1D1079AD1070C
:1025B00040F18480302B00F081803022731E06F8B9
:1025C000012C30AAD21A0D921E467AE098F80030FB
:1025D0002A2B08F1010401F0B181A3F13000092890
:1025E00098BF002501F2648114F8013B05EB8505D5
:1025F00000EB4505A3F130000928F5D945EAE5755A
:10260000A046FAE6079B43F08003079398F8003052
:10261000F1E6A3F1300000231C4618F8013B04EB5F
:10262000840400EB4404A3F130000928F5D90C948C
:10263000E3E61193AB46002A41F0C981079B43F0C2
:1026400010030793079B980640F130850E9F0737CC
:1026500027F00707D7E9002307F108010E91144678
:102660001D46002A73F10003C0F25B85BBF1000F29
:102670009DF86F70C0F23885079B23F080030793A5
:1026800054EA050300F0DB81002D08BF0A2CC0F0DE
:10269000DB8130AE204629460A22002305F032FBBA
:1026A000303206F8012D2046294600230A2205F083
:1026B00029FB04460D4654EA0503EBD130AB9B1BC6
:1026C0000D930D9B5B45B8BF5B46089300231393A6
:1026D00017B1089B01330893079B13F002030F9374
:1026E00002D0089B02330893079B13F084031093D6
:1026F00040F0D7820C9B089A9D1A002D40F3D1829E
:10270000102D2599249A374F27DD18964846102416
:10271000B946099E2F460A9D04E0103F102F00F194
:10272000080016DD01322F4B24921031072A259123
:1027300080E81800F1DD23AA3146284604F006FCA3
:1027400000287FF4F8AE103F102F2599249A30A866
:10275000E8DC189E3D464F46814601326C18072A38
:1027600025942492C9F80070C9F8045000F3288415
:102770009DF86F7009F1080977B1249B013301348A
:102780000DF16F010122072B2594249389E806009F
:1027900000F3A08309F108090F9B6BB1249B01335F
:1027A00002341CA90222072B2594249389E80600F1
:1027B00000F39C8309F10809109B802B00F0D5825F
:1027C0000D9BC3EB0B07002F39DD074A249B0F92AB
:1027D000102F28DD22464FF0100B0A9D099C0AE0BD
:1027E000548140007481400020814000103F102F30
:1027F00009F1080916DD01331032072B25922493C5
:1028000089E8000CF2DD23AA2146284604F09EFB4D
:1028100000287FF490AE103F102F259A249B0DF1D5
:10282000C009E8DC144601330F9A24933C44072B7B
:10283000259489E8840000F3418309F10809079B86
:10284000DA0500F13082249B0D99C9F8006001334C
:102850000C44072B2594C9F80410249300F3188323
:1028600009F10809079B59073FD50C9B089A9D1A47
:10287000002D3ADD102D249BBC4F23DD224610266F
:10288000DDF828B0099C04E0103D102D09F108097D
:1028900017DD0133B54924931032072B259289E8BF
:1028A0004200F1DD23AA2146584604F04FFB0028E0
:1028B0007FF441AE103D102D259A249B0DF1C009E7
:1028C000E7DC144601332C44072B25942493C9F8E4
:1028D0000070C9F8045008DD23AA09990A9804F089
:1028E00035FB00287FF427AE259C0B9B0C9A08999A
:1028F0008A42ACBF9B185B180B93002C40F0D4822B
:10290000002324930DF1C00942E51193AB46002A40
:1029100041F059800E9F073727F0070303F10802A3
:102920000E921A6814925B681593159B149D23F000
:102930000044284621464FF0FF328D4B05F0A4F9A4
:10294000002840F0C184284621464FF0FF32884BD2
:1029500005F07CF9002840F0B784149815990022FE
:10296000002305F069F9002840F04B879DF86F704F
:10297000804E814B079921F0800107911199032224
:102980004FF0000B08924729D8BF1E460D92CDF894
:102990004CB09DE6079B43F00803079398F800307E
:1029A00029E51193AB46002A41F00980079B43F0CB
:1029B00010030793079A12F020037FF4D2AD079912
:1029C00011F0100200F007850E988DF86F30BBF102
:1029D000000F046800F104074FF00005C0F22185E4
:1029E0000A4622F08002079254EA05020E9700F090
:1029F00043811F46CBE51193AB46002A40F0D787B1
:102A0000079B43F010030793079A12F0200300F08E
:102A100032830E9F073727F00703002703F10801D1
:102A2000BB450E91D3E900458DF86F70C0F25C8311
:102A300022F08003079354EA05037FF425AEBBF12F
:102A4000000F00F0FE80002440AE303406F8414D07
:102A500034E61193AB46002A40F0A587079B474810
:102A60009D0640F197800E9F073727F00703D3E9B3
:102A7000004503F108020E92079A12F0010700F0D8
:102A8000418254EA050300F0F5849DF844208DF856
:102A900071200027079A8DF86F703023BB458DF8A1
:102AA000703042F00203C0F2A98622F0800343F0A6
:102AB0000203079330AE230904F00F0143EA0573C4
:102AC0002A091C461546435C06F8013D54EA0503F5
:102AD000F1D1F3E50E9911930A688DF8982000233F
:102AE0000A461F468DF86F30043201230893BB4617
:102AF00013970E920D9326AEEEE51193AB46002A86
:102B00003FF4A0AD8DF86F109CE5079B43F04003A8
:102B1000079398F800306EE498F8003000297FF4AD
:102B20006AAC0122202166E4079B43F0010307936E
:102B300098F800305FE40E9C23680C931846002838
:102B4000234603F10403FFF6B8AC0E9398F8003067
:102B500051E498F8003001222B214CE41193AB464C
:102B6000002A3FF451AF8DF86F104DE7748140009B
:102B7000FFFFEF7F34814000308140004081400002
:102B80001193AB46002A40F00387079B99489D06A6
:102B90003FF569AF079BDC0640F15E840E9A134651
:102BA000043314680E93002566E798F800306C2B08
:102BB00000F0E184079840F0100007901BE4002A21
:102BC00040F0DB86079B9B0640F12F840E9A0B9901
:102BD0001368CD170846043229460E92C3E9000156
:102BE000FFF7D6BB079B43F02003079398F800300C
:102BF00001E40E9A1193166800248DF86F40171D9A
:102C0000002E00F0BD85002DC0F20F852A4621461A
:102C1000304603F0A5FB002800F00486831B0D93CB
:102C2000A34623EAE3730E970893CDF84CB09DF8C2
:102C30006F704DE56F481192BBF1000F40F073814A
:102C40005F464FF0000BCDF834B030AE39E511934C
:102C5000002A40F0B086119A002A3FF465AC0023A8
:102C600001211F4608918DF898208DF86F309B4602
:102C700013930D9126AE2FE5BBF1000F00F0DD851B
:102C800000270024002582E45A480793119254EA51
:102C900005030E974FF000077FF40CAF00240025CA
:102CA00008E7259C68E5119B652B40F3A9801498E3
:102CB00015990022002304F0B5FF002800F03581AB
:102CC000249B4D4AC9F80020013301340122072B0F
:102CD00025942493C9F8042000F3E68309F1080938
:102CE0001D9B129A934203DB079BDB077FF5BAAD6E
:102CF000249B1699179AC9F8002001330C44072B1E
:102D00002594C9F80410249300F33F8409F10809BD
:102D1000129B5D1E002D7FF7A5AD384A249B0F92B4
:102D2000102D40F3E68110260A9FDDF824B005E05F
:102D300009F10809103D102D40F3DB8101331034F7
:102D4000072B25942493C9F800A0C9F80460EFDD8F
:102D500023AA5946384604F0F9F800287FF4EBAB73
:102D6000259C249B0DF1C009E4E70C9B089A9F1A4F
:102D7000002F7FF725AD214A249B0F92102F2BDDCA
:102D80004A462146B946102537460A9C099E06E068
:102D9000A9F11009B9F1100F02F1080218DD013391
:102DA0001031072B25912493C2F800A05560EFDD68
:102DB00023AA3146204604F0C9F800287FF4BBABB3
:102DC000A9F11009B9F1100F2599249B30AAE6DC6E
:102DD0003E460C464F46914601330F9A24933C449D
:102DE000072B259489E8840000F3458209F108093E
:102DF000E6E400BF54814000708140002081400023
:102E0000129B249D012B40F30882013501340123DC
:102E1000072D25942495C9F80060C9F8043000F303
:102E20000D8209F10809169A179BC9F8003001357F
:102E30001444072D25942495C9F8042000F30E822C
:102E400009F10809002314981599002204F0EAFEFC
:102E5000129B002840F0C380013B013501361C4421
:102E6000072D24952594C9F80060C9F8043000F3B3
:102E7000F58009F10809199AC9F8042001351444AC
:102E80001FAB072D25942495C9F800307FF7E8ACD7
:102E900023AA09990A9804F059F800287FF44BAB4B
:102EA000259C0DF1C009DDE423AA09990A9804F0D4
:102EB0004DF800283FF424ADFFF73DBB23AA099944
:102EC0000A9804F043F800287FF435AB259C0DF1F7
:102ED000C009B4E423AA09990A9804F037F8002835
:102EE0007FF429AB259C0DF1C00955E423AA09996B
:102EF0000A9804F02BF800287FF41DAB259C0DF1F7
:102F0000C00959E4BBF1000F8DF86F70C0F2D88290
:102F100022F08003079354EA05037FF4CBADBBF1A5
:102F2000000F3FF48DAE0027B8E61D9D002D40F345
:102F3000CA82139B129A9342A8BF1346002B1D46C8
:102F40000DDD249BC9F8006001332C44072B259428
:102F5000C9F80450249300F39C8309F10809139BDA
:102F6000002DA8BF5B1B002B1D4640F3F680BA4A1C
:102F7000249B0F92102D40F38A8222461027DDF801
:102F800028B0099C05E009F10809103D102D40F317
:102F90007D8201331032072B25922493C9F800A0BB
:102FA000C9F80470EFDD23AA2146584603F0CEFF8E
:102FB00000287FF4C0AA259A249B0DF1C009E4E7FC
:102FC00023AA09990A9803F0C1FF00287FF4B3AA45
:102FD0009DF86F70259C0DF1C009FFF7CDBB5E1EFB
:102FE000002E7FF748AF9C4B0F93102E2CDDCDF8B1
:102FF00034801027B046DDF828B0099E06E0A8F11D
:103000001008B8F1100F09F108091ADD0135103464
:10301000072D25942495C9F800A0C9F80470EEDDA9
:1030200023AA3146584603F091FF00287FF483AA73
:10303000A8F11008B8F1100F259C249D0DF1C009CE
:10304000E4DC4646DDF834800F9B01353444072D1F
:103050002594249589E848007FF70BAF23AA0999A6
:103060000A9803F073FF00287FF465AA259C249D2D
:103070000DF1C009FFE6079911F0100200F0088178
:103080000E988DF86F30BBF1000F046800F1040753
:103090004FF0000526DB0A4622F08002079254EA30
:1030A00005020E971F467FF4EFAAC8E4079BD906D6
:1030B0002AD4079B5A0627D50E99B1F9004004314E
:1030C000E51722462B460E91FFF7CBBA0E998DF8E5
:1030D0006F30BBF1000F0C6801F104074FF00005E1
:1030E00080F247820E971F4654EA05037FF4CCAA6C
:1030F000AAE401330F9A24932C44072B259489E8E2
:1031000024007FF7ADABC3E60E9A14681346043370
:10311000E51722460E93002A2B4673F10003BFF6F3
:10312000A5AA64424FF02D0765EB4505BBF1000FE2
:103130008DF86F70FFF6A8AA079B23F08003079312
:10314000FFF7A2BA23AA09990A9803F0FFFE002804
:103150007FF4F1A9259C0DF1C009139A1D9B3244FF
:103160001746129A934247DB079AD50744D412991F
:103170000E44F51BCB1A9D42A8BF1D46002D2E46BE
:103180000DDD249AC9F8007001322C44072A2594D9
:10319000C9F80450249200F30B8309F10809002EAA
:1031A000ACBF9D1B1D46002D7FF75CAB2A4A249BBC
:1031B0000F92102D9DDD10260A9FDDF824B004E04B
:1031C00009F10809103D102D93DD01331034072B50
:1031D00025942493C9F800A0C9F80460F0DD23AA5F
:1031E0005946384603F0B2FE00287FF4A4A9259C76
:1031F000249B0DF1C009E5E7249A16981799C9F8A0
:10320000001001320444072A2594C9F804002492CE
:1032100000F3A98209F10809A9E7079BD8073FF540
:10322000F4AD013501340123072D25942495C9F807
:103230000060C9F804307FF71CAE0FE723AA099994
:103240000A9803F083FE00287FF475A9259C249D2D
:103250000DF1C009E7E500BF2081400023AA0999CC
:103260000A9803F073FE00287FF465A9259C249D2D
:103270000DF1C009E6E523AA09990A9803F066FE54
:1032800000287FF458A9259C0DF1C009FFF798BAD2
:10329000079911F040033FF419AF0E988DF86F2095
:1032A000BBF1000F048800F104074FF00005C0F2E5
:1032B000B98121F08003079354EA05030E9717465E
:1032C0007FF4E2A9FFF7BBBB149C22462046159C65
:1032D0002346214604F0D8FC002840F01783119BB8
:1032E000BBF1FF3F23F020030D9300F07082472BCA
:1032F00000F09281079B43F480731093159B1F1E6F
:10330000149B0893BBBF3B4603F1004700232D23CA
:103310000F93119B662B00F05D82462B00F05181CC
:103320000D9B089A452B21A81EA90CBF0BF1010586
:103330005D46049003911DA802213B460290019531
:1033400000910A9801F0C4FB119B672B064640F0E0
:103350009082079BDA0740F1AF82741908983946CA
:103360000022002304F05EFC002840F09081219BA5
:103370009C4206D930215A1C21921970219B9C42F3
:10338000F9D89B1B12930D9B472B00F07981119B61
:10339000652B40F37D82119B662B1D9B139300F0E0
:1033A0005B82139A12998A42C0F23082079BD90736
:1033B00000F1848222EAE2730D92672211920F9A41
:1033C000002A40F053810893109B079393469DF881
:1033D0006F70FFF77DB9079911F0400315D00E9873
:1033E0008DF86F20BBF1000F048800F104074FF047
:1033F000000516DB21F08003079354EA05030E97BE
:103400003FF43AAC1746FFF7C2B80E998DF86F300B
:10341000BBF1000F0C6801F104074FF0000580F2CA
:10342000A5800E970027FFF7B2B8079BDF060BD4E5
:10343000079B5E0608D50E9A136804320E92BDF8FB
:103440002C201A80FEF7A4BF0E9A136804320E9245
:103450000B9A1A60FEF79CBF0E9A079B13F0400F61
:10346000134603F104030CBF146814880E9300255F
:10347000FFF702BB0027BB458DF86F70FFF60EAC5F
:10348000079B23F080030793FFF7D6BB1446013355
:103490000F9A24932C44072B259489E824003FF7A6
:1034A00051AE09F1080958E623AA09990A9803F0D0
:1034B0004DFD00287FF43FA8259C0DF1C0090FE4C5
:1034C0000E9FFFF7E4BB249BB54AC9F800200133E7
:1034D00001340122072B25942493C9F8042000F31A
:1034E0008E8009F108092DB9129B1BB9079BDF07D4
:1034F0007FF5B8A9249B1699179AC9F800200133C3
:103500000C44072B2594C9F80410249300F3C281BE
:1035100009F108096D42002D40F39B80A14A0F92EA
:10352000102D40F3C38022461027DDF828B0099CF7
:1035300005E009F10809103D102D40F3B680013374
:103540001032072B25922493C9F800A0C9F8047003
:10355000EFDD23AA2146584603F0F8FC00287EF44C
:10356000EAAF259A249B0DF1C009E4E7079AFFF71B
:1035700038BA079A90E5079B43F02003079308F1B8
:10358000010898F80030FEF736BF23AA09990A9877
:1035900003F0DCFC00287EF4CEAF259C0DF1C009C1
:1035A000FFF7B6BB40210A98FEF7DAF8099A1060D7
:1035B0001061002800F0E581099A40235361FEF76D
:1035C000D8BE21A81EA9049003911DA80321029032
:1035D000089ACDF804B03B4600910A9801F078FAB9
:1035E0005D460646119B462B06EB05047FF4B6AEFE
:1035F0003378302B00F07C811D9D2C44AEE623AA4D
:1036000009990A9803F0A2FC00287EF494AF1D9D4E
:10361000259C0DF1C00966E7BBF1000F08BF4FF014
:10362000010B67E60E9717465EE53046FEF7E8FDAC
:10363000A34603460D90FFF7F4BA23AA09990A9806
:1036400003F084FC00287EF476AF259C249B0DF1CA
:10365000C0091299C9F8006001330C44072B259466
:103660002493C9F804107FF7FBA811E42D270893D1
:10367000109B07938DF86F704FF0000BFFF729B880
:103680001D9BDD1C1EDB9B451CDB139389E623463B
:1036900077E623AA09990A9803F058FC00287EF4DB
:1036A0004AAF259C0DF1C00959E4144601330F9A25
:1036B00024932C44072B259489E82400BDDC09F1D0
:1036C0000809C6E7119A023A1192013B002B9DF8B6
:1036D00044201D93B8BF5B428DF87C20B4BF2D22DF
:1036E0002B22092B8DF87D2040F3F1800DF18B000A
:1036F00004462D4A82FB0321DA17C2EBA10202EB3A
:103700008201A3EB410303F13001092A134604F8B7
:10371000011DEEDC21463033DAB201F8012D88427A
:1037200040F23A810DF17E01234601E013F8012BAE
:1037300001F8012B9842F9D1431C1B1B0DF17E02AD
:1037400013441FAA9B1A129A1993012A13440D932A
:1037500040F3EA800D9B169A134400220D931392B6
:1037600023EAE3732BE623AA09990A9803F0EEFBF8
:1037700000287EF4E0AE1D9B259C0DF1C009F6E407
:10378000062D2B4628BF06230D9323EAE373B34689
:103790000E97139637460893044EFEF799BF00BF65
:1037A0007081400020814000676666666881400045
:1037B00023AA09990A9803F0C9FB00287EF4BBAE3E
:1037C0001D9B129A259CD31A0DF1C009E7E44FF016
:1037D000060B8FE521A81EA9049003911DA80321C3
:1037E0000290089ACDF804B03B4600910A9801F087
:1037F0006FF95D46064600EB0B04F9E60793FFF709
:1038000059B92D278DF86F70FFF7B2B8169A129B31
:103810001344139A0D93002A7EDD672223EAE37393
:103820001192CCE525EAE5730E9708930D95834632
:1038300013909DF86F70FEF74BBF079BDB075F4649
:1038400005D540AE302306F8413DFEF737BFCDF831
:1038500034B030AEFEF735BF002B7DDDBBF1000F7D
:103860003DD1079AD4073AD41A460D9223EAE3735E
:10387000A5E5119B472B7FF470AD079BDB073FF558
:10388000B1AE219B9B1B12930D9B472B3FF4F8AECF
:103890001D9B1AE723AA09990A9803F057FB0028F1
:1038A0007EF449AE1D9D259C249B0DF1C00931E697
:1038B000A0460025FEF7A1BD219B62E5169A139B49
:1038C000134467220D93119223EAE37377E53033B3
:1038D00030228DF87F308DF87E2020AB31E7139BAE
:1038E000169A9D1805EB0B030D9323EAE37366E527
:1038F000089839460022002304F094F900287FF448
:103900007BAEC5F101051D952C4427E5324E334BA6
:103910009DF86F70FFF72EB8139B0D9AC3F101034A
:103920001A4413460D9278E7079B13F001037FF4C6
:1039300011AF13930D9B23EAE37340E50E9898F8BB
:10394000013005680430002D0E90A046BEF653AD40
:103950004FF0FF35FEF74FBDBBF1000F02D1079BC3
:10396000D80707D5169B5D1C05EB0B030D9323EAC7
:10397000E37324E501230D9321E58DF86F10FFF724
:1039800021B90A9A0C2313604FF0FF30FEF7DCBD1B
:103990008DF86F10FFF7F9B80DF17E03D1E68DF8C1
:1039A0006F10FEF7D9BD8DF86F10FFF757B88DF87F
:1039B0006F10FFF725B88DF86F10FFF74CB98DF831
:1039C0006F10FEF7F3BF8DF86F10FEF7A3BF8DF8F1
:1039D0006F10FEF733BE00BF3C81400038814000CD
:1039E0004B6E2DE9F0479C0492462CD593681268E3
:1039F0003BB30F46804602F1080919E96000B6089A
:103A000017D0043D002401E0A64210D03A4655F8F4
:103A1000041F404602F02AF9431C04F10104F3D1CB
:103A20000023CAF80830CAF80430BDE8F087DAF895
:103A30000830A3EB8603CAF8083009F10809002B07
:103A4000DBD10020ECE702F059FA0023CAF8083075
:103A5000CAF80430BDE8F0872DE9F04FABB01C4642
:103A6000009190460493059018B1836B002B00F0F1
:103A7000DE800098B0F90C108AB2950407D4436E2A
:103A800041F4005223F400538281436692B211073D
:103A900040F1B180009B1B69002B00F0AC8002F06C
:103AA0001A020A2A00F0B58000230DF1680B029378
:103AB0000F930E93CDF834B0DA4698F800304446B0
:103AC000FBB1252B02D11CE0252B03D014F8013FBC
:103AD000002BF9D1C8EB04059DB10E9B0F9ACAF8D3
:103AE000008001332A44072BCAF804500F920E932A
:103AF0007BDD002A40F02885029B0E922B44DA469B
:103B000002932378002B00F03E8400214FF0000345
:103B10004FF0FF328DF82F3004F1010863780192E5
:103B200008460E460C4608F10108A3F12002582A67
:103B300000F29383DFE812F04603910391034E03F2
:103B40009103910391039103910391038902670209
:103B5000910380006C029103C60159025902590277
:103B6000590259025902590259025902910391030B
:103B700091039103910391039103910391039103A5
:103B8000CB0191039103910391039103910391035D
:103B90009103910391031402910391039103910303
:103BA0009103EE0291039103110391039103910399
:103BB00091039103910391039103910391033403C2
:103BC0008A0391039103910367038A03910391038D
:103BD0006C039103790395028500E90291039B022E
:103BE0009103BA029103910353030AF1080A029B5D
:103BF0002B44029385E70099059800F061FE0028A8
:103C000040F05885009B9A8902F01A020A2A7FF434
:103C10004BAF0099B1F90E30002BFFF645AF2346AC
:103C20004246059800F016FE2BB0BDE8F08F01F07B
:103C3000B3FF1EE76442049346F0040698F8003090
:103C400071E7302104988DF83010019906944FF0F7
:103C5000000378228DF82F30002903468DF831209B
:103C6000046803F104034FF0000546F00202C0F2BD
:103C7000258526F0800654EA050246F002060493E4
:103C800040F0BF84B348019B002B40F01C84994650
:103C90000023019303935F46019B039A9342B8BFAD
:103CA00013461D46B9F1000F00D0013516F002038E
:103CB000079318BF023516F08403089340F0F18291
:103CC000069B5C1B002C40F3EC82102C40F35685C5
:103CD000DFF88492DDF838E00F9AD4461023C2460C
:103CE0007046A8464D46DDF8149007E000F1020E3C
:103CF0000CF1080C0846103C102C13DD411C10324E
:103D000007290F92CCF80050CCF804300E91EDDD6D
:103D1000002A40F0B782103C102C10464FF0010EE4
:103D2000DC46EBDCA94670464546D046E2462244D6
:103D300007280F92CAF80090CAF804400E9000F3CA
:103D400075839DF82F300AF1080A00F1010E002B4F
:103D500040F0B082079B002B00F0C38202320CA916
:103D60000223BEF1070F0F92CDF838E08AE80A006F
:103D700040F37883002A40F00A84089B802B4FF0A0
:103D8000010E1046DA4640F0B082069B5C1B002C08
:103D900040F3AB82102CDFF8C49140F30B85D6467C
:103DA0001023C246A8464D46DDF8149007E000F106
:103DB000020C0EF1080E0846103C102C13DD411CBD
:103DC000103207290F92CEF80050CEF804300E9131
:103DD000EDDD002A40F01583103C102C4FF0010C53
:103DE0001046DE46EBDCA9464546D046F246224464
:103DF000BCF1070F0F92CAF80090CAF80440CDF842
:103E000038C000F3D283019B03995C1A002C0AF19D
:103E1000080A0CF1010E604600F36D820399CAF89E
:103E200000700A44BEF1070F0F92CAF80410CDF8D3
:103E300038E040F3CE82002A40F03A8370070E92B9
:103E400038D5069B5C1B002C34DDDA46102C40F381
:103E5000AB84DFF804910E994F461026DDF81490DC
:103E600006E0881C0AF1080A1946103C102C13DDE4
:103E70004B1C1032072B0F92CAF80070CAF804606E
:103E80000E93EEDD002A40F08E82103C102C4FF095
:103E900001001146DA46EBDCB946224407280F92AE
:103EA000CAF80090CAF804400E9040F39B82002AA2
:103EB00040F02584029B069AAA42ACBF9B185B196E
:103EC000029399E246F0800698F800302BE60694BB
:103ED000002940F0AF8446F01006B30640F112838B
:103EE0000499073121F00701D1E900230831049139
:103EF00014461D46002A73F10003C0F28683019B1D
:103F00009DF82F90002BC0F21A8354EA050326F087
:103F1000800600F0ED80002D08BF0A2CC0F0ED8077
:103F20005F46204629460A22002303F0EBFE30328A
:103F300007F8012D2046294600230A2203F0E2FE5D
:103F400004460D4654EA0503EBD1C7EB0B0303937C
:103F5000A2E600BF5481400094814000848140006B
:103F60000694002940F0628446F0100616F0200303
:103F700000F0AE82049B073323F007034FF00002EA
:103F80008DF82F20D3E9004503F10802019B04922C
:103F9000002BC0F2748154EA050326F0800640F03D
:103FA0006E81019B002B00F030844FF0000900244B
:103FB00000255F46E20842EA4572E90804F007037B
:103FC0000D461446303354EA050207F8013DF1D19D
:103FD000F407BAD5302BB8D030227B1E07F8012C5D
:103FE000C3EB0B0203921F4656E6A3F130020024F6
:103FF00018F8013B04EB840402EB4404A3F1300203
:10400000092AF5D991E598F8003001212B208AE59D
:1040100098F800302A2B08F1010500F0DD83A3F1A8
:104020003002092AA84698BF002500F2CE8318F86E
:10403000013B05EB850502EB4505A3F13002092A9A
:10404000F5D945EAE57201926FE5049A14681346C2
:10405000002C03F10403FFF6EDAD049398F8003053
:1040600061E50694002981D08DF82F007EE7049A3F
:10407000069417684FF000038DF82F30141D019B34
:10408000002F00F08683002BC0F25F831A460021C8
:10409000384602F065F9002800F08F83C31B0393B4
:1040A000002304949DF82F900193F5E506940029D0
:1040B00040F0B98316F0200935D116F0100303D172
:1040C00016F0400940F02A83049A13461468019AB6
:1040D0008DF82F90002A03F104034FF00005C0F281
:1040E000328354EA050226F0800604937FF413AF6E
:1040F000019B002B3FF4CCAD00242AAF303407F8ED
:10410000414DC7EB0B030393C6E546F0200698F834
:10411000003008E50694002940F06E8346F0100652
:1041200016F02009C9D0049B073323F007034FF092
:1041300000028DF82F20D3E9004503F10802019B0E
:104140000492002BC0F2F98154EA050326F08006A0
:104150004FF000097FF4DFAECAE70694002940F073
:104160005183B206AE4841D5049A073222F00702C5
:10417000D2E9004502F10801049116F0010900F0AE
:10418000778154EA050240F026824FF000038DF853
:104190002F30019B002BC0F2968126F0800672E53D
:1041A000049A069413688DF8403013464FF00001CE
:1041B000012504338DF82F100493039510AF0023CD
:1041C000019373E598F8003000287FF4ACAC01212E
:1041D0002020A8E446F0010698F80030A3E40694F5
:1041E000002940F00C83B2068E48BDD40499F7062E
:1041F0000A4600F19D81750640F19A8104320C88CF
:1042000004920025B9E746F0400698F800308AE4A9
:1042100098F800306C2B03BF98F8013046F0200668
:1042200008F1010846F010067DE4002940F00983FA
:10423000B40640F11C82049A02991368CD1708460F
:10424000043229460492C3E9000136E406940029A9
:104250003FF443AE8DF82F003FE60694002940F06E
:10426000ED82002B00F08F8001258DF840304FF05B
:1042700000038DF82F30039510AFA0E704934FF0A3
:10428000000996E60DAA009909934846FFF7A8FB96
:1042900000287FD10E980F9A099B00F1010EDC4691
:1042A00029E50E980F9A00F1010E9DF82F30002B92
:1042B0003FF450AD01320DF12F010123BEF1070F84
:1042C0000F92CDF838E08AE80A0040F3BF80002A58
:1042D00040F04E810799002940F0BE809E4610466E
:1042E000DA46089B802B3FF450AD019B03995C1A82
:1042F000002C7FF793AD102CDFF82C9125DDD446F0
:104300001023C246A8464D46DDF8149007E000F1A0
:10431000020E0CF1080C0846103C102C11DD411C5B
:10432000103207290F92CCF80050CCF804300E91CF
:10433000EDDDD2B9103C102C4FF0010E1046DC46DA
:10434000EDDCA9464546D046E2462244BEF1070FC1
:104350000F92CAF80090CAF80440CDF838E02EDC7D
:104360000AF1080A0EF1010E58E50DAA0099019311
:104370004846FFF735FB68B90E980F9A019B00F18C
:10438000010EDC46C8E70F9B23B1059800990DAAE2
:10439000FFF726FB009B9B895A0600F18B81029850
:1043A0002BB0BDE8F08F0DAA00994846FFF718FB27
:1043B0000028EFD10E990F9A481CDA4655E5002ADD
:1043C00040F0FB80039A1B9201230F921A970E93E1
:1043D000DA460AF1080A710704D5069B5C1B002C1B
:1043E0003FF734AD029B0699A942ACBF5B185B193D
:1043F0000293002A40F0B38000230E93DA46FFF7C1
:104400005CBB0DAA009907934846FFF7E9FA00281C
:10441000C0D10E980F9A079B00F1010CDE46CBE449
:10442000408140005481400084814000002A40F0D7
:1044300033819DF82F30002B00F0F58001230DF122
:104440002F011A461B939E461A91DA4670460AF1CE
:10445000080A0EF1010E7DE40CA902229E461A9173
:104460001B92DA4670460AF1080A0EF1010E38E78F
:10447000019B8DF82F90002BC0F22A8154EA05038E
:1044800026F080063FF4FFAB5F46230904F00F01DE
:1044900043EA05732A091C461546435C07F8013DAB
:1044A00054EA0503F1D1C7EB0B030393FFF7F4BB09
:1044B0000DAA00990598FFF793FA00287FF46AAFD8
:1044C0000F9ADA4687E74FF0000900240025DBE762
:1044D00016F0100200F0B28004998DF82F300A46D1
:1044E0000C680199002902F104024FF00005C0F2A6
:1044F000598154EA050126F0800604923FF451AD3B
:10450000994656E5F7060AD4750608D50499B1F917
:1045100000400431E51722462B460491EAE4049A50
:10452000146813460433E517049322462B46E1E44E
:1045300014680432049200251FE64FF0000954EA83
:1045400005037FF4E8ACD8E50DAA00990598FFF7BC
:1045500047FA00287FF41EAFDA46FFF748BB0DAAE2
:1045600000990598FFF73CFA00283FF445AF11E7A2
:104570000DAA00990598FFF733FA00287FF40AAFD7
:104580000E980F9A00F1010EDA46FFF7E3BB0DAA71
:1045900000990598FFF724FA00287FF4FBAE0E98E7
:1045A0000F9A00F1010EDA469BE6002A40F0D8800F
:1045B0004FF0010E1046DA4697E60DAA00990598CD
:1045C000FFF70EFA00287FF4E5AE0E9B0F9A03F179
:1045D000010EDA4622E430228DF83020019A8DF85F
:1045E0003130002A4FF000038DF82F3046F00203DF
:1045F000C0F2CB8026F0800646F002064FF000099C
:1046000042E74FF0000990483EE7019B64424FF0BB
:104610002D0965EB4505002B8DF82F90FFF67BAC3F
:1046200026F0800677E4079B002B72D00CAB0222A9
:104630001A931B924FF0010EDA4613E716F0400969
:1046400048D004998DF82F200B460C880199002939
:1046500003F104034FF00005FFF610AE54EA050124
:1046600026F0800604933FF49CAC9146A1E4F0064A
:104670000AD4710608D5049A136804320492BDF86E
:1046800008201A80FFF719BA049A136804320492BA
:10469000029A1A60FFF711BA0DAA00990598FFF760
:1046A0009FF900287FF476AE0E980F9A00F1010E64
:1046B000DA46FAE54FF0FF30FFF7B6BA6248164621
:1046C00054EA050204934FF000097FF4DDAEFCE6E6
:1046D000049BF5E7049A8DF82F9013461468019A0D
:1046E000002A03F104034FF00005FFF6C7AD54EABA
:1046F000050226F0800604937FF45BAC51E40DAA1A
:1047000000990598FFF76CF900287FF443AE0F9AE3
:1047100068E610464FF0010EDA46E6E504998DF89A
:104720002F300A460C880199002902F104024FF04B
:1047300000054EDB54EA050126F0800604929946F6
:104740007FF4E9ABD4E40493F9E638460494FDF72A
:1047500057FD002303909DF82F900193FFF79CBA1B
:104760000DAA00990598FFF73BF900287FF412AED7
:104770000E980F9A00F1010EDA46B6E50E980F9AE0
:10478000DFF8CC900130FFF7D2BA1E464FF0000997
:104790007AE6062B28BF06230393049423EAE375E5
:1047A0002A4F0CE504926AE50E98DFF8A4900130D8
:1047B000FFF773BBF446FFF71ABB019B9DF82F90E0
:1047C000039304940190FFF767BA00220192FFF768
:1047D000ACB904929946B2E6049A13680193043284
:1047E000002B049298F80130A846BFF69CA94FF020
:1047F000FF320192FFF797B98DF82F008EE48DF804
:104800002F00F0E48DF82F00ABE49946F30705D5AF
:104810002AAF302307F8413DFFF797BB019B039375
:104820005F46FFF739BA8DF82F0043E48DF82F006B
:10483000FFF79ABB8DF82F00FFF74DBB8DF82F00C7
:104840000FE58DF82F00F3E45481400068814000AB
:1048500094814000F0B50C46ADF26C4D8989666ECE
:10486000E589199621F00201666AADF80E5000251F
:10487000E769ADF80C10099606951AAE4FF48065FD
:104880006946009604960295059507970646FFF738
:10489000E3F8051E07DB3046694601F0E9F8002819
:1048A00018BF4FF0FF35BDF80C305B0603D5A38968
:1048B00043F04003A38128460DF26C4DF0BD00BFCC
:1048C00038B5304B1B6805460C4613B19A6B002A6D
:1048D00038D0B4F90C2093B218070CD52069A8B1D0
:1048E00013F001021ED0636900225B42A361A26043
:1048F000F0B1002038BDD9063CD5580726D4206930
:1049000042F00803A3819BB20028E9D103F420728E
:10491000B2F5007FE4D02846214601F0D9FCA389F6
:104920002069DDE7990758BF6269A2600028E0D1DD
:10493000B4F90C301A06DDD543F04003A3814FF0E3
:10494000FF3038BD184601F027F9C2E7216B51B19D
:1049500004F14003994204D0284601F0E7F9B4F984
:104960000C200023236300232069636022F02402CB
:104970002060C5E742F0400209232B604FF0FF3072
:10498000A28138BD38040020024B13B1024800F068
:1049900005B8704700000000AD5B400000230146F1
:1049A0001A46184602F0F6BB02690B69934200F3FF
:1049B0008D802DE9F04F03F1FF3801F1140700F16C
:1049C000140B57F828205BF828304FEA880483B08E
:1049D0000132B3FBF2F90BEB0403009407EB040A7A
:1049E0000193B9F1000F39D00025BC46DE462B46B5
:1049F0005CF8046BDEF80020B4B209FB0455360CF9
:104A00002C0C09FB0644ADB25B1BA6B213FA82F371
:104A1000C6EB124606EB23469BB243EA0643E24549
:104A20004EF8043B4FEA14454FEA2643E0D2009B80
:104A30005BF8033093B9019C231F9B450CD254F8BB
:104A4000043C4BB9A4F1080302E01A68043B1AB90C
:104A50009B4508F1FF38F8D3C0F81080044601F0F8
:104A60003BFF00282EDB09F101095D46002357F8C2
:104A7000041B28688AB29A1A090C12FA80F2C1EB58
:104A8000104303EB224391B241EA0341BA4545F892
:104A9000041B4FEA2343EAD25BF828200BEB880380
:104AA00082B91A1F93450BD253F8042C42B9083B24
:104AB00002E01A68043B1AB99B4508F1FF38F8D3A5
:104AC000C4F81080484603B0BDE8F08F002070475E
:104AD0002DE9F04F016C97B08146239C92469B468E
:104AE00049B1426C4A60012393408B6001F012FD92
:104AF0000023C9F84030BBF1000FD84633DB002358
:104B00002360A54B1A4608EA0303934214D050468B
:104B100059460022002303F085F8054648B3229A3F
:104B200001231360249B002B00F0C5809B48186074
:104B3000013817B0BDE8F08F229A42F20F7313606C
:104B4000BAF1000F00F0A2809548249B002BF0D012
:104B5000C378002B00F0B18000F10803249A1360A1
:104B600017B0BDE8F08F01232BF000482360C34647
:104B7000C7E714AA15AB0192009352465B4648461C
:104B800001F054FF5FEA1854089040F08880149DAB
:104B9000159C2C4404F23243202B40F39182C3F144
:104BA000400304F2124008FA03F82AFA00F040EA3F
:104BB000080002F059FD0123013CA1F1F8711093A6
:104BC0000022784B02F012FC6DA3D3E9002302F01F
:104BD000C1FD6DA3D3E9002302F00AFC064620467E
:104BE0000F4602F051FD6AA3D3E9002302F0B2FDA3
:104BF00002460B463046394602F0FAFB06460F469F
:104C000003F058F80022049000233046394603F0A0
:104C100013F8002840F03082049E162E00F22982FC
:104C2000614B03EBC603D3E9000152465B4603F038
:104C300021F8002800F04982731E049300230C938E
:104C40002C1B631E029300F1328200230593049B08
:104C5000002BC0F22382029A0B93114619440023C1
:104C600002910A93209B092B29D8052B40F35886E3
:104C7000043B20930025209B023B032B00F235864A
:104C8000DFE813F02C03280237035904444B474A4A
:104C9000C8F31300002814BF1846104655E7CBF39D
:104CA000130343F07F5110955046A4F2FF3441F4B2
:104CB0004011149D84E73E483BE7C31C4EE70021AA
:104CC000C9F844104846209101F0FEFB4FF0FF3335
:104CD0000693209A0D93012307902192C9F8400072
:104CE0000993159B002BC0F2D180049A0E2A00F381
:104CF000CD802D4B03EBC203D3E90034CDE9023460
:104D0000219B002BC0F2008356465F465046594611
:104D1000DDE902AB52465B4602F046FE02F0CAFFF6
:104D2000044602F0B1FC52465B4602F013FD0B460E
:104D300002463946304602F059FB079D04F1300324
:104D40002B70069B012B06460F4605F1010562D02C
:104D50000022184B02F0FEFC0022002306460F46FC
:104D600002F060FF00287ED1CDF81490DDF818A085
:104D7000DDF81CB0DDE9028929E000BFAFF3008057
:104D800061436F63A787D23FB3C8608B288AC63F51
:104D9000FB799F501344D33F0000F07F71814000A6
:104DA000B08140000000F83FC0814000A481400075
:104DB000708140000000244002F0CCFC002200235F
:104DC00006460F4602F02EFF002840F0B783424609
:104DD0004B463046394602F0E7FD02F06BFF0446D1
:104DE00002F052FC42464B4602F0B4FC02460B462F
:104DF0003046394602F0FAFA04F1300E05F801EBBC
:104E0000CBEB050ED64506460F464FF00002B04BE1
:104E1000D2D1DDF8149032463B463046394602F096
:104E2000E7FA06460F4602460B46DDE9020102F0AC
:104E300003FF40B932463B46DDE9020102F0F2FED3
:104E400088B1E3070FD515F8014C079A6B1E04E0F3
:104E50009A4200F02C8413F8014D392C03F101051E
:104E6000F6D001341C700899484601F053FB00222B
:104E7000049B2A70229A01331360249B002B00F0BC
:104E8000A78307981D6017B0BDE8F08F099A002A24
:104E900000F01281209A012A40F35882069B0A9A58
:104EA0005F1EBA42C0F29783D71B069B002BC0F24D
:104EB0008A84059D069B059A1A440592029A01214F
:104EC0001A444846029201F0BDFB064665B10299BC
:104ED00000290B4608DDA942059AA8BF2B46D21A25
:104EE000ED1ACB1A059202930A9B002B40F3FC8229
:104EF000099A002A00F00182002F00F0FE8131465D
:104F00003A46484601F040FCDDF820800146424622
:104F10000646484601F0A0FB41460446484601F0DB
:104F2000F9FA0A9BDB1B0A9340F0E681012148460F
:104F300001F088FB0B9B8046002B00F01982014694
:104F40001A46484601F020FC209B012B804640F386
:104F5000F8820027D8F8103008EB8303186901F0B5
:104F600023FBC0F12000029A104410F01F0000F053
:104F7000F681C0F12003042B40F3CA84059BC0F1E5
:104F80001C00034405931346034405440293059B08
:104F9000002B05DD21461A46484601F045FC044633
:104FA000029B002B05DD41461A46484601F03CFCB9
:104FB00080460C9B002B40F07C82069B002B40F32C
:104FC0009582099B002B40F0F581DDF81CB0069F0F
:104FD0005D4602E001F0A8FA044641462046FFF78C
:104FE000E3FC00F1300A05F801ABCBEB0503BB4253
:104FF0004FF00A024FF0000321464846EADB079BC8
:10500000069A012AACBF9B1801331D464FF0000BD6
:1050100021460122484601F007FC4146089001F074
:105020005BFC002840F30D8315F8012C07996B1EDB
:1050300004E08B4200F0788213F8012D392A03F145
:105040000105F6D001321A704146484601F062FA75
:10505000002E3FF408AFBBF1000F05D0B34503D0DD
:105060005946484601F056FA3146484601F052FA90
:10507000F9E601230C93E3E5DDF81080404602F0E9
:1050800003FB02460B463046394602F0CBFD0028B2
:105090007FF4C2AD08F1FF330493BDE5059A049B8C
:1050A000D21A5B420A93002305920B93DAE55B4226
:1050B000059300230293CAE50A9F059D099E05E713
:1050C000C3F120080AFA08F073E50C90B8E500BFB8
:1050D0000000244000230993049B219A13440D935C
:1050E0000133002B069340F38382069C2646002161
:1050F000172EC9F844100BD9012204235B0003F1D9
:105100001400B042114602F10102F7D9C9F8441067
:10511000484601F0D9F90E2C0790C9F840003FF637
:10512000E0AD002D3FF4DDAD04995746D846002987
:10513000CDE90E7840F39282914B01F00F020E11EF
:1051400003EBC203F006D3E9004540F14C828D4BDE
:1051500050465946D3E9082302F026FC06F00F0614
:1051600082468B464FF0030886B1864FF10709D57A
:1051700020462946D7E9002302F0ECFA08F101089D
:1051800004460D46761007F10807EFD122462B465C
:105190005046594602F008FC06460F460C9B43B1A8
:1051A0000022794B3046394602F046FD002840F097
:1051B0002083404602F068FA32463B4602F0CAFAC3
:1051C000724B002202F014F9069B0446A1F15075BF
:1051D000002B00F0DF81049BDDF818801193099B00
:1051E000002B00F09782664B694903EBC80353E933
:1051F0000223002002F0D8FB22462B4602F0F6F8EC
:1052000082468B463046394602F054FD044602F091
:105210003BFA02460B463046394602F0E7F8303496
:10522000079DE4B206460F462C7002460B465046D8
:105230005946013502F01EFD00284CD132463B464E
:105240000020514902F0D2F802460B46504659461A
:1052500002F010FD002840F00D83B8F1010F40F37B
:10526000B381079B98440DE00020474902F0BEF847
:1052700052465B4602F0E0FC002840F0FB824545C8
:1052800000F0A281504659460022424B02F062FAD9
:105290000022404B82468B463046394602F05AFA8D
:1052A0000F46064602F006FD044602F0EDF90246FE
:1052B0000B463046394602F099F83034E4B2524693
:1052C0005B4605F8014B06460F4602F0B5FC324638
:1052D0003B460028C8D0119B0493C4E500230993E2
:1052E000219B002B40F389811E461C460D9306939B
:1052F000FDE601230993F3E708940A9A08994846C2
:1053000001F042FA044611E6069B002B3FF7FCAC85
:1053100040F0DA820022204BDDE9020102F01AFAA5
:1053200052465B4602F09CFCDDF818804646002899
:1053300000F0F280219B079DDB43049341464846E1
:1053400001F0E8F8002E3FF48EAD8DE6109A002AA9
:1053500000F0418203F233430A9F059DABE51C2018
:10536000059B03440593029B0344054402930EE608
:10537000209B012B40F382820B9F0120F3E500BFAD
:10538000C0814000888240000000F03F00001C40C7
:105390000000E03F0000244000001440314600239C
:1053A0000A22484601F0C0F80D9B002B064640F348
:1053B00097820693002D05DD31462A46484601F0C6
:1053C00033FA0646002F40F07C810596069B079A2B
:1053D000DDF814B0013BD31808930AF001030993D8
:1053E0001746C24651462046FFF7DEFA31460546CB
:1053F000204601F071FA5A4602905146484601F0A3
:105400008BFAC268804605F13003002A49D1014673
:105410002046069301F060FA41460590484601F0A7
:1054200079F8059A069B2AB9209919B90999002992
:1054300000F0368202990029C0F2E48005D120995B
:1054400019B90999002900F0DD80002A00F34D8187
:10545000089A3B7007F101089742454600F05481D5
:10546000214600230A22484601F05EF85E450446C4
:1054700031464FF000034FF00A0248460BD001F0CE
:1054800053F85946064600230A22484601F04CF8D4
:1054900047468346A6E701F047F847460646834657
:1054A000A0E701464846059301F034F80122059B28
:1054B000C0E74146204601F00FFA0028BFF67DAD57
:1054C0002146049C0023013C0A224846049401F032
:1054D0002BF8099B0446002B7FF460AF0D9B002B3B
:1054E00040F3F681069370E5089C1FE5209B022B94
:1054F0007FF767AD069B002B40F07981414605227E
:10550000484601F011F801468046204601F0E4F9D2
:10551000002808947FF70EAF049A079931230132CF
:1055200004920B704D1C09E7049A01320492079A09
:105530003123137088E501230993CDE5DDF814903C
:1055400091E4BAF1000F7FF404ADCBF31303002B09
:1055500040F03F812BF000473F0D3F0537B1059BE1
:1055600001330593029B0133029301270B9B01201A
:10557000002B3FF4F8ACEDE4404602F085F83246EB
:105580003B4602F0E7F80022BF4B01F031FF044632
:10559000A1F15075304639460022BC4B01F026FF80
:1055A00022462B4606460F4602F064FB8046002842
:1055B00040F00581224605F100433046394602F0AD
:1055C0003BFB08B14646B5E6DDE90EABFFF789BB0C
:1055D0000798FFF7AEBA0A9B0B9A0A97FB1A1A4470
:1055E0000B92002761E4DDE90EAB4FF00208BBE54A
:1055F0001C460021C9F844108AE5012421940D9429
:105600000694F6E7002AD046CDF814B09A4611DD8C
:1056100021460122484601F007F94146044601F0BF
:105620005BF9002840F34981BAF1390F00F0068197
:1056300005F1310AB34687F800A07D1C059E089449
:1056400002E504D11AF0010F01D0EDE4154615F87A
:10565000013C302B05F1FF32F8D0F5E4049B5C42AD
:10566000002C00F0BF808A4B04F00F0203EBC20352
:10567000D3E90023DDE90E0102F06CF8241106469F
:105680000F4600F02A81834D4FF00208E20709D54A
:1056900030463946D5E9002302F05CF808F10108EC
:1056A00006460F46641005F10805EFD176E5079927
:1056B00030220A70049A15F8014C01320492FFF767
:1056C000D0BB7168484600F0FFFE33699A1C05465E
:1056D000920006F10C010C30FCF72CFB294601224C
:1056E000484601F0A1F8059070E6392BCDF814B0CA
:1056F000D04600F0A38003F1010AB34687F800A06A
:105700007D1C059E08949FE45A46D046B3469A46AF
:1057100016467DE45E4908F1FF3A01EBCA012246D4
:105720002B46D1E9000102F015F8CDE91201394606
:10573000304602F0BFFA044601F0A6FF02460B46CF
:105740003046394601F052FE079A3034B8F1010F65
:1057500006460F46147002F101051ED0079B03EBAD
:10576000080BA84600224C4B3046394601F0F2FFA8
:105770000F46064602F09EFA044601F085FF3034DB
:1057800002460B463046394601F030FE08F8014B20
:10579000C34506460F46E5D1554400223F4BDDE99F
:1057A000120101F025FE32463B4602F045FA002880
:1057B0004CD0119B049315F8014CFFF746BB4FF0FA
:1057C00000084646A8E6059B069A9D1A0023FFF7A7
:1057D00072BB0027CAE6149B0A9F059DC3F13603DE
:1057E000FFF769BBDDE90E674FF00208D6E40894C5
:1057F000A0E5069B002B3FF4BFAE0D9B002B7FF76F
:10580000E3AE0022244B3046394601F0A3FF0646A2
:105810000F4608F1010001F037FF32463B4601F028
:1058200099FF0022184B01F0E3FD049ADDF8348063
:10583000013A0446A1F150751192D0E43922B346E1
:105840000894059E3A707D1CFFF7F0BBDDE912233A
:105850000020124901F0CAFD32463B4602F00AFA26
:1058600008B9B1E6154615F8013C302B05F1FF32B9
:10587000F8D030E5119B0493FFF7E7BABAF1000FB7
:105880007FF47AAD61E600BF00001C4000001440C8
:10589000C081400088824000000024400000E03FBA
:1058A000392BCDF814B0D046DDF808B09A46C5D0F3
:1058B000BBF1000F3FF7BCAEBCE67FF4BBAE1AF005
:1058C000010F3FF4B7AEAFE64FF00008464631E5B2
:1058D000209B022B21DC0D9B04E64FF002085DE4C7
:1058E000209B022B19DC0D9B63E50024C9F8444082
:1058F0002146484600F0E8FD4FF0FF3306930D9334
:10590000012307902194C9F840000993FFF7E9B9F2
:105910003FF43DABC0F13C0022E50D9B0693E9E569
:105920000125FFF7A8B900BFB1F90C309AB22DE9F3
:10593000F0410D46110780463CD46A6843F4006389
:10594000002AAB8173DDAC6A002C4BD09BB203F410
:105950008052002192B2D8F80060C8F80010002AE6
:1059600069D02A6D5F0705D569682B6B521A0BB198
:10597000EB6BD21A0023E9694046A047441C3CD097
:10598000B5F90C302A692A6023F400630022AB8148
:10599000DB046A6049D4296BC8F8006011B305F1D3
:1059A0004003994202D0404600F0C0F9002028632D
:1059B000BDE8F0812E69AEB12C682E6090070CBF57
:1059C0006B690023A41BAB600AE0234632466F6A72
:1059D000E9694046B8470028A4EB0004064404DD0A
:1059E000002CF2DC0020BDE8F081AB8943F04003DD
:1059F000AB814FF0FF30BDE8F081D8F800201D2AC0
:105A0000F3D81A4BD34003F0010383F00104002BB9
:105A1000EBD0B5F90C302969296023F40063D9046F
:105A20006C60AB81B7D5002AB5D12865B3E7EA6BC6
:105A3000002A88DCD6E70123E9694046A047431CD9
:105A4000024602D0AB89AC6A8CE7D8F80030002B54
:105A5000F8D01D2B01D0162B02D1C8F80060C1E789
:105A6000AB8943F04003AB81BDE8F08101004020E9
:105A700010B5044682B008B1836B53B1B1F90C0084
:105A800008B902B010BD204602B0BDE81040FFF7D3
:105A90004BBF019100F080F80199EFE7014900F058
:105AA000AFBB00BFBD7240002DE9F04F354B4568DC
:105AB000C3630024074600F53B7204230321C0F8AA
:105AC000E412C0F8E822C0F8E04283B02C606C60B9
:105AD000AC606C66EC812C616C61AC61AB81214681
