S00F000032302D554152542E737265634A
S214400000583D00204D0D4000490D4000490D400030
S214400010490D4000490D4000490D400000000000D9
S214400020000000000000000000000000490D4000F5
S214400030490D400000000000490D4000490D4000B9
S214400040490D4000490D4000490D4000490D400013
S214400050490D4000490D4000490D4000490D400003
S214400060FD104000490D400000000000050B400018
S214400070190B40002D0B4000490D4000490D400033
S2144000800000000000000000490D4000490D4000FF
S214400090490D4000490D4000490D4000490D4000C3
S2144000A0490D4000490D400015114000490D4000E3
S2144000B0490D4000490D4000490D4000490D4000A3
S2144000C0490D4000490D4000490D400010B5054C13
S2144000D0237833B9044B13B10448AFF300800123AF
S2144000E0237010BDA408002000000000F4844000E7
S2144000F0084B10B51BB108480849AFF300800848C4
S214400100036803B910BD074B002BFBD0BDE8104079
S214400110184700BF00000000F4844000A8080020F4
S214400120F48440000000000010B50E480E4B98477F
S21440013000203E210D4B98470D4CA0470028FCD090
S2144001400C4B98470C4A0D4B9A620D4CA047002822
S214400150FCD010200B4B98470B4B98470148024B5E
S214400160984710BD000E2707110F4000A90B40000E
S214400170FD0B40000D0C4000013F132000040E40D4
S2144001801D0C4000410B4000FD0D4000A8B92DE974
S214400190F0410C469046002A0ADD8F18084E094D5D
S2144001A0306821462B6898470134BC42F8D101E0BC
S2144001B04FF000084046BDE8F0814FF0FF307047F2
S2144001C0380D0020300D00200138022818D82DE9BF
S2144001D0F0410E46144682B10D46DFF838800C4F8B
S2144001E0D8F8000015F8011B3B68984700280ADB42
S2144001F0A81B013CF4D1BDE8F0810020BDE8F081A9
S2144002004FF0FF3070474FF0FF30BDE8F08100BF41
S214400210340D0020380D002010B54FF40042104B2E
S2144002205A600B200F4CA0470C20A0470D20A0473B
S21440023013204FF060510C4CA04714204FF06051F3
S214400240A04723200949A0474C200949A047094810
S2144002504FF4C0614FF00062074B984710BD00BF97
S21440026050140E402D0C40009D0840007900002898
S21440027059000028000E0E40C109400082B04FF4DD
S21440028000330193019B5A1E0192002BFAD102B013
S214400290704700BFC0F30742034B1A70C0F30722F3
S2144002A01A70C0B218707047020000612DE9F8431A
S2144002B00746884631F0070918D004460026124DF6
S2144002C057F82600A8476068A847A068A847E0688F
S2144002D0A8472069A8476069A847A069A847E06979
S2144002E0A847083620344E45EAD300E00026B045FD
S2144002F008D907EB8604044D54F8040BA84701368A
S214400300B045F9D8BDE8F883950240004FF0C243A7
S21440031000221A7018700A0A02331A70C9B219708D
S214400320704700BF82B000230193019B984211D9C9
S2144003300021094A0191019B934205D8019B013354
S2144003400193019B9342F9D9019B01330193019B91
S2144003508342EFD302B070479F86010030B40468F2
S214400360EF2C84BFEF2404601468EF2C84BFEF2486
S21440037014600C68B4F5A07F24BF40F23F140C60B4
S2144003801C68B4F5A07F24BF40F23F141C6004688C
S2144003901568AC4284BF056014600A6818688242DB
S2144003A084BF08601A6030BC704700BF08B507209D
S2144003B040F23311014B984708BD00BF0D03400083
S2144003C0044A131F02F56F7243F8040F9342FBD1A1
S2144003D0704700BFC00800202DE9F0410F46154683
S2144003E01C461FFA80F850204146094EB047691E09
S2144003F04144512089B2B047BDB252202946B04749
S214400400611E2944532089B2B047BDE8F08100BF41
S2144004100D03400038B503460D4620201946034CD0
S214400420A04721202946A04738BD00BF0D03400005
S2144004304FF0C24300221A701A705F4A1178137840
S21440044043EA01231BB25D4A934240F0B38070B545
S2144004500546072033215A4CA04710200021A047CC
S21440046000200121A04701204FF48071A0470220C0
S2144004704FF4E061A04704200021A047082040F246
S2144004800721A04709200021A0470A200021A047B5
S2144004900C200021A0470D200021A0470F2000215E
S2144004A0A04710200021A04711200021A04712207D
S2144004B00021A04713200021A047C820414EB04746
S2144004C0102041F29021A047112040F22721A0475A
S2144004D03220B04712201B21A0473220B0471320BD
S2144004E04FF48851A04729201921A0472B200D21E1
S2144004F0A0473220B04730200021A04731204FF49B
S2144005000171A04732204FF40071A04735200721E3
S214400510A047362041F20441A047372040F20571FB
S214400520A047382040F20531A047392040F20771F5
S214400530A0473C2040F20171A0473D200E21A04735
S21440054003204DF21001A04760204FF42741A047FA
S21440055061200121A0476A200021A0478020002179
S214400560A04781200021A04782200021A047832069
S2144005700021A04784200021A04785200021A047D5
S21440058090201021A04792204FF4C061A0479520AC
S2144005904FF48871A047002001462A686B680A4CD1
S2144005A0A047A868094B984700200146084B984743
S2144005B0002070BD01207047020000612593FFFFB8
S2144005C00D03400025034000D9034000C10340000E
S2144005D015044000EF2813D8B1F5A07F12D210B50D
S2144005E080B289B2084B98474FF0C24300241C7033
S2144005F022221A70054B1868054B9847204610BDB6
S214400600012070470120704715044000C0080020B4
S214400610950240002DE9F04184B00390029101928A
S214400620009303A802A901AA6B46234CA047039D4A
S214400630029C01994A1C00994B1C28462146521B95
S2144006401B1B1E4CA047BDF80C00BDF808101C4BE9
S21440065098474FF0C24300221A7022221A70029A1C
S214400660009B9A1A019B03F10108039BC3EB080801
S21440067002FB0888134CA4FB0834E40907D0124F49
S214400680F026124D38463146A847013CFAD10D496E
S214400690A1FB0831C909C1EB01110B48A8EB0111B8
S2144006A00A4B984700200146F0224FF4A073034CB3
S2144006B0A04704B0BDE8F0815D034000D903400088
S2144006C01504400089888888C0080020AD02400094
S2144006D02DE9F04F85B0039002921378002B46D058
S2144006E08B460190DFF890900A2B04D10BF1100B4B
S2144006F0039B019335E003EB83031E4E06EB830317
S214400700A3F27F26019A13460A33009390460724A5
S21440071037460BEB040A3D4616F8013C234113F0DE
S214400720010F03D04046C4EB0A01C847013CB4F170
S214400730FF3FF0D107240BF10F072B78234113F02E
S214400740010F02D04046391BC847013C012CF4D16A
S214400750023608F10108009B9845D8D1019B0C331E
S2144007600193029A12F8013F0292002BBCD105B0C9
S214400770BDE8F08F1C7A4000D50540000901425084
S214400780704700BF00EB01114A60704700EB011153
S2144007908A60704700EB0111CA607047016370477A
S2144007A0416370474264B1F1C05F2FD007D8B1F1C2
S2144007B0006F14D0B1F1805F1ED039B97047B1F1E7
S2144007C0205F37D004D8B1F1005F29D0426070472F
S2144007D0B1F1405F2ED0B1F1605F2BD0F6E710B498
S2144007E0016F046FD343214019400167416F446F46
S2144007F021400B4043671AE0036F13430367436F80
S214400800416F0B4023EA02034367DFE7036F016F44
S2144008100B4023EA02030367436F13434367D5E75E
S214400820036F13430367436F13434367CEE7426048
S2144008305DF8044B704700BF416412F0010F14BFCF
S2144008404166016612F00A0F14BF0162416212F05F
S214400850020F02D0C0F8801004E012F0080F18BF54
S214400860C0F8841041610160704700BF10B4416415
S214400870019C0CB1416600E001660BB1016500E0E9
S21440088041650AB1016300E04163016101605DF8C2
S214400890044B7047C06C7047806C704770B582B030
S2144008A00D46430903F5001303F207735C0201F09B
S2144008B0F043B3F1005F47D009D8B3F1805F21D051
S2144008C0B3F1C05F2FD0B3F1006F6FD109E0B3F141
S2144008D0405F55D0B3F1605F52D0B3F1205F44D053
S2144008E064E000F01F000126864020464FF000617D
S2144008F03246304B984715F0010F14BF66662666A1
S214400900012054E000F01F000126864020464FF0AC
S21440091080513246274B984715F0010F14BF666644
S2144009202666012043E000F01F0001268640204650
S2144009304FF0C05132461F4B984715F0010F14BF79
S21440094066662666012032E000F01F0001268640DB
S21440095020464FF000513246164B984715F0010F8F
S21440096014BF66662666012021E000F01F030126BC
S214400970204606FA03F12A460F4B9847304616E0C3
S21440098000F01F03012605F0605205EA06010091BB
S214400990204606FA03F1B2F1605F14BF002201223E
S2144009A0C5F38003054CA047304600E0002002B067
S2144009B070BD00BFA5074000390840006D084000E4
S2144009C070B582B006460D46144602F0F043B3F1C9
S2144009D0005F38D009D8B3F1805F1CD0B3F1C05F58
S2144009E025D0B3F1006F50D109E0B3F1405F3AD063
S2144009F0B3F1605F37D0B3F1205F30D045E04FF0C1
S214400A0000612A46224B984714F0010F14BF7566C2
S214400A10356601203AE04FF080512A461C4B9847F5
S214400A2014F0010F14BF7566356601202EE04FF0B6
S214400A30C0512A46164B984714F0010F14BF7566EE
S214400A403566012022E04FF000512A46104B984769
S214400A5014F0010F14BF75663566012016E00D4B85
S214400A609847012012E004F0605204F0010300931E
S214400A7030462946B2F1605F14BF00220122C4F31B
S214400A808003054CA047012000E0002002B070BD66
S214400A90A5074000390840006D0840002DE9F8439E
S214400AA081468846124B984705464846114B98471C
S214400AB0054013D0104C04F160062368434508D126
S214400AC06168294205D0E36840469847636825EA4E
S214400AD00305B44202D01034002DEED1074B1B68FC
S214400AE023B1074B1B680BB148469847BDE8F883CF
S214400AF09508400099084000840C00203C0D0020DA
S214400B00800C002008B502480B21024B984708BDD0
S214400B10000E0E409D0A400008B502480C21024BCC
S214400B20984708BD00100E409D0A400008B5024890
S214400B300D21024B984708BD00120E409D0A40000A
S214400B40184A136B23F0700318431063936E13F028
S214400B50080F03D009E0013B03D11EE04FF40063C9
S214400B6010498A6E12F0080FF5D00E4A136B23F028
S214400B70030343F002031363906E10F0080004D0A2
S214400B8000207047013B03D109E04FF4006305495C
S214400B908A6E12F0080FF5D070470120704701208A
S214400BA0704700BF00040E4038B111490B6A114A25
S214400BB01A40114B13430B6270470D4A136A23F4D5
S214400BC05C1323F0030343F45C1343F00103090270
S214400BD089B20B431362936E13F0010FFBD0044AA5
S214400BE0136A43F09B7343F480331362704700BF2D
S214400BF000040E40FCFFC8FE02003701024B986E10
S214400C0000F48030704700BF00040E404FF00052A2
S214400C10014B9A62704700BF00040E40024B986E2C
S214400C2000F00200704700BF00040E4022281ED885
S214400C301F280CD8114B9A69012383401A409342CF
S214400C4017D0012383400D4A1361002070470B4B99
S214400C50D3F808212038012383401A4093420AD013
S214400C6001238340054AC2F8003100207047012026
S214400C707047002070470020704700BF00040E40B9
S214400C8010B489014318022444504FF0FF31996252
S214400C90196A5A605DF8044B704700BF8901052306
S214400CA04350704700EB8111CA61704700EB8111D9
S214400CB04A62704700EB8111086A704710B4AC2353
S214400CC003600B684A68B3FBF2F31B095C1E4FF6E1
S214400CD0FE7294420AD803628B68436040F2022355
S214400CE0C0F8203150230360002000E001205DF86A
S214400CF0044B704781607047436913F0020F1ABF78
S214400D00C161002001207047436913F0010F1DBFE9
S214400D1083690B7000200120704700BF436913F0C1
S214400D20020F1DBFC1F30801C161002001207047BA
S214400D30436913F0010F05D08369C3F308030B60C2
S214400D400020704701207047FEE700BF08B5204BE3
S214400D50204A9A4213D9204B1D4A9A421FD2114626
S214400D60043203339B1A23F003030433194A134413
S214400D7052F8040B41F8040B9A42F9D10FE0144B99
S214400D80144A9A420BD2144B114A9A1A13488118A5
S214400D902AB151F8042943F8042D8142F9D100BF05
S214400DA00F4B104A9A420BD2131D0F4AD21A22F00A
S214400DB003021A44043B002143F8041B9342FBD130
S214400DC00A4B0B4A9A600B4B98470B4B9847FEE7EB
S214400DD000000020F4844000A4080020F084400076
S214400DE0540D0020A4080020570D002000ED00E020
S214400DF000004000B5144000F91140003D4B1B6B0D
S214400E0003F00303032B5DD8DFE803F0020E2B2B21
S214400E10394B5B6913F0800F14BF4FF400424FF418
S214400E20FA42364B1A604DE0324B1B6A13F0807F15
S214400E3003D0334A314B1A6044E0324A2F4B1A6093
S214400E402C4B1B6A03F07003102B02D0202B04D0CF
S214400E5038E02D4A294B1A6034E0294A274B1A605D
S214400E6030E0244B1B6A13F0807F03D0244A234B88
S214400E701A6012E0234A214B1A601E4B1B6A03F08D
S214400E807003102B02D0202B04D006E01E4A1B4BCA
S214400E901A6002E01A4A194B1A60164B1B6B03F095
S214400EA00303022B134A07BF936A926AD36AD26A35
S214400EB01248C3F30A41036801FB0333D2B2B3FBC3
S214400EC0F2F303600B4B1B6B03F07003702B07D1E0
S214400ED00A4A13680D49A1FB03135B081360704769
S214400EE0044B1A6B0549C2F302120B68D3400B60E1
S214400EF0704700BF00040E4010140E400000002053
S214400F00001BB70000093D0000127A00ABAAAAAA4F
S214400F101A4B984207D84FF08063194A136002F57F
S214400F20007213607047174B984206D8164B144A07
S214400F30136002F5007213607047144B984206D84F
S214400F40134B0F4A136002F5007213607047114B43
S214400F50984206D8104B0A4A136002F50072136096
S214400F6070470E4B984294BF4FF004230C4B044AF4
S214400F70136002F500721360704700BFFF2C31010A
S214400F80000A0E40FF59620200010004FF869303E8
S214400F9000020004FFB3C40400030004FFE0F505AC
S214400FA000050004094B1B6813B9094A074B1A6031
S214400FB0064B1B681A180749914204DB1046034A41
S214400FC01060184670474FF0FF307047F40C002012
S214400FD0583D0020FC7F02204FF0FF30704700BF96
S214400FE04FF400534B600020704700BF012070470D
S214400FF00020704770B50C46184B984208D11E46E4
S214401000174D30462146A8470028FAD1012070BD2A
S214401010144B984208D11E46114D30462146A847EB
S2144010200028FAD1012070BD0F4B984208D11E46C9
S2144010300E4D30462146A8470028FAD1012070BD03
S2144010400B4B984208D11E46084D30462146A847CD
S2144010500028FAD1012070BD002070BD00060E4069
S214401060F90C400000080E40004002401D0D4000B4
S21440107000800240F0B583B005460C46002301933D
S214401080184B984207D11F46174E38462146B04760
S2144010900028FAD117E0154B984207D11E46124D4C
S2144010A030462146A8470028FAD118E0104B98420F
S2144010B009D11E460F4D304601A9A8470028FAD14F
S2144010C0019B23700BE00C4B9D4208D11E46094DF8
S2144010D0304601A9A8470028FAD1019B237003B0E7
S2144010E0F0BD00BF00060E40090D400000080E404F
S2144010F000400240310D40000080024008B50348E1
S2144011004FF40021024B984708BD00BF000E0E402A
S2144011109D07400000B583B013480021134B984705
S2144011200190019B124B1B68012B08D0022B0CD060
S214401130B3B910484FF400210F4B984710E00D48C4
S2144011404FF400210D4B98470AE00A4B9B6B13F473
S214401150002F08484FF4002114BF074B074B984711
S21440116003B05DF804FB00BF00400140B50C4000F2
S214401170F80C0020000E0E40A10740009D074000DE
S21440118070B58EB00020134DA8470A200521124A9C
S214401190124CA0470020A8470A201921104AA04711
S2144011A001A81049104A114B114EB0470020A847DD
S2144011B000202D2101AAA0470A204121E6224423EF
S2144011C00C4CA0470A204721E6224A23A0470EB0EF
S2144011D070BD00BFC10340009C814000D106400066
S2144011E0A8814000BC814000C4814000D0814000BE
S2144011F03D174000150640002DE9F0478AB07D4B6C
S21440120098477D4B98470B207C4DA8477C4E002442
S214401210009430464FF4002101222346DFF88882AE
S214401220C04730464FF4C0614FF00062754B984758
S2144012300820A847069408944FF4E13205924FF4EC
S21440124000630793704F71490F6071487149086099
S21440125071487249086072490291039204930820CB
S214401260A847384602A96F4B9847DFF840A2DAF8FD
S214401270003098682146DFF83892C847DAF80030E0
S21440128058682146C847384605A9674B9847674877
S214401290674FB8470A20A8470B20A8470094304617
S2144012A04FF4002101222346C0471A20A847614D2B
S2144012B02846214644F203025F4B9847284621467B
S2144012C04FF480325D4B98472846214610225C4BAF
S2144012D098474FF080625B4B1A60284621465A4B2F
S2144012E0984705F54C25284601214FF00232574BCA
S2144012F0984728460121564A564B9847284601218A
S214401300554A564B9847284601210322544B984746
S2144013105448F02606604FF4A075456084606FF030
S2144013207F48C0F80C80504B984720464F4B984714
S21440133040464F4B98472046214632462B464D4C1A
S214401340A0474D4B98474D4B98474D48B8474D4D55
S2144013502D4C4D4F2A4E20460DF12701A847002818
S214401360F9D19DF82710A1F13103042B3ED8DFE8D0
S21440137003F00307131F2B0041482D4B9847EAE71D
S2144013800022424B1A6030464FF40021404B9847AB
S2144013904048274B9847DEE701223C4B1A603046D0
S2144013A04FF400213C4B98473C48214B9847D2E7A6
S2144013B00222364B1A6030464FF40021364B98478F
S2144013C036481B4B9847C6E70322304B1A603046D8
S2144013D04FF40021304B98473148154B98472046EC
S2144013E00DF12701A8470028F9D1B4E738462D4B20
S2144013F09847B0E729014000190240002D0C4000F4
S214401400000E0E40C109400000060E40380D002078
S214401410F50F4000340D002075104000300D0020C0
S214401420000E2707BD0C4000F50C4000DC81400054
S2144014302516400000400140810C4000A50C4000AD
S214401440AD0C400000E100E09D0C40007D074000F0
S21440145004040A0A850740000A0016008D0740006B
S21440146095074000400D0020310440007D024000BA
S214401470C103400015064000AD0340008111400006
S21440148038824000090D400000834000F80C0020E0
S214401490A1074000BC8240009D074000C882400033
S2144014A0D4824000051540006D08400030040020FE
S2144014B03516400070B50F4E0F4D761BB61018BF50
S2144014C0002405D0013455F8043B9847A642F9D18C
S2144014D00A4E0B4D761B06F0F7FFB61018BF0024D9
S2144014E006D0013455F8043B9847A642F9D170BD62
S2144014F070BD00BFD4844000D4844000DC844000EB
S214401500D48440000FB400B5074983B004AB0868E4
S21440151053F8042B8168019301F0EAFB03B05DF8B1
S21440152004EB04B0704700BF3004002070B484075A
S21440153046D0541E002A41D0CDB2034602E0621E79
S214401540E4B3144603F8015B9A07F8D1032C2ED96E
S214401550CDB245EA05250F2C45EA054519D903F1D4
S21440156010022646103E0F2E42F8105C42F80C5CE5
S21440157042F8085C42F8045C02F11002F2D8A4F18A
S214401580100222F00F0204F00F041032032C134412
S2144015900DD91E462246043A032A46F8045BFAD87A
S2144015A0221F22F003020432134404F003042CB139
S2144015B0C9B21C4403F8011BA342FBD170BC704760
S2144015C014460346C2E700BFF0B5044689B0084655
S2144015D00D4600F0D9F8A368114F9A890495022168
S2144015E000F1010E012604AD029191040590CDF85C
S2144015F00CE006970796019506D4596E42F40052C1
S21440160021F400519A8159662046194601AA03F0F2
S214401610F3FC002814BF4FF0FF300A2009B0F0BD9D
S21440162024834000024B01461868FFF7CDBF00BF39
S2144016303004002000290CBF022200224FF48063B1
S21440164000F000B82DE9F0413A4C26680D460446B5
S21440165090461F4616B1B36B002B3CD0B8F1020F34
S2144016602FD8002F2DDB2146304603F081FAA18982
S21440167000236360A3610B0627D421F0830189B25F
S214401680B8F1020FA1812AD0002D36D0B8F1010F53
S21440169011D089B201F00800274BF36380B2256071
S2144016A02561676178B111F0030F18BF0027A76066
S2144016B00020BDE8F08141F001017B42A181A36199
S2144016C0E7E74FF0FF30BDE8F0812169304603F090
S2144016D0BBFBA189D1E7304603F0DEFABEE7002027
S2144016E004F1430341F0020100250122A181A560D7
S2144016F0236023616261BDE8F081002F08BF4FF48C
S2144017008067384603F0ACFE054628B1A18941F013
S214401710800189B2A181B9E74FF4806003F0A0FE52
S214401720054618B9A1894FF0FF30D9E74FF48067D6
S214401730ECE700BF300400209D4B40000EB4F0B5EF
S2144017409CB021AB0F4953F8042B019305466FF02C
S2144017500044086802954FF402774FF6FF7602A9D8
S2144017600695ADF8147004940794ADF8166000F032
S21440177039F8029B00221A701CB0BDE8F04003B056
S214401780704700BF3004002020F0030110F0030033
S214401790C0F1000051F8043B00F1040C4FEACC0CB9
S2144017A06FF000021CBF22FA0CF213434FF0010CFC
S2144017B04CEA0C2C4CEA0C4CA3EB0C0222EA03023B
S2144017C012EACC1204BF51F8043B0430F4D0C2F104
S2144017D0000102EA0102B2FA82F2C2F11F0200EBF5
S2144017E0D20070472DE9F04FC1B089460A920E9359
S2144017F0089003F0C1FD036817931846FFF7C4FF2F
S214401800B9F80C3018901A0604D5D9F81030002BC9
S21440181001F08C80002330AF1393259324931693C6
S21440182019930B932397149315933C464E460A9D63
S2144018302B78002B00F0A980252B02D1A5E0252B84
S21440184003D015F8013F002BF9D10A9BEB1A73B170
S214401850249A25990A98206001321944072A636021
S2144018602591249272DC08340B9A1A440B922B78FA
S214401870002B00F0B5870023691C6D788DF86F301B
S2144018801A460C9307934FF0FF3A4B1CA5F12001E4
S214401890582900F2D983DFE811F07002D703D70346
S2144018A07403D703D703D703D703D703D703F0026E
S2144018B00D02D703F4011102D7037B03BA02BA0222
S2144018C0BA02BA02BA02BA02BA02BA02BA02D703D5
S2144018D0D703D703D703D703D703D703D703D703F3
S2144018E0D703C9028B03D7038B03D703D703D7038A
S2144018F0D7036D03D703D7030503D703D703D7030F
S214401900D703D7032303D703D7033D03D703D70310
S214401910D703D703D703D703D703D703D703D703B2
S21440192058032C028B038B038B03FE022C02D70337
S214401930D703E602D7037E02FB01C0037702D70334
S2144019409202D7037A00D703D7034A020898079330
S214401950314623AA04F0D4FE50B93C46079B83E7A1
S2144019600898314623AA04F0CBFE002800F0858173
S214401970B146B9F80C3013F0400F0B9B18BF4FF030
S214401980FF33184641B0BDE8F08F0A9D6FE70A93D3
S214401990079B980640F1AD820E9B03F1070929F09C
S2144019A0070303F10802D3E900890E9201234FF0A2
S2144019B0000C8DF86FC0CDF844A0BAF1000F03DBE1
S2144019C0079A22F08002079258EA090240F04C83B8
S2144019D0BAF1000F00F05184012B00F04F83022B28
S2144019E000F0908439464FEAD80242EA49724FEAFC
S2144019F0D90008F0070381469046303358EA09027A
S214401A0001F8013DEFD1079A1091D20700F14485C5
S214401A107B1A0D930D9A92455346B8BF13460993C9
S214401A2000231293BCF1000F02D0099B01330993A7
S214401A30079B13F002030F9302D0099B02330993CE
S214401A40079B13F0840940F00C830C9B099AC2EB69
S214401A500308B8F1000F40F30483B8F1100F25993E
S214401A60249ADFF844A529DD53464FF0100BC246B2
S214401A70A8461D4606E0AAF1100ABAF1100F04F176
S214401A80080417DD01321031072A2591249284E894
S214401A902008F0DD0898314623AA04F031FE0028DD
S214401AA07FF466AFAAF1100ABAF1100F2599249A6E
S214401AB03C46E7DC2B464546D0469A46013208EB84
S214401AC0010B072ACDF894B02492C4F800A0C4F8BD
S214401AD0048000F37B849DF86FC00834BCF1000F8F
S214401AE00FD0249B01330BF1010B0DF16F01012246
S214401AF0072BCDF894B0249384E8060000F3DA83ED
S214401B0008340F9B73B1249B01330BF1020B1CA9C5
S214401B100222072BCDF894B0249384E8060000F305
S214401B20D5830834B9F1800F00F01183119B0D9ACC
S214401B30C2EB030ABAF1000F3CDDBAF1100F249A4B
S214401B40DFF868942BDD49465B46A9464FF01008FF
S214401B50DDF820B00D4606E0AAF1100ABAF1100FE3
S214401B6004F1080417DD01321033072A2593249226
S214401B7084E82001F0DD5846314623AA04F0C0FD33
S214401B8000287FF4F5AEAAF1100ABAF1100F259B93
S214401B90249A3C46E7DC9B462B464D469946013206
S214401BA0D344072ACDF894B0249284E8000600F384
S214401BB075830834079BD90500F16C82249B0D99E8
S214401BC0109A226001338B44072BCDF894B06160A5
S214401BD0249300F346830834079B5A0741D50C9B51
S214401BE0099A9D1A002D3CDD102D249BDFF8B8A3E2
S214401BF023DD4FF010085A46DDF8209004E0103DF3
S214401C00102D04F1080417DD01331032072B2592FE
S214401C102493C4F800A0C4F80480F0DD484631465A
S214401C2023AA04F06DFD00287FF4A2AE103D102DCF
S214401C30259A249B3C46E7DC93460133AB44072B6E
S214401C40CDF894B02493C4F800A0656009DD0898E8
S214401C50314623AA04F054FD00287FF489AEDDF80F
S214401C6094B00B9B099A0C998A42ACBF9B185B18A0
S214401C700B93BBF1000F7FF473AE002324933C46D6
S214401C80D5E5194607981D7840F004000790FCE516
S214401C900A93079B13F0200300F00E810E9B03F17E
S214401CA0070929F0070303F10802D3E900890E92D9
S214401CB000237CE61D7819462B22E6E51D782A2D62
S214401CC003F1010100F0AD87A5F1300009280B466D
S214401CD04FF0000A3FF6DAAD13F8015B0AEB8A0ACA
S214401CE000EB4A0AA5F130000928F5D94AEAEA7A13
S214401CF0CCE50A93079B8DF86F209B0640F1A180A8
S214401D000E9B03F1070929F00709D9E9002309F1D9
S214401D1008010E9190469946002A73F10003C0F2DE
S214401D200B849DF86FC0CDF844A0012345E60A9386
S214401D309B4B1693079B8DF86F209B0640F1F380D4
S214401D400E9B03F1070929F00703D3E9008903F145
S214401D5008020E92079BD90740F1F58058EA09031E
S214401D6000F0F180079A8DF87150302342F002025D
S214401D708DF870300792022319E61D781946002A1E
S214401D807FF483AD202280E5079941F0200107913A
S214401D901D78194679E50A93079B8DF86F209A06B9
S214401DA040F1A1840B990E9A4FEAE17913680846F0
S214401DB08846043249460E92C3E9000137E50E9A3A
S214401DC00A93136810934FF0000B8DF86FB002F132
S214401DD00409002B00F03B86BAF1000F1098C0F2C1
S214401DE0E9855946524603F0D5FD002800F06C863A
S214401DF0109BCDF844B0C31A0D93CDF8389023EA23
S214401E00E3730993CDF848B09DF86FC00AE6A5F194
S214401E103000002113F8015B01EB810100EB41012A
S214401E20A5F130000928F5D90C912FE50A93079BB8
S214401E308DF86F2043F010030793079B9B063FF5F2
S214401E405FAF079BD80600F16883079B590640F1B1
S214401E5064830E99B1F9008004314FEAE87942462E
S214401E604B460E9158E71D7807996C2D00F0CB84B1
S214401E7041F010010791194607E50E9D29680C911F
S214401E8008460028294601F10401C0F2B5840E91A7
S214401E901D781946F9E4079941F0400107911D78ED
S214401EA01946F2E40A93079B43F010030793079BF7
S214401EB013F020037FF4F2AE079A12F0100240F0BF
S214401EC01983079B13F0400300F014830E991346C2
S214401ED00A460432B1F800800E924FF0000966E5DB
S214401EE00A93079B43F010030793079B98063FF51A
S214401EF053AD079BD90600F10683079B5A0640F16F
S214401F0002830E9AB2F8008004324FF00009012393
S214401F100E924CE50A93234B1693079B8DF86F2041
S214401F209B063FF50DAF079BD80640F1CD830E9A32
S214401F3013461B689846079B0432D9070E924FF00B
S214401F4000093FF50BAF022331E50E990A930A6864
S214401F508DF898200023012204319C4609920E9168
S214401F608DF86F3026ABCDF844C0CDF848C00D9202
S214401F7010935DE5079941F0080107911D781946D1
S214401F8083E4079941F0010107911D7819467CE4E6
S214401F90079941F0800107911D78194675E400BF06
S214401FA06C834000588340003883400028834000BC
S214401FB00A930E9B8DF86F2003F1070929F007035B
S214401FC003F108020E921A6814925B6815931599ED
S214401FD0149804F015FB0128D3461498159940F040
S214401FE059830022002305F0FBF9002840F0648561
S214401FF09DF86FC0079BBE4ADFF800E323F08003DE
S2144020000793134603210020472DD8BF73460991F6
S214402010119010930D91129004E50E9807990A932B
S214402020302203688DF870200246782541F0020180
S21440203004329846AF4B169307910E924FF0000924
S2144020408DF871500223B2E40A938DF86F20002D6C
S21440205000F0C683002301229C4609928DF89850D2
S2144020607EE7DDF894B039E5012B7FF4B8ACB9F1E2
S214402070000F08BFB8F10A0F80F01C820DF5807B78
S21440208008F130080BF8418DCBEB07030D93CDF8E4
S21440209040B0BFE4652D40F3A08014981599002207
S2144020A0002305F093F9002800F04581249B924ACE
S2144020B0226001330BF1010B0122072BCDF894B0BF
S2144020C02493626000F3348308341D9B139A934232
S2144020D003DB079BDA077FF57FAD249B1899179A99
S2144020E0226001338B44072BCDF894B06160249373
S2144020F000F390830834139B5D1E002D7FF76CAD74
S214402100102D249BDFF8F89140F3BA814FF0100869
S2144021105A46DDF820A004E00834103D102D40F368
S214402120AE8101331032072B25922493C4F80090D9
S214402130C4F80480F0DD5046314623AA04F0E0FAA5
S21440214000287FF415AC259A249B3C46E5E70C9B7B
S214402150099AC2EB030ABAF1000F7FF7E7ACBAF16F
S214402160100F249ADFF898912BDD49465B46A94626
S2144021704FF01008DDF820B00D4606E0AAF1100A30
S214402180BAF1100F04F1080417DD01321033072AA4
S2144021902593249284E82001F0DD5846314623AA50
S2144021A004F0AEFA00287FF4E3ABAAF1100ABAF1C5
S2144021B0100F259B249A3C46E7DC9B462B464D4613
S2144021C099460132D344072ACDF894B0249284E845
S2144021D0000600F352820834A8E4139B249D012B8A
S2144021E040F32082109B236001350BF1010301224E
S2144021F0072D25932495626000F3268208341899AB
S2144022006160013503EB010B072D179BCDF894B0A9
S2144022102495236000F324820834002314981599EB
S214402220002205F0D3F8139B002840F0DE80109A79
S214402230013B013501329B44072D2495CDF894B0DF
S2144022402260636000F30E810834199A626001359B
S21440225093441FAB072DCDF894B0249523607FF7A9
S214402260BAAC0898314623AA04F04AFA00287FF40C
S2144022707FABDDF894B03C46AEE4002B32D1079BF2
S214402280D8072FD50DF5807B30230BF8413DCBEB9F
S21440229007030D93CDF840B0FFF7BCBB0898314616
S2144022A023AA04F02DFA00287FF462ABDDF894B040
S2144022B03C467FE40898314623AA04F021FA0028D9
S2144022C07FF456ABDDF894B03C461AE408983146A5
S2144022D023AA04F015FA00287FF44AABDDF894B040
S2144022E03C461FE4CDF834A01097FFF793BB00BFE1
S2144022F04C8340006C834000888340004883400005
S214402300288340001698BB464FEA181308F00F0182
S21440231043EA09734FEA191298469146435C0BF814
S214402320013D58EA0903EFD15B46CDF840B0FB1AB1
S2144023300D93FFF76FBB1D9D002D40F30582139A4A
S21440234012998A421346A8BF0B461D461099002D87
S21440235001EB020A0BDD249B21600133AB44072BC3
S214402360CDF894B06560249300F34D830834129BF7
S214402370002DA8BF5B1B002B1D4640F3F580102D9B
S214402380249BDFF8F49540F3C6815A464FF0100878
S214402390DDF820B004E00834103D102D40F3BA813B
S2144023A001331032072B25922493C4F80090C4F8CA
S2144023B00480F0DD5846314623AA04F0A1F90028EF
S2144023C07FF4D6AA259A249B3C46E5E708983146F2
S2144023D023AA04F095F900287FF4CAAA9DF86FC096
S2144023E0DDF894B03C46FFF779BB03F1FF38B8F10F
S2144023F0000F7FF72AAFB8F1100FDFF87C9525DD88
S2144024005B464FF0100ADDF820B006E0A8F1100851
S214402410B8F1100F04F1080417DD01351033072D0D
S2144024202593249584E80006F0DD5846314623AAD5
S21440243004F066F900287FF49BAAA8F11008B8F1CA
S214402440100F259B249D3C46E7DC9B460135C34444
S214402450072DCDF894B02495C4F80090C4F80480B5
S2144024607FF7F2AE0898314623AA04F049F90028CF
S2144024707FF47EAADDF894B0249D3C46E5E693467C
S2144024800133AB44072BCDF894B02493C4F80090A6
S21440249065607FF7A0ABE4E6302B109B3FF447AF78
S2144024A0013B1A461093BA1A30230D9201F8013CAC
S2144024B0FFF7B0BABB46CDF824C0404649460A228C
S2144024C0002304F0DDFF3032404649460BF8012D2C
S2144024D000230A2204F0D4FF8046894658EA0903BE
S2144024E0EBD15B46FB1ADDF824C0CDF840B00D9327
S2144024F0FFF790BA0E990A6804310E9190464FF055
S2144025000009FFF754BA0E990A68043101230E9168
S21440251090464FF00009FFF74ABA0E9A136898465D
S2144025204FEAE3791346043342460E93002A4B465D
S21440253073F10003BFF6F5AB4FF02D0CD8F1000851
S21440254069EB49098DF86FC0CDF844A00123FFF729
S21440255034BA0898314623AA04F0D2F800287FF40B
S21440256007AADDF894B03C46109A12991D9B0A447F
S2144025709046139A934246DB079AD00743D4139A61
S214402580C8EB0A05D31A9D42A8BF1D46002D0CDD98
S214402590249AC4F800800132AB44072ACDF894B0A0
S2144025A06560249200F367820834002DACBF5D1B43
S2144025B01D46002D7FF710AB102D249BDFF8B893F7
S2144025C07FF75EAF4FF010085A46DDF820A004E0D3
S2144025D00834103D102D7FF752AF01331032072BD1
S2144025E025922493C4F80090C4F80480F0DD504649
S2144025F0314623AA04F084F800287FF4B9A9259A26
S214402600249B3C46E5E7249A1898179921600132A6
S2144026108344072ACDF894B06060249200F30A827F
S2144026200834ACE7079BD9073FF5DCAD109B236029
S21440263001350BF1010B0123072DCDF894B02495FD
S21440264063607FF701AE0DE70898314623AA04F091
S21440265057F800287FF48CA9259B249D3C46CEE560
S2144026600898314623AA04F04BF800287FF480A946
S214402670DDF894B0249D3C46CFE50898314623AA21
S21440268004F03EF800287FF473A9DDF894B03C4689
S214402690FFF74CBA03F0B4FF002840F0C7808646E8
S2144026A0B24AB34B119007989DF86FC0CDF848E0FA
S2144026B0032120F08000472DD8BF1A460991079085
S2144026C010920D91FFF7AEB9079B0E9A13F0400F8C
S2144026D013463FF42EAC0433B2F800800E934FF00E
S2144026E00009FFF737BB079BDB060BD4079B5D064D
S2144026F008D50E9A136804320E92BDF82C201A8024
S214402700FFF795B80E9A136804320E920B9A1A6029
S214402710FFF78DB893460133AB44072BCDF894B002
S2144027202493C4F8009065603FF713AF08341BE766
S2144027300898314623AA03F0E3FF00287FF418A93F
S214402740DDF894B03C46C0E4249B8A4A22600133BC
S2144027500BF1010B0122072BCDF894B02493626055
S21440276000F3F48008342DB9139B1BB9079BDB0795
S2144027707FF532AA249B1898179A226001330BEBF8
S2144027800001072B25916060249300F3F38104F148
S21440279008026D42002D40F3FC80102DDFF8D891E2
S2144027A040F33D811024DDF8208004E00832103DDF
S2144027B0102D40F3348101331031072B259124939B
S2144027C0C2F800905460F1DD4046314623AA03F03B
S2144027D097FF00287FF4CCA82599249B3A46E6E745
S2144027E0259BB146002B3FF4C4A80898314623AA3F
S2144027F003F086FFFFF7BDB80C980E9140420C9050
S2144028001946FFF73FBA41F0200107915D78591C01
S214402810FFF73BB80898314623AA03F071FF00281B
S2144028207FF4A6A8DDF894B03C4664E425F0200387
S214402830BAF1FF3F0D9300F09680472B05D1BAF1D1
S214402840000F14BFD3464FF0010B079B43F4807331
S2144028501193159BB3F1000A149B0993BBBF5346D3
S21440286003F1004A00232D23662D0F9300F0AC8021
S214402870462D00F0A9800D9B099A452B0CBF0BF105
S2144028800109D94602201DA98DE8010202911EA821
S21440289021A9039053460491089801F075F9672DD5
S2144028A0109002D0472D40F09F80079BDB0740F1F9
S2144028B08981109B03EB09080998514600220023A2
S2144028C004F084FD002840F0FD80219B984506D901
S2144028D030215A1C21921970219B9845F9D8109A9C
S2144028E09B1A13930D9B472B1D9B00F0DE80652D96
S2144028F040F3F880662D129300F05781139B129A8E
S214402900934200F34481079BD90700F1738122EA82
S214402910E2730D920F9A002A40F0BC800993119BF7
S214402920079311929DF86FC0FFF77CB80898402136
S21440293002F09EFDC9F80000C9F81000002800F01B
S2144029408C814023C9F81430FEF764BF089831469E
S21440295023AA03F0D5FE00287FF40AA81D9DDDF8C3
S21440296094B03C46FFE64FF0060B6EE754834000BB
S21440297050834000888340002883400008983146B2
S21440298023AA03F0BDFE00287EF4F2AF2599249BCF
S2144029903A46139C5460013301EB040B072B109905
S2144029A0CDF894B0249311603FF75BAC02F1080475
S2144029B0FFF712B9CDF844B0FEF7E6FECDF83890F2
S2144029C00D900346FFF71BBA03201DA98DE80108AA
S2144029D002911EA821A90390099A0491534608988B
S2144029E001F0D2F8D9461090109B03EB09080D9BD6
S2144029F0462B7FF461AF109B1B78302B00F0E480B1
S214402A001D9B984458E70898314623AA03F078FE61
S214402A1000287EF4ADAFDDF894B03C46A7E4013321
S214402A202944072B25912493C2F800905560A5DCD5
S214402A300832AEE70898314623AA03F061FE002824
S214402A407EF496AF1D9BDDF894B03C4697E5534622
S214402A50062B28BF06230D9323EAE373DDF840C018
S214402A600993834BCDF83890CDF844C0CDF848C094
S214402A701093FEF7D7BF0898314623AA03F040FECE
S214402A8000287EF475AF1D9B139ADDF894B0D31AD8
S214402A903C468AE50993119B07934FF02D0C002383
S214402AA08DF86FC01193FEF7C0BFDA1C19DB9B454B
S214402AB017DB1293672521E74FF02D0C8DF86FC07A
S214402AC0FFF798BA43460AE72AEAEA731190CDF828
S214402AD0389012909DF86FC00993CDF834A0FEF759
S214402AE0A1BF023D013B002B1D93BABF5B422D2286
S214402AF02B22092B8DF87C508DF87D2072DD0DF150
S214402B008B0E70465B4A82FB0321DA17C2EBA102AA
S214402B1002EB8201A3EB410303F13001092A13467D
S214402B2000F8011DEEDC02463033D9B202F8011D32
S214402B30964540F299800DF17E02034601E013F877
S214402B40011B02F8011B7345F9D123AB1B1A0DF18B
S214402B507E0213441FAA9B1A139A1993012A134400
S214402B600D936BDD0D9B002201330D93129223EAE9
S214402B70E373CFE60898314623AA03F0C1FD002848
S214402B807EF4F6AE1D9D2599249B3A4601E6129B9F
S214402B90002BD8BFC3F10208139BC8BF4FF00108F3
S214402BA043440D9323EAE373B4E6002B30DDBBF1D8
S214402BB0000F25D1079BDB0722D4129A0D9222EAFA
S214402BC0E273A7E6219B8AE6099851460022002335
S214402BD004F0FCFB00287FF413AFC9F101031D93FA
S214402BE0984469E6303330228DF87F308DF87E2069
S214402BF020ABAFE7129B01330D9323EAE37389E6DC
S214402C00129B0BF1010843440D9323EAE37381E6DC
S214402C10BBF1000F1BD1079BD80718D401230D9397
S214402C2078E60E9DD5F800A028460430BAF1000F8D
S214402C305D780E90BEF629AEFEF725BE079B13F0D4
S214402C4001038FD112930D9B23EAE37362E60BF1E7
S214402C5002030D9323EAE3735CE6089A0C231360A1
S214402C604FF0FF30FEF78EBE0DF17E0372E700BFD9
S214402C7080834000676666664B6E2DE9F0479C048D
S214402C800F4692462BD59368126833B3804602F1BE
S214402C90080919E96000B60817D0043D002401E091
S214402CA0A64210D0404655F8041F3A4602F06CF84B
S214402CB0431C04F10104F3D10023CAF80830CAF8D3
S214402CC00430BDE8F087DAF80830A3EB8603CAF88C
S214402CD0083009F10809002BDBD10020ECE702F0B0
S214402CE08BF90023CAF80830CAF80430BDE8F087EC
S214402CF02DE9F04FABB01C460091934604930190EB
S214402D0018B1836B002B00F0E380009B99898AB250
S214402D10900408D418465B6E41F4005223F40053E6
S214402D208281436692B2110740F1B280009B1B69D4
S214402D30002B00F0AD8002F01A020A2A00F0B480A0
S214402D4000230DF1680A09930F930E930293CDF872
S214402D5034A054469BF80030002B00F0A384252B6B
S214402D6000F0A0845A4601E0252B03D012F8013F1C
S214402D70002BF9D1CBEB0206154696B10E9B0F9A67
S214402D80C4F800B001333244072B66600F920E93AE
S214402D9079DD002A40F0AF84029B0E9233445446BD
S214402DA002932B78002B00F0608300214FF0000345
S214402DB04FF0FF3C8DF82F30681C6B7888460D46E8
S214402DC0664600F1010BA3F12002582A00F2AB82BE
S214402DD0DFE812F09B02A902A902A302A902A902F7
S214402DE0A902A902A902A90255026202A9020D017E
S214402DF06E02A90229012F012F012F012F012F0159
S214402E002F012F012F012F01A902A902A902A90211
S214402E10A902A902A902A902A902A9023D01A90282
S214402E20A902A902A902A902A902A902A902A90205
S214402E30A9027401A902A902A902A902A9028B014A
S214402E40A902A902A301A902A902A902A902A902EC
S214402E50A902A902A902A902A902C701DA01A90288
S214402E60A902A9022301DA01A902A9024C02A90279
S214402E708A021301F3010702A9020D02A90281008A
S214402E80A902A90233020834029B3344029388E71E
S214402E900198009900F070FDA8B9009B9A8902F04D
S214402EA01A020A2A7FF44CAF009BB3F90E30002B6F
S214402EB0FFF646AF019800995A46234600F020FD9B
S214402EC02BB0BDE8F08F4FF0FF302BB0BDE8F08F51
S214402ED001F0E2FE19E718F0200F0395B44600F023
S214402EE00C81049B073323F0070303F10802D3E960
S214402EF00067049201234FF000028DF82F20E14630
S214402F000025BCF1000FA8BF28F0800856EA07024B
S214402F1040F0C480BCF1000F00F08183012B00F02C
S214402F20C580022B00F087835146F20842EA47727A
S214402F30F80806F0070307461646303356EA0702F7
S214402F4001F8013DF1D118F0010F079140F0FC83E4
S214402F50C1EB0A09E1454E46B8BF664605B10136A3
S214402F6018F00203059318BF023618F08403069340
S214402F7040F0FA81039B9D1B002D40F3F581102DF8
S214402F8040F38C84DDF838E00F9AC64F2046102375
S214402F9064467146844607E001F1020E0CF1080CC7
S214402FA00146103D102D13DD481C103207280F92A5
S214402FB0CCF80070CCF804300E90EDDD002A40F0DE
S214402FC0C381103D102D11464FF0010ED446EBDC68
S214402FD063467146A4461C462A4407290F9227603A
S214402FE065600E9100F346830834481CBFE158469E
S214402FF048F004089BF80030E3E618F020030395F9
S214403000B44662D0049B073323F0070303F108025B
S214403010D3E90067049200236DE748F040089BF828
S21440302000305846CDE648F080089BF800305846B9
S214403030C7E6A3F1300200251BF8013B05EB8505EA
S21440304002EB4505A3F13002092AF5D9BBE648F064
S214403050100818F0200F0395B4468DF82F1000F096
S2144030609B800499073121F00701D1E900230831FC
S214403070049116461F46002A73F10003C0F2A68349
S214403080BCF1000FA8BF28F0800856EA07029DF85A
S2144030902F50E1464FF001033FF43CAF012B7FF445
S2144030A040AF002F08BF0A2E80F034832AAB30365C
S2144030B003F8416DC3EB0A0907934BE748F0100845
S2144030C018F020030395B4469CD118F0100240F047
S2144030D0F78218F0400300F0F382049913460A463C
S2144030E004320E880492002705E748F0100818F0CE
S2144030F0200F0395B4467FF4F4AE049A18F0100FF0
S214403100134640F0E48218F0400F00F0E082168844
S2144031100432002701230492EDE6634A039518F033
S214403120200FB4468DF82F10099200F09080049A34
S214403130073222F00702D2E9006702F10801049143
S21440314018F0010F00F0908256EA070200F08C82D9
S21440315030228DF8313048F002088DF830200223B6
S214403160C9E6049A039513688DF840301346043335
S21440317001264FF00001049310AB8DF82F10B14696
S21440318007934FF0000CEBE618F0200F0395B4467B
S2144031908DF82F107FF465AF18F0100F40F0A28224
S2144031A018F0400F00F09E820499B1F90060043197
S2144031B0F71732463B4604915DE704990395302362
S2144031C00A468DF83030782304328DF83130374B4C
S2144031D00993B44648F002080E680492002702237A
S2144031E089E648F020089BF800305846E9E5049AFE
S2144031F00395136807934FF00001B4468DF82F10DF
S214403200161D002B00F05083BCF1000FC0F22A833D
S214403210079DCDF810C062462846002102F0BAFB52
S214403220DDF810C0002800F05083C5EB0009049676
S2144032309DF82F504FF0000C8CE61C4A039518F072
S214403240200FB44609928DF82F107FF470AF049982
S21440325018F0100F0A4640F0408218F0400F00F079
S2144032603C8204320E880492002769E79BF80030BF
S2144032706C2B00F0EA8248F010085846A1E5049A04
S21440328015681346002D03F10403C0F2E68204934A
S2144032909BF80030584694E59BF8003058462B2162
S2144032A08FE500BF9C834000588340006C834000FD
S2144032B09BF800302A2B0BF1010000F00F83A3F19E
S2144032C03002092A83464FF000063FF67CAD1BF8D5
S2144032D0013B06EB860602EB4606A3F13002092ABE
S2144032E0F5D946EAE6766EE518F0200F8DF82F10F1
S2144032F000F08382049A02991368CF170846043276
S21440330039460492C3E9000124E558469BF800304C
S21440331000297FF456AD202153E548F00108584671
S2144033209BF800304DE503958DF82F10002B00F0EC
S2144033309C808DF840304FF0000301268DF82F30EA
S21440334010ABB14607931CE70198009908930DAA65
S214403350FFF792FC002840F08F800E990F9A089B4A
S21440336001F1010ED4461CE60E990F9A481C9DF8B2
S2144033702F306BB101320DF12F03012107280F9238
S2144033800E902360616000F33481014608340130BA
S214403390059B63B102320CA9022307280F920E90B8
S2144033A084E80A0000F33481014608340130069B65
S2144033B0802B00F0D480C9EB0C07002F2BDD102F9C
S2144033C0AA4D1FDDA6461023019C07E001F1020C22
S2144033D00EF1080E0146103F102F11DD481C10322A
S2144033E007280F92CEF80050CEF804300E90EDDD50
S2144033F06ABB103F102F4FF0010C1146D646EDDC4D
S214403400744660463A4407280F9284E8A0000E901F
S2144034103BDC0834013002EB0903079A0F93072878
S21440342084E804020E903DDD002B40F03E8118F00B
S214403430040F0E9340F02F81029B039A9642ACBF36
S2144034409B199B18029300230E93544682E4204611
S214403450009905930DAAFFF70FFC68B90E990F9ACD
S214403460059B01F1010CD646B5E70F9B23B10198A9
S21440347000990DAAFFF700FC009B9B895B063FF571
S21440348022AD02982BB0BDE8F08F002A40F0918123
S21440349001220799CDF86C904B46CDF83C901A9196
S2144034A00E92544604F1080218F0040F39D00399DE
S2144034B08D1B002D35DD102D40F302820E986C4F8B
S2144034C0DDF80480DDF80090102406E000F1020EDE
S2144034D008320846103D102D10DD411C10330729D8
S2144034E00F93176054600E91F0DD002B2AD1103DEB
S2144034F0102D4FF0010E18465246EEDC2B44BEF11E
S214403500070F0F9317605560CDF838E009DD002BA4
S21440351092D0019800990DAAFFF7AEFB0028ABD1D8
S2144035200F9B029A03998E42ACBF92195218029290
S214403530002B88D0019800990DAAFFF79DFB002824
S21440354081D099E7404649460DAAFFF795FB0028EB
S21440355092D10E980F9B00F1010E5246BAE7039B9C
S2144035609F1B002F7FF727AF102F404D40F3B481AD
S214403570204610236446844607E001F1020E0CF113
S214403580080C0146103F102F11DD481C103207284A
S2144035900F92CCF80050CCF804300E90EDDDC2B956
S2144035A0103F102F4FF0010E1146D446EDDC634617
S2144035B0A4461C463A44BEF1070F0F9284E8A0008A
S2144035C0CDF838E000F3EF8008340EF10100714684
S2144035D0F1E60198009905930DAAFFF74DFB0028E8
S2144035E07FF44AAF0E990F9A059B01F1010ED4461F
S2144035F0C8E7002A40F0C680059B002B00F0868076
S2144036000CAA02231A9208461B931A465446CBE647
S214403610002A40F0A680012011465446C7E603BB68
S21440362018F0010F1DD02AAB302203F8412DC3EB12
S2144036300A0907938EE40998D146330906F00F012C
S21440364043EA07733A091E461746435C09F8013DAC
S21440365056EA0703F1D14B46CDF81C90C3EB0A0956
S21440366078E4CDF81CA075E4022344E48C83400043
S2144036709C834000002A40F0D7809DF82F30002BD6
S21440368000F0AE8001230DF12F0118461B931A4619
S2144036901A91544679E6039A951B002D52463FF7F9
S2144036A00AAFC9E65D46FFF77CBB019800990DAAB4
S2144036B0FFF7E2FA00287FF4DFAE0F9B5246F3E6B0
S2144036C004990A4604320E680492002713E4043232
S2144036D01E680492012300270DE416680432049203
S2144036E000272DE5049A166813460433F71704930B
S2144036F032463B46BFE4019800990DAAFFF7BCFA54
S21440370000287FF4B9AE5446FFF7BEBB0846544681
S21440371011464CE6D146CDF814C0304639460A220A
S214403720002303F0ADFE30323046394609F8012D0D
S21440373000230A2203F0A4FE06460F4656EA070375
S214403740EBD1DDF814C086E7302B079B86D0013BD3
S2144037501A4607933023C2EB0A0901F8013CFFF7EB
S214403760F9BB01980099CDF814C00DAAFFF784FA6A
S21440377000287FF481AE0E990F9ADDF814C0481CDD
S214403780544614E601980099CDF820C00DAAFFF7DC
S21440379073FA00287FF470AE0E990F9ADDF820C0B9
S2144037A0481C5446F4E5002A67D101201146544689
S2144037B001E6019800990DAAFFF75EFA00287FF40B
S2144037C05BAE0E980F9A0130544624E62D2576427D
S2144037D067EB47078DF82F50E1460123FFF791BB73
S2144037E0059B114601205446002B3FF4E4AD0CAA3D
S2144037F002238AE80C001A46D6E518F0100F0BD1C3
S21440380018F0400F08D0049A136804320492BDF8AA
S21440381008201A80FFF79EBA049A1368043204926E
S214403820029A1A60FFF796BA01980099CDF820C020
S2144038300DAAFFF721FA00287FF41EAE0E990F9AC4
S214403840DDF820C0481C544691E548F020080BF1AE
S21440385001009BF80130FFF7B4BA6D420493584616
S214403860FFF7C6BB07980496FDF78EFF9DF82F50CE
S21440387081464FF0000CFFF76DBB01980099CDF8DC
S21440388014C00DAAFFF7F8F900287FF4F5AD0E999D
S2144038900F9ADDF814C0481C54468CE50E990F9AD2
S2144038A0154F0131FFF798BBBCF1060F28BF4FF00C
S2144038B0060C124B0496E1462CEAEC76079360E43D
S2144038C00E990D4F01F1010E18E6E1469DF82F5076
S2144038D004968446FFF73EBB86466BE6049A9BF802
S2144038E0013016680432002E0492BFF66AAA4FF0E2
S2144038F0FF36FFF766BA00BF9C83400080834000D7
S2144039002DE9F0420C46ADF58D6DB1F80CE0E76957
S214403910496EB4F80E9019911AAD4FF480662EF0A9
S214403920020E4FF0000C07976946676A00950495AB
S21440393002960596ADF80CE0ADF80E900997CDF8D6
S21440394018C00646FFF7D4F9051E07DB3046694621
S21440395001F00EF9002818BF4FF0FF35BDF80C30C7
S2144039605B0603D5A38943F04003A38128460DF5A3
S2144039708D6DBDE8F08200BF38B52F4B1B680546FD
S2144039800C4613B19A6B002A36D0A28993B2180718
S2144039900CD52069A8B113F001021ED0636900223D
S2144039A05B42A361A260F0B1002038BDD9063BD58A
S2144039B0580725D4206942F00803A3819BB200280B
S2144039C0E9D103F42072B2F5007FE4D028462146C0
S2144039D001F0D6FCA3892069DDE7990758BF6269E4
S2144039E0A2600028E0D1A3891A06DED543F0400342
S2144039F0A3814FF0FF3038BD184601F04DF9C4E7BB
S214403A00216B49B104F14003994203D0284601F0A6
S214403A101BFAA2890023236322F024020023206994
S214403A20636092B22060C6E742F0400209232B60F2
S214403A304FF0FF30A28138BD30040020024B13B156
S214403A40024800F005B8704700000000AD4C40004A
S214403A50014600200246034602F074BF02690B6925
S214403A60934200F38F802DE9F04F03F1FF3801F1C8
S214403A70140700F1140B57F828205BF828304FEA5B
S214403A80880483B00132B3FBF2F90BEB04030094D5
S214403A9007EB040A0193B9F1000F3BD000263246EB
S214403AA0BC46DE4634465CF8046BDEF80050B3B2E3
S214403AB0360C03FB094406FB09F606EB1446A3B294
S214403AC0D31AB4B213FA85F3C4EB154404EB23447B
S214403AD09BB243EA0443E2454FEA24424EF8043B95
S214403AE04FEA1644DFD2009B5BF8033093B9019C43
S214403AF0231F9B450CD254F8043C4BB9A4F1080351
S214403B0002E01A68043B1AB99B4508F1FF38F8D31F
S214403B10C0F81080044602F093FA00282EDB09F124
S214403B2001095D46002357F8041B28688AB29A1A92
S214403B30090C12FA80F2C1EB104303EB224391B218
S214403B4041EA0341BA4545F8041B4FEA2343EAD20B
S214403B505BF828200BEB880382B91A1F93450BD2DB
S214403B6053F8042C42B9083B02E01A68043B1AB9E1
S214403B709B4508F1FF38F8D3C4F81080484603B098
S214403B80BDE8F08F002070472DE9F04F016C97B0EC
S214403B900446239DCDE9022341B1426C4A6001238D
S214403BA093408B6002F068F800232364DDE902232B
S214403BB0002B994636DB00232B60A54B1A4609EAB4
S214403BC00303934217D0DDE90267002230463946A8
S214403BD0002303F0FBFB804600282BD0229A0123CB
S214403BE01360249B002B00F0CB809A481860013865
S214403BF017B0BDE8F08F229A42F20F731360029B13
S214403C00002B00F0A6809448249B002BF0D0C3786D
S214403C10002B00F0B78000F10803249A136017B019
S214403C20BDE8F08F039A012322F000492B60CDF8BF
S214403C300C90C2E715AA14AB8DE80C00204632461D
S214403C403B4602F08BFA5FEA1955834640F08A807D
S214403C50DDF85080159D6FF4826345449D42C0F266
S214403C6097827E4A521B09FA02F9029A05F21243DB
S214403C7022FA03F049EA000003F0CAF80123013DA6
S214403C80A1F1F8710D930022754B02F083FF6AA3F1
S214403C90D3E9002303F032F969A3D3E9002302F005
S214403CA07BFF064628460F4603F0C2F866A3D3E9D4
S214403CB0002303F023F902460B463046394602F00D
S214403CC06BFF06460F4603F0B3FB394604900022CE
S214403CD03046002303F084FB002840F0A681049B76
S214403CE0162B00F29F81049A5E4B03EBC203D3E986
S214403CF00001DDE9022303F091FB002800F04E822C
S214403D00049B013B049300230B93C5EB0805B5F1D8
S214403D10010A00F1A18100230593049B002BC0F209
S214403D2092819A440A9300230893209B092B2BD810
S214403D30052B40F37086043B20930025209B023BD6
S214403D40032B00F24E86DFE813F0CC03BE03B2022C
S214403D506306414B444AC9F31300002814BF184673
S214403D60104651E7C7F3130343F07F51CDF8348034
S214403D703046A5F2FF3541F44011DDF8508082E729
S214403D803A4835E7C31C48E7002161642046209145
S214403D9001F04CFF4FF0FF330693209A0C9301231B
S214403DA00790219220640993159B002BC0F2D28085
S214403DB0049A0E2A00F3CE802A4B03EBC203D3E9C3
S214403DC00089219B002BC0F28F83DDE902674246C3
S214403DD04B463046394603F0BBF903F029FB824692
S214403DE003F026F842464B4603F088F80B46024658
S214403DF03946304602F0CEFE079D0AF130032B705E
S214403E00069B012B06460F4605F1010562D00022AF
S214403E10174B03F073F80022002306460F4603F0C4
S214403E20D5FA002840F08380CDF808B00594DDF838
S214403E301CB0069C29E000BF61436F63A787D23F52
S214403E40B3C8608B288AC63FFB799F501344D33F44
S214403E500000F07F89834000B88340000EFCFFFFDF
S214403E600000F83FC8834000AC8340008883400091
S214403E700000244003F042F80022002306460F4686
S214403E8003F0A4FA002840F0DE8342464B46304614
S214403E90394603F05DF903F0CBFA824602F0C8FFDC
S214403EA042464B4603F02AF802460B463046394611
S214403EB002F070FE0AF1300E05F801EBCBEB050E72
S214403EC0744506460F464FF00002B54BD2D1DDF89A
S214403ED008B0059C32463B463046394602F05CFE0A
S214403EE006460F464046494632463B4603F078FA79
S214403EF048B94046494632463B4603F067FAB0B1B9
S214403F001AF0010F13D015F8018C07996B1E04E0C8
S214403F108B4200F0408413F8018DB8F1390F03F15D
S214403F2001051A46F4D008F10103DBB213702046AF
S214403F30594601F0A1FE0022049B2A70229A0133C2
S214403F401360249B002B00F0458307981D6017B034
S214403F50BDE8F08F099A002A00F08480209A012A52
S214403F6040F30483069B5F1E089BBB42C0F2A983B6
S214403F70DF1B069B002BC0F29C84059D069B059A82
S214403F8020461A44012105929A4401F00FFF064646
S214403F9065B1BAF1000F09DDAA45059A5346A8BF98
S214403FA02B46D21A0592ED1AC3EB0A0A089B002B41
S214403FB01ADD099B002B00F07D83002F10DD314673
S214403FC03A46204601F096FF06465A463146204677
S214403FD001F0F6FE59468046204601F04DFEC346A7
S214403FE0089BDA1B40F0A2822046012101F0DEFE4B
S214403FF00A9B002B804639DD01461A46204601F0D2
S21440400079FF209B012B804640F396824FF00009B3
S214404010D8F8103008EB8303186901F079FEC0F138
S21440402020002DE001230B936FE6049802F000FF7A
S21440403032463B4603F0CAF900287FF450AE049B54
S214404040013B04934BE6059A049BD21A5B420893C5
S214404050002305920A9368E6CAF1000305934FF0E1
S214404060000A5AE6089F059D099E91E7209B012B72
S21440407040F3B3824FF000090A9B002BC8D10120C1
S214404080504410F01F0000F08180C0F12003042B44
S21440409040F3B884C0F11C00059B034405930544D7
S2144040A08244059B002B05DD59461A46204601F002
S2144040B071FF8346BAF1000F05DD41465246204661
S2144040C001F068FF80460B9B002B40F06882069B01
S2144040D0002B40F39582099B002B71D1DDF81C9094
S2144040E0069F4D4602E001F0D1FD834641465846C4
S2144040F0FFF7B4FC00F1300C05F801CBC9EB050323
S214404100BB42204659464FF00A024FF00003EADB16
S214404110079B069A012AACBF9B1801331D464FF0F9
S214404120000A594601222046CDF808C001F032FF69
S2144041304146834601F084FF0028DDF808C040F37E
S214404140F68215F8012C07996B1E04E08B4200F0AE
S214404150738213F8012D392A03F10105F6D0013296
S2144041601A704146204601F087FD002E3FF4DFAE30
S214404170BAF1000F05D0B24503D05146204601F0B3
S2144041807BFD3146204601F077FDD0E61C2083E7D4
S214404190044B029A5B1B02FA03F06DE50B90B4E504
S2144041A000002440EEFBFFFF3146002320460A2253
S2144041B001F06CFD0C9B002B064640F30C840693E6
S2144041C0002D05DD31462A46204601F0E3FE064630
S2144041D0B9F1000F40F0E982B146069B079A013BD1
S2144041E0D3180893029B03F00103099317464146F0
S2144041F05846FFF733FC31460546584601F020FF47
S2144042004A4682464146204601F03EFFC268034683
S21440421005F1300C002A40F0B88119465846CDF8D2
S21440422018C0059301F00CFF059B029019462046E6
S21440423001F022FD029ADDF818C02AB9209B1BB96E
S214404240099B002B00F0A783BAF1000FC0F2518201
S21440425005D1209B1BB9099B002B00F04A82002AFF
S21440426000F3B782089B87F800C007F1010A9F4217
S214404270554600F0BA8259460A220023204601F0ED
S21440428005FD4E458346314620464FF00A024FF024
S214404290000300F0748101F0F9FC494606460A2204
S2144042A02046002301F0F2FC574681469FE7012353
S2144042B00993219B002B40F313821F461E460C9306
S2144042C006930021172F61640AD9012204235B005C
S2144042D003F114008742114602F10102F7D26164ED
S2144042E0204601F0A3FC0E2E079020643FF65CADFE
S2144042F0002D3FF459ADDDE9022304990029CDE9AC
S2144043000E2340F32182B74B01F00F020D1103EB51
S214404310C203E906D3E9006740F1DB81B24BDDE931
S2144043200E01D3E9082302F013FFCDE9020105F0A0
S2144043300F054FF003088DB1DFF8AC923046394692
S214404340EA0705D5D9E9002308F1010802F0D6FDB1
S2144043506D1009F10809F3D106460F46DDE9020162
S21440436032463B4602F0F4FECDE902010B9B43B1D8
S214404370DDE9020100229D4B03F032F8002840F0B0
S214404380AC82404602F054FDDDE9022302F0B6FD61
S214404390974B002202F000FC069B0646A1F15077A0
S2144043A0002B00F06281049BDDF818901293099B65
S2144043B0002B00F021828B4B8E4903EBC90353E957
S2144043C00223002002F0C4FE32463B4602F0E2FBE7
S2144043D0DDE90267CDE910013946304603F028F89A
S2144043E0054602F025FD303502460B463046394636
S2144043F002F0D0FB5FFA85F8079DDDE9102385F8CB
S214404400008006460F46013502F0EAFF002840F0DD
S214404410B28232463B460020744902F0BBFB02465D
S2144044200B46DDE9100102F0F9FF002840F0AC82AF
S214404430B9F1010F40F33881079BCDF84CA0CDF879
S21440444008B09944DDE910ABA0460DE0002067496E
S21440445002F0A0FB52465B4602F0C2FF002840F046
S2144044608E824D4500F01B81504659460022624BD5
S21440447002F044FD0022604B82468B463046394669
S21440448002F03CFD0F46064602F0D2FF044602F01C
S214404490CFFC02460B463046394602F07BFB3034B2
S2144044A0E4B252465B4605F8014B06460F4602F01C
S2144044B097FF32463B460028C8D0129BDDF808B02E
S2144044C00493444633E500230993219B049A1344FE
S2144044D00C930133002B069340F30981069E374622
S2144044E0EFE600230993E4E6069B002B3FF76DAC0E
S2144044F040F0628240460022404B494602F0FEFCB5
S214404500DDE9022302F080FFDDF8188046460028E9
S21440451000F08A80219B079DDB430493414620465A
S21440452001F0AAFB002E7FF42CAE00E5594620464B
S21440453001F0E0FC834657E5029B002B7FF466AD16
S214404540039BC3F31303002B7FF494AD039B23F02C
S21440455000473F0D3F05002F00F01A82059B0133B0
S21440456005930AF1010A4FF0010985E50D9A002AE4
S21440457000F0A58103F23343089F059DFFE401F058
S21440458085FB57460646814631E601462046CDF82D
S21440459008C001F071FB0122DDF808C054E6584619
S2144045A0414601F04DFD0028BFF691AD049F5946A7
S2144045B0002320460A22013F049701F067FB099B2F
S2144045C08346002B7FF4F0AD0C9B002B40F3F88124
S2144045D0069383E50798FFF70BBB029B002B7FF4FF
S2144045E049ADADE7C8834000A08440000000F03FDE
S2144045F000001C400000E03F000024400000144043
S214404600209B022B7FF767AD069B002B82D141464D
S2144046100522204601F03AFB80464146584601F0C6
S2144046200FFD00287FF776AF049A079931230132B1
S21440463004920B704D1C71E7049A01320492079A5B
S214404640312313708DE5DDF808B0059C6FE44046D5
S21440465002F0EEFBDDE9022302F050FC0022BC4BE8
S21440466002F09AFA0646A1F15077DDE902010022EF
S214404670B84B02F08FFA32463B46CDE9020102F0D3
S214404680CDFE8046002840F0B380324607F1004316
S214404690DDE9020102F0A4FE30B146463AE7DDF815
S2144046A04CA0DDF808B04446DDE90E23CDE90223F0
S2144046B0FFF77ABB5946089A204601F01BFC834612
S2144046C092E4089B0A9A0897FB1A1A440A92002713
S2144046D04FE4DDE90E234FF00208CDE902232AE637
S2144046E0012621960C96069600216164F8E51E4642
S2144046F0FAE7002A15DD594601222046CDF808C0C3
S21440470001F048FC4146834601F09AFC0028DDF85B
S21440471008C040F34A81BCF1390F00F006810CF125
S214404720010CB24687F800C07D1C4E4619E504D100
S2144047301CF0010F01D004E5154615F8013C302B5E
S21440474005F1FF32F8D00CE5049B5D42002D00F0E9
S214404750BD80814B05F00F0203EBC203D3E9002373
S214404760DDE90E0102F0CAFB2D11CDE9020100F091
S2144047702C817A4E4FF00208EB0705D5D6E9002388
S21440478008F1010802F0BAFB6D1006F10806F3D1F5
S214404790CDE90201EAE5049A01320492079A3023F1
S2144047A0137031231370FFF7C2BB7168204601F0C7
S2144047B03DFA33699A1C0546920006F10C010C300E
S2144047C001F032F920462946012201F0E3FB8146FA
S2144047D003E5BCF1390F00F0A8800CF1010CB2469D
S2144047E087F800C07D1C4E46BBE4B2464E4698E471
S2144047F04FF00008464617E7574909F1FF3301EBEB
S214404800C30132461393D1E900013B4602F076FBE2
S214404810DDE90267CDE910013946304602F008FE70
S214404820054602F005FB02460B463046394602F086
S214404830B1F9079A3035B9F1010F157006460F46A3
S21440484002F1010523D0079BCDF808A04B445E46F5
S2144048509A46AB460022424B02F050FB89468046C1
S21440486002F0E6FD074602F0E3FA303702460B4612
S2144048704046494602F08EF90BF8017BD345E9D114
S214404880139BDDF808A0B3460F4606461D4400229B
S214404890344BDDE9100102F07FF932463B4602F028
S2144048A09FFD002847D0129B049315F8018CFFF714
S2144048B02CBB059B069A9D1A0023FFF760BB149BF2
S2144048C0089F059DC3F13603FFF759BBDDE90E236C
S2144048D04FF00208CDE9022348E5069B002B3FF443
S2144048E0B6AE0C9D002D7FF7DFAE00221C4BDDE9F7
S2144048F0020102F003FB06460F4608F10100CDE92F
S214404900026702F095FA02460B463046394602F0F8
S214404910F5FA0F4B002202F03FF9049B013B064696
S214404920A1F150771293A94641E53922B2463A7032
S2144049304E467D1C07E4DDE910230020094902F0BD
S21440494029F932463B4602F069FD70B9ACE600BF35
S21440495000001C4000001440C8834000A084400073
S214404960000024400000E03F154615F8013C302B7F
S21440497005F1FF32F8D0129B0493FFF7D8BA4346AE
S214404980DDF808B0A0461C46129B0493FFF7BDBA5C
S214404990B946FFF771BBBCF1390FC6D0BAF1000F6C
S2144049A07FF7BFAE05F1310CBBE67FF4BAAE1CF024
S2144049B0010F3FF4B6AEAEE64FF000084646A9E516
S2144049C0209B022B04DC0C9B02E64FF00208CDE451
S2144049D00C9B069318E6209B022BF9DC0C9BFFF7FA
S2144049E0EEBB002565642946204601F01FF94FF0CE
S2144049F0FF3306930C930123079021952064099377
S214404A00FFF7D2B93FF44DABC0F13C00FFF744BBD3
S214404A100123099359E50125FFF790B98B899AB28E
S214404A202DE9F0410D46110780463CD46A6843F4B0
S214404A300063002AAB8165DDAE6A002E4BD09BB288
S214404A4003F48052002192B2D8F80040C8F8001013
S214404A50002A5BD02A6D5F0705D569682B6B521A12
S214404A600BB1EB6BD21A4046E9690023B047461CAF
S214404A7056D0AB892A692A6023F400639BB2002291
S214404A806A60DA04AB813BD4296BC8F8004011B3A6
S214404A9005F14003994202D0404600F0D5F9002087
S214404AA02863BDE8F0812E69AEB12C682E60910770
S214404AB00CBF6B690023A41BAB600AE0324623465A
S214404AC06F6AE9694046B8470028A4EB00040644EC
S214404AD004DD002CF2DC0020BDE8F081AB8943F019
S214404AE04003AB814FF0FF30BDE8F081AB892A69C7
S214404AF0696023F400639BB2AB81DB042A60C3D5B4
S214404B002865C1E7EA6B002A96DCE4E701234046C5
S214404B10E969B047431C024619D0AB89AE6A9AE7AA
S214404B20D8F800100029E1D01D2907D0162905D055
S214404B30AB8943F04003AB81BDE8F081AB892A697D
S214404B402A6023F400630022AB816A609CE7D8F8B1
S214404B500030002BE1D01D2B07D0162B05D0AB899B
S214404B6043F04003AB81BDE8F081C8F80040B2E7AF
S214404B7010B5044682B008B1836B53B1B1F90C004E
S214404B8008B902B010BD204602B0BDE81040FFF79D
S214404B9045BF019100F080F80199EFE7014900F028
S214404BA0B7BB00BF6D6A40002DE9F04F354B4568F6
S214404BB0C3630024074600F53B7204230321C0F874
S214404BC0E412C0F8E822C0F8E04283B02C606C6083
S214404BD0AC606C66EC812C616C61AC61AB8121464B
S214404BE005F15C000822FCF7A1FCBE68DFF898B02F
S214404BF0DFF898A0DFF89890DFF89880C5F820B0E6
S214404C0001230922C5F824A0C5F82890C5F82C80B1
S214404C10ED612146F381B28106F15C003460746038
S214404C20B460746634617461B46108220193FCF721
S214404C307DFCFD68F66112200222C6F820B0C6F858
S214404C4024A0C6F82890C6F82C802146A881EA8180
S214404C502C606C60AC606C662C616C61AC6105F17C
S214404C605C000822FCF762FC019BED61C5F820B0B1
S214404C70C5F824A0C5F82890C5F82C80BB6303B0BF
S214404C80BDE8F08F9D4B40007D664000A166400029
S214404C90D9664000F9664000836B03B17047FFF762
S214404CA083BF00BF704700BF704700BF38B5084B92
S214404CB0084DED1AAC1018BFED1805D0013C55F85C
S214404CC0043D9847002CF9D1BDE8384003F006BCB7
S214404CD0E8844000EC8440002DE9F04182B007466D
S214404CE00E46144600F042FB012841D0384601A942
S214404CF0324604F15C0301F0D9FDB0F1FF3F804637
S214404D002FD000283CD09DF80410002509E02368E9
S214404D1019702368013323600135A84530D901ABAB
S214404D20595DA368013B002BA360F0DAA269934269
S214404D3007DB23681970236819780A2903F10103F1
S214404D40E9D13846224601F05DFDA0F1FF30B0FAC9
S214404D5080F040090028DFD04FF0FF3002B0BDE8B9
S214404D60F081A38943F04003A38102B0BDE8F081FF
S214404D70731EFE2BBAD8F1B280468DF80410C4E7F5
S214404D80304602B0BDE8F081938913F4005F0BD142
S214404D9010B4546E43F4005344F400545466938164
S214404DA05DF8044BFFF798BFFFF796BFF8B5234F63
S214404DB00C46064600F036FFBB685D6825F00305E6
S214404DC0291B01F6EF7121F47F6121F00F01A1F557
S214404DD08054B4F5805F07DB3046002101F03CFC90
S214404DE0BB682B44984204D0304600F01DFF00209C
S214404DF0F8BD3046614201F02FFC01300DD0104B1B
S214404E00BA6819682D1B45F001053046091B5560E8
S214404E10196000F009FF0120F8BD3046002101F07E
S214404E201BFCBA68831A0F2BDEDD064C0449246847
S214404E3043F00103001B53600860D5E79004002050
S214404E40080D00209C08002000294ED02DE9F04196
S214404E500C46804600F0E6FE54F8047C624927F093
S214404E600102A4F10805AB188E6858689E4220F0EF
S214404E7003005AD0FE0758600BD454F8087CED1B4C
S214404E8001F1080EAC6874453A4467D0EF68E760B5
S214404E90BC601C186468E4070CD4544F9C68BC4241
S214404EA002447CD0D868E06042F0010384606B60C6
S214404EB0AA5003E042F001036B60AA50B2F5007FAF
S214404EC014D2D20801EBC20348689F68AF609210C4
S214404ED0012404FA02F21043EB6048609D60FD60D6
S214404EE04046BDE8F04100F09FBE7047530A042B91
S214404EF047D8930903F13804600001EB80003A4933
S214404F008368834243D0596821F00301914202D915
S214404F109B689842F7D1DA68EA60AB604046956095
S214404F20DD60BDE8F04100F07FBEFF07024407D4D5
S214404F3054F8083CED1A1A44A868EB68C3609860B9
S214404F402B4B1B6842F001009A4268608D60C7D3C5
S214404F50284B40461968FFF729FFC1E719184968EA
S214404F60C90709D4D9689B68024442F00100D96059
S214404F708B606860AA50B3E742F001036B60AA50AA
S214404F80AEE7142B14D803F15B046000B5E74A681B
S214404F90A4100120A04002434A601A46BCE742F0F3
S214404FA001034D610D61EC60AC606B60AA5097E701
S214404FB0542B04D8130B03F16E0460009DE7B3F541
S214404FC0AA7F04D8D30B03F17704600095E740F23C
S214404FD05450834204D8930C03F17C0460008CE761
S214404FE0FC207E2489E700BF90040020980400201F
S214404FF098080020040D00209368002B7AD02DE9F5
S214405000F04FB1F80CE01EF0080F83B00C46814616
S214405010164626D00B6923B30EF002081FFA88F016
S214405020356870B34FF0000ADFF8E0B2D046D84596
S2144050304346524628BF5B464846B8F1000F53D019
S214405040E169676AB847002873DDB3681B1A824473
S214405050C0EB0808B360002BE9D1002003B0BDE8E0
S214405060F08F48462146FEF787FC002840F04581F1
S214405070B4F80CE035680EF002081FFA88F00028F5
S214405080D0D11EF0010B5DD1D846B8F1000F25D027
S2144050901EF4007FA7682FD0B845BA46C0F0A98056
S2144050A01EF4906F40F0B68020685246594600F095
S2144050B055FDA0682268C01B02EB0A03A06023606F
S2144050C04046B3681B1A8344C0EB0808B360002B05
S2144050D0C3D0B4F80CE0B8F1000FD9D1D5F800B081
S2144050E0D5F804800835D0E7D5F800A0D5F8048078
S2144050F008359CE70020704720682369984203D80B
S2144051006269904580F0B980474528BF47463A4691
S214405110594600F023FDA3682268DB1B3A44A3608F
S2144051202260002B4AD148462146FFF721FD002841
S21440513044D0A38943F040034FF0FF30A38103B02F
S214405140BDE8F08F8046009083468246BAF1000F55
S2144051502CD0009B002B50D020682169D4F808E062
S2144051606269D045434628BF534688421F4604D905
S2144051700EEB020C634500F39280934220DB13460D
S214405180676AE16948465A46B847071ED1DDB8EB1C
S214405190070825D0B368DB1BBB44C7EB0A0AB360DD
S2144051A0002B3FF45AAFBAF1000FD2D10023D5F806
S2144051B000B0D5F804A000930835C7E7384680E726
S2144051C01A465946019300F0C9FCA2682168019B23
S2144051D0B8EB0708A2EB03020B44A2602360D9D1C8
S2144051E048462146FFF7C4FC0028A2D1CDF80080EF
S2144051F0D0E720684746C24657E758460A215246F7
S21440520000F0C8FB002873D001300123CBEB000828
S2144052100093A1E767692169236807EB47075B1A94
S21440522007EBD777581C7F10404487423A463CBF2E
S21440523007463A461EF4806F009346D011464846CD
S21440524000F016F9009B8246002859D01A4621697C
S214405250009300F0E9FBA289009B22F4906242F0A2
S2144052608002A2810AEB0300FB1AC4F810A0676113
S2144052702060A3604746C24617E76FF000434345A9
S21440528028BF4346676A93FBF2F3484603FB02F3A4
S214405290E1695A46B84700283FF713AF49E76246E8
S2144052A05946CDF804C000F059FC2368DDF804C028
S2144052B06344236048462146FFF75AFCDDF804C0A5
S2144052C000287FF436AF674661E7484600F0A2FF05
S2144052D0009B82460028C5D148462169FFF7B4FDA9
S2144052E0A3890C2223F080039BB2C9F8002021E753
S2144052F001230AF1010800932EE74FF0FF30ADE698
S2144053000C23C9F80030A38914E700BF00FCFF7FD8
S2144053102DE9F84310F538771FD0884606464FF0FB
S21440532000097D68BC68013D11D4A389012B05F1B5
S214405330FF3508D9B4F90E3001332146304602D045
S214405340C04749EA00096B1C04F16804EDD13F6888
S214405350002FE6D14846BDE8F883B9464846BDE842
S214405360F88300BF004870476C040020014B186863
S214405370704700BF8C04002000487047340400206B
S2144053808B899AB212F0020F3CD1F0B50C46B1F9B7
S2144053900E10002991B0054619DB01AA01F0A8FBC2
S2144053A0002812DB029B03F47043B3F5004FA3F5CD
S2144053B00057B7FA87F74FEA57172AD0A38943F41E
S2144053C00063A3814FF480660BE0A3899AB212F083
S2144053D0800F43F40063A3810CBF4FF480664026E1
S2144053E000272846314600F043F8A38940B31A4ABE
S2144053F0EA6343F08003A3812060206166619FB921
S21440540011B0F0BD01F1430301220B600B614A610C
S2144054107047124BA26A9A42D0D1A3894FF4806655
S2144054203343A381E664DCE72846B4F90E1001F066
S21440543073FB0028E4D0A38943F00103A381DFE790
S2144054409A05DDD404F1430243F002030121A3810F
S214405450226022616161D3E79D4B4000D9664000DF
S214405460024B0146186800F003B800BF3004002025
S2144054702DE9F04F01F10B05162D83B0064627D9CE
S21440548035F0070500F1B680A94200F2B38000F07F
S214405490C9FBB5F5FC7F22D2C24FE80807EBC00334
S2144054A0DC689C4200F0C8816368E168A56823F028
S2144054B00303234430465A68E96042F001028D6097
S2144054C05A6000F0B1FB0834204603B0BDE8F08FC8
S2144054D0102900F28F8000F0A5FB1025DCE7680A53
S2144054E000F08F80042800F25481A809383041002B
S2144054F0AC4F07EB8101CC68A14206D10CE0002AF4
S21440550080F28280E468A14206D0636823F00303F9
S2144055105A1B0F2AF3DD01380130A2493C6901F1DC
S214405520080E744500F07D81636823F003035A1B20
S2144055300F2A00F36381002AC1F814E0C1F810E096
S21440554073DAB3F5007F80F03981DB0801EBC308DE
S2144055504FEAA30C4A68D8F80890C4F8089001238C
S21440556003FA0CF31343C4F80C804B60C8F80840A9
S214405570C9F80C408210012494409C4262D82342D1
S21440558006D120F003006400234200F10400FAD064
S21440559007EBC008C4468146DCF80C309C4507D172
S2144055A041E1002980F25181DB689C4500F03B8157
S2144055B05A6822F00302511B0F29F2DD1C46D3F82D
S2144055C00CC054F8088F5A1945F0010941F00105FE
S2144055D0C3F804903046C8F80CC0CCF808807A610E
S2144055E03A61C2F80CE0C2F808E05560515000F04D
S2144055F01BFB69E700240C232046336003B0BDE85C
S214405600F08F7E213F2073E72344E1685A68A568FF
S21440561042F00102E96030468D605A6000F004FBBB
S2144056200834204603B0BDE8F08F234430465A681D
S21440563042F001025A6000F0F7FA0834204603B000
S214405640BDE8F08FBC68636823F00308454504D87E
S214405650C5EB08030F2B00F38C80534BDFF858A1A3
S2144056601A68DAF8003001332A4404EB080B00F0DD
S214405670508102F580520F3222F47F6222F00F02F0
S21440568011463046019200F0E7FFB0F1FF3F8146F9
S214405690019A00F04781834500F2EE80434B19683B
S2144056A0CB451144196000F04281DAF80000DFF87B
S2144056B008E101301BBFCBEB090B5944CEF80090F4
S2144056C0196019F0070100F00781C1F10800C1F523
S2144056D08051814408314A44C2F30B02C2EB010AAE
S2144056E051463046019300F0B7FF431C019B00F043
S2144056F02C81C9EB0002524442F001021968C7F8F7
S21440570008905144BC42C9F804201960DFF89CA0B8
S21440571016D0B8F10F0F40F2EE806268A8F10C0385
S21440572023F00703E01802F001024FF0050E1A437B
S2144057300F2B6260C0F804E0C0F808E000F2098170
S2144057401B4BBC681A68914288BF1960194B1A688F
S2144057509142626888BF196022F003029542A2EB2C
S214405760050301D80F2B04DC304600F05DFA002418
S214405770AAE6621943F0010345F00105656030462C
S214405780BA60536000F050FA0834204603B0BDE8D3
S214405790F08F142868D9542800F29780280B6E3072
S2144057A04100A5E690040020040D0020080D0020CE
S2144057B0000D0020FC0C00209C0800205A0A042AF9
S2144057C055D9142A00F2A7805B324FEA420C07EB09
S2144057D08C0CDFF8BC81DCF8081061457FD04A6845
S2144057E022F00302934202D289688C45F7D1CA68F8
S2144057F07B68E260A1609460CC60BBE6631942F0CF
S214405800010745F00105656030464B610B61C3F802
S2144058100CE0C3F808E05F609A50083400F004FAE1
S21440582052E64B68A6E609F1010919F0030F0CF1A0
S214405830080C7FF4B1AE2CE004F108036469A3427F
S21440584008BF02303FF469AE2EE61A441C46516843
S214405850DB6854F8085F41F0010151603046EB6068
S2144058609D6000F0E1F92FE65B30410040E69A0982
S21440587038324FEA420CAAE7BC42454B3FF40EAFE3
S2144058809C68626822F0030268E7D8F80080984572
S2144058907CD110F0030FA8F1080300F1FF30F4D1DB
S2144058A07B6823EA04037B6064009C423FF6CAAEF2
S2144058B0002C3FF4C7AE234248467FF469AE6400EE
S2144058C0234200F10400FAD062E6B0F5AA7F18D869
