:020000040040BA
:10000000503D0020B1144000AD144000AD1440003C
:10001000AD144000AD144000AD14400000000000DD
:10002000000000000000000000000000AD144000CF
:10003000AD14400000000000AD144000AD144000BD
:10004000AD144000AD144000AD144000AD144000AC
:10005000AD144000AD144000AD144000AD1440009C
:10006000AD144000AD144000000000008D0F4000B2
:10007000A10F4000B50F4000AD144000AD1440008A
:100080000000000000000000AD144000AD1440006E
:10009000AD144000AD144000AD1440007118400094
:1000A000AD144000AD144000AD144000AD1440004C
:1000B000AD144000AD144000AD144000AD1440003C
:1000C000AD144000AD144000AD14400010B5054C17
:1000D000237833B9044B13B10448AFF300800123F4
:1000E000237010BD8C080020000000003C7640000A
:1000F000084B10B51BB108480849AFF30080084809
:10010000036803B910BD074B002BFBD0BDE81040BE
:10011000184700BF000000003C7640009008002017
:100120003C7640000000000010B48901431802240E
:1001300044504FF0FF319962196A5A605DF8044BE0
:10014000704700BF890105234350704700EB8111C0
:10015000CA61704700EB81114A62704700EB811160
:10016000086A704710B50E480E4B984700203E2194
:100170000D4B98470D4CA0470028FCD00C4B9847DE
:100180000C4A0D4B9A620D4CA0470028FCD0102061
:100190000B4B98470B4B98470148024B984710BDB3
:1001A000000E2707751640003110400085104000F2
:1001B00095104000013F132000040E40A5104000A0
:1001C000C90F400061154000A8B92DE9F0410C4667
:1001D0009046002A0ADD8F18084E094D30682146E6
:1001E0002B6898470134BC42F8D101E04FF0000879
:1001F0004046BDE8F0814FF0FF307047340D0020DD
:100200002C0D00200138022818D82DE9F0410E46A7
:10021000144682B10D46DFF838800C4FD8F8000044
:1002200015F8011B3B68984700280ADBA81B013C16
:10023000F4D1BDE8F0810020BDE8F0814FF0FF303F
:1002400070474FF0FF30BDE8F08100BF300D002057
:10025000340D002038B54FF40042244B5A600B2077
:10026000234CA0470C20A0470D20A04713204FF09F
:100270006051204CA04714204FF06051A04723202C
:100280001D49A0474C201D49A0471D484FF4C0619F
:100290004FF000621B4B98471B4D40202946A0475A
:1002A00041202946A04742202946A047432029460D
:1002B000A04744202946A04745202946A04746207C
:1002C0002946A04747202946A0474B202946A0475A
:1002D00048202946A0474F202946A04753202946B9
:1002E000A0474D204FF04051A04738BD50140E405C
:1002F000C1104000E50C400079000028590000289A
:10030000000E0E40090E40000100000870B483B0DA
:10031000C0F11100102828BF1020002808BF0120BC
:100320000021104E4FF40055182475630194019B71
:100330005A1E0192002BFAD135630194019B5A1E7B
:100340000192002BFAD101318142EED34FF40033F8
:100350000193019B5A1E0192002BFAD103B070BC8D
:10036000704700BF00120E4082B04FF40052064B9F
:100370005A634FF400330193019B5A1E0192002BE4
:10038000FAD102B0704700BF00120E400A4B1B7832
:10039000012B06D14FF0C24300221A7022221A709C
:1003A0007047022B07D14FF0C2432C221A70002253
:1003B0001A703C221A707047680C0020C0F3074284
:1003C000034B1A70C0F307221A70C0B2187070473E
:1003D000020000612DE9F8430746884631F007091D
:1003E00018D004460026124D57F82600A84760682A
:1003F000A847A068A847E068A8472069A84760699F
:10040000A847A069A847E069A847083620344E45A8
:10041000EAD300E00026B04508D907EB8604044D76
:1004200054F8040BA8470136B045F9D8BDE8F88365
:10043000BD0340004FF0C24300221A7018700A0A30
:1004400002331A70C9B21970704700BF10B44FF070
:10045000C24300241C7018704AB14B1E501E51FA42
:1004600080F1044813F8012F02708B42FAD15DF835
:10047000044B70470200006182B000230193019B8E
:10048000984211D90021094A0191019B934205D854
:10049000019B01330193019B9342F9D9019B0133E5
:1004A0000193019B8342EFD302B070479F86010006
:1004B00030B4154C24680568A54224BF04F1FF350B
:1004C00005601568AC429CBF04F1FF3414600F4C0A
:1004D00024680D68A54224BF04F1FF350D601D6836
:1004E000AC429CBF04F1FF341C6004681568AC4248
:1004F00084BF056014600A681868824284BF08607F
:100500001A6030BC704700BF0400002008000020C3
:1005100082B04FF0C24300221A70D3221A70023305
:100520001A788DF800201A788DF801201A788DF845
:1005300002201B78DBB28DF80330D2B203EB02232A
:100540009BB249F24132934204D102220E4B1A70FF
:10055000002017E04FF0C24300221A701A700233D5
:100560001A788DF800201B78D2B203EB02239BB2DD
:1005700049F22532934204D10122034B1A70002024
:1005800000E0012002B07047680C002008B5094B5C
:100590001B78012B05D1072040F23311064B9847F9
:1005A00008BD022B04D1292000210A46034B98479D
:1005B00008BD00BF680C0020350440004D04400019
:1005C000044A131F02F56F7243F8040F9342FBD1E4
:1005D000704700BFA80800202DE9F04182B00C460A
:1005E00017461E46224B1B78012B14D185B2502092
:1005F0002946DFF88480C047791E2944512089B2FA
:10060000C047A4B252202146C047711E2144532046
:1006100089B2C04728E0022B26D1030A8DF80430A6
:10062000C3B28DF80530013A1044000A8DF8060077
:1006300017461F448DF807702A2001A904220D4D8A
:10064000A847230A8DF80430E3B28DF80530721EF6
:100650001444240A8DF8064016461E448DF807609F
:100660002B2001A90422A84702B0BDE8F08100BFF9
:10067000680C00204D0440003504400038B5064B9E
:100680001B78012B07D10C4601462020034DA847BB
:1006900021202146A84738BD680C002035044000C1
:1006A0002DE9F04383B00646AC4B9847002840F054
:1006B0004F81F022AA4B1A604FF4A072A94B1A6026
:1006C000A94B1B78012B40F0B18007203321A74CA8
:1006D000A04710200021A04700200121A0470120B1
:1006E0004FF48071A04702204FF4E061A04704203E
:1006F0000021A047082040F20721A047092000213F
:10070000A0470A200021A0470C200021A0470D206F
:100710000021A0470F200021A04710200021A04762
:1007200011200021A04712200021A0471320002102
:10073000A047C8208E4DA847102041F29021A04725
:10074000112040F22721A0473220A84712201B2168
:10075000A0473220A84713204FF48851A0472920F2
:100760001921A0472B200D21A0473220A847302077
:100770000021A04731204FF40171A04732204FF4EF
:100780000071A04735200721A047362041F20441DF
:10079000A047372040F20571A047382040F20531CC
:1007A000A047392040F20771A0473C2040F2017178
:1007B000A0473D200E21A04703204DF21001A04785
:1007C00060204FF42741A04761200121A0476A2003
:1007D0000021A04780200021A04781200021A047C0
:1007E00082200021A04783200021A04784200021EF
:1007F000A04785200021A04790201021A0479220EB
:100800004FF4C061A04795204FF48871A0470020A5
:10081000014632687368574CA047B068564B9847FA
:1008200000200146554B9847002094E0022B40F0F1
:10083000918039238DF800302C238DF8013000246D
:100840008DF8024034238DF8033002278DF80470B0
:10085000CB20694605224A4DA8478DF80040AA23BF
:100860008DF80130B0238DF80230CF206946032285
:10087000A84730238DF80030F72069460122A847A9
:1008800025238DF80030C02069460122A8474FF08B
:1008900011098DF80090C12069460122A8475C2308
:1008A0008DF800304C238DF80130C52069463A465A
:1008B000A84794238DF80030C72069460122A84735
:1008C00085238DF800304FF001088DF801807823E2
:1008D0008DF80230E82069460322A8478DF80040D1
:1008E0008DF80140EA2069463A46A84748238DF82A
:1008F0000030362069464246A84706238DF800306E
:100900003A2069464246A8478DF8007082238DF848
:10091000013027238DF802308DF80340B620694658
:100920000422A8472046214632687368114FB84711
:10093000B068114B9847484669462246A8470A20A6
:100940000B4B9847292069462246A847204602E0DB
:10095000012000E0012003B0BDE8F0831105400054
:100960000400002008000020680C0020350440002E
:1009700079044000D9054000C10540007D064000D3
:100980004D04400010B5164B1B68834221D9154B0E
:100990001B688B421FD9144B1B78012B0BD180B2E3
:1009A00089B2124B9847124B9847124B1868124B5A
:1009B0009847002010BD022B0FD1002213460F4C88
:1009C000A0470B4B98470B4B18680B4B98470020E0
:1009D00010BD012010BD012010BD002010BD00BFC2
:1009E0000400002008000020680C00207D06400064
:1009F0008D034000A8080020BD034000D905400039
:100A00002DE9F04184B0039002910192009303A874
:100A100002A901AA6B46224CA047039D029C0199A2
:100A20004A1C00994B1C28462146521B1B1B1D4C7F
:100A3000A047BDF80C00BDF808101B4B98471B4B96
:100A40009847029A009B9A1A019B03F10108039BA5
:100A5000C3EB080802FB0888154CA4FB0834E40922
:100A600007D0144FF026144D38463146A847013CB4
:100A7000FAD10F49A1FB0831C909C1EB01110D4899
:100A8000A8EB01110C4B9847002001460B4B1A684C
:100A90000B4B1B68034CA04704B0BDE8F08100BFBE
:100AA000B1044000D90540007D0640008D034000A0
:100AB00089888888A8080020D50340000400002009
:100AC000080000202DE9F04F85B0039002921378C2
:100AD000002B46D08B460190DFF890900A2B04D172
:100AE0000BF1100B039B019335E003EB83031E4EC8
:100AF00006EB8303A3F27F26019A13460A33009381
:100B00009046072437460BEB040A3D4616F8013C95
:100B1000234113F0010F03D04046C4EB0A01C8473C
:100B2000013CB4F1FF3FF0D107240BF10F072B7804
:100B3000234113F0010F02D04046391BC847013C46
:100B4000012CF4D1023608F10108009B9845D8D158
:100B5000019B0C330193029A12F8013F0292002B81
:100B6000BCD105B0BDE8F08FBC6C400085094000E9
:100B700009014250704700BF00EB01114A60704705
:100B800000EB01118A60704700EB0111CA607047E9
:100B9000C0F8841052004FF40043B3FBF2F2013A64
:100BA000C2F30D02C0F88C20704700BF016370478C
:100BB000416370474264B1F1C05F2FD007D8B1F1F3
:100BC000006F14D0B1F1805F1ED039B97047B1F118
:100BD000205F37D004D8B1F1005F29D04260704760
:100BE000B1F1405F2ED0B1F1605F2BD0F6E710B4C9
:100BF000016F046FD343214019400167416F446F77
:100C000021400B4043671AE0036F13430367436FB0
:100C1000416F0B4023EA02034367DFE7036F016F75
:100C20000B4023EA02030367436F13434367D5E78F
:100C3000036F13430367436F13434367CEE7426079
:100C40005DF8044B704700BF416412F0010F14BF00
:100C50004166016612F00A0F14BF0162416212F090
:100C6000020F02D0C0F8801004E012F0080F18BF85
:100C7000C0F8841041610160704700BF10B4416446
:100C8000019C0CB1416600E001660BB1016500E01A
:100C900041650AB1016300E04163016101605DF8F3
:100CA000044B704712F0100F10D0C0F8B01012F0C3
:100CB000200F14BFC0F8D410C0F8D01012F0400FAD
:100CC00014BFC0F8C010C0F8C4107047C0F8B4100A
:100CD000704700BFC36C0164704700BFC06C7047B1
:100CE000806C704770B582B00D46430903F5001360
:100CF00003F207735C0201F0F043B3F1005F47D0E9
:100D000009D8B3F1805F21D0B3F1C05F2FD0B3F128
:100D1000006F6FD109E0B3F1405F55D0B3F1605F70
:100D200052D0B3F1205F44D064E000F01F000126F0
:100D3000864020464FF000613246304B984715F010
:100D4000010F14BF66662666012054E000F01F0004
:100D50000126864020464FF080513246274B984767
:100D600015F0010F14BF66662666012043E000F00F
:100D70001F000126864020464FF0C05132461F4BCF
:100D8000984715F0010F14BF66662666012032E011
:100D900000F01F000126864020464FF000513246E9
:100DA000164B984715F0010F14BF666626660120A2
:100DB00021E000F01F030126204606FA03F12A462F
:100DC0000F4B9847304616E000F01F03012605F050
:100DD000605205EA06010091204606FA03F1B2F1DD
:100DE000605F14BF00220122C5F38003054CA047B9
:100DF000304600E0002002B070BD00BFB50B4000DF
:100E0000490C40007D0C400070B582B006460D468E
:100E1000144602F0F043B3F1005F38D009D8B3F1C3
:100E2000805F1CD0B3F1C05F25D0B3F1006F50D10B
:100E300009E0B3F1405F3AD0B3F1605F37D0B3F16E
:100E4000205F30D045E04FF000612A46224B9847A2
:100E500014F0010F14BF7566356601203AE04FF0BB
:100E600080512A461C4B984714F0010F14BF756639
:100E7000356601202EE04FF0C0512A46164B9847A8
:100E800014F0010F14BF75663566012022E04FF0A3
:100E900000512A46104B984714F0010F14BF756695
:100EA0003566012016E00D4B9847012012E004F052
:100EB000605204F00103009330462946B2F1605FAE
:100EC00014BF00220122C4F38003054CA047012077
:100ED00000E0002002B070BDB50B4000490C40009E
:100EE0007D0C40002DE9F84381468846124B984717
:100EF00005464846114B9847054013D0104C04F165
:100F000060062368434508D16168294205D0E3683B
:100F100040469847636825EA0305B44202D010347E
:100F2000002DEED1074B1B6823B1074B1B680BB19B
:100F300048469847BDE8F883DD0C4000E10C4000CE
:100F4000740C0020380D0020700C0020F8B50C4CFB
:100F50002468062C11D815460A4F2201BE18B95034
:100F60007560B360069AF2600134054A1460294640
:100F70001A46054B98470020F8BD0120F8BD00BF78
:100F80006C0C0020740C0020A50C400008B5024831
:100F90000B21024B984708BD000E0E40E50E4000A5
:100FA00008B502480C21024B984708BD00100E40BE
:100FB000E50E400008B502480D21024B984708BDD8
:100FC00000120E40E50E4000184A136B23F0700328
:100FD00018431063936E13F0080F03D009E0013B30
:100FE00003D11EE04FF4006310498A6E12F0080F1F
:100FF000F5D00E4A136B23F0030343F0020313638F
:10100000906E10F0080004D000207047013B03D11F
:1010100009E04FF4006305498A6E12F0080FF5D01D
:101020007047012070470120704700BF00040E4048
:1010300038B111490B6A114A1A40114B13430B6224
:1010400070470D4A136A23F45C1323F0030343F43F
:101050005C1343F00103090289B20B431362936EE0
:1010600013F0010FFBD0044A136A43F09B7343F45F
:1010700080331362704700BF00040E40FCFFC8FEBF
:1010800002003701024B986E00F48030704700BFB9
:1010900000040E404FF00052014B9A62704700BFAF
:1010A00000040E40024B986E00F00200704700BF33
:1010B00000040E400022014BDA62704700040E402B
:1010C00022281ED81F280CD8114B9A69012383406F
:1010D0001A40934217D0012383400D4A1361002028
:1010E00070470B4BD3F808212038012383401A4066
:1010F00093420AD001238340054AC2F80031002000
:10110000704701207047002070470020704700BFE3
:1011100000040E40014B1860704700BF0C00002017
:10112000114A136F23F4C001104B1B680B43136764
:10113000136A43F45C1343F004031362936E13F0D9
:10114000080FFBD04FF4FA7300BF013BFCD1064AF5
:10115000136A13F0080FFBD0034A136F23F4C00384
:1011600043F480031367704700040E400C00002016
:101170002DE9F84F431E042B00F23481DFE813F011
:1011800005000500130013002301974A136923F09B
:10119000040313610122954B1A70BFF35F8F62B68F
:1011A00030BFBDE8F88F044603280CBF00204FF481
:1011B00000108F4B984772B6BFF35F8F00228B4BA6
:1011C0001A7001228B4B1A708B4BD3F820801D6B49
:1011D0008A4AD2F800A002F50072D2F800909F6A05
:1011E000D3F82CB048F45C1242F008021A6205F001
:1011F0000306012E0AD925F0030141F0010119630C
:101200001A46936E13F0080FFBD000E0294611F048
:10121000700F08D021F07001774B19631A46936E56
:1012200013F0080FFBD0764B9847764B9847724ADD
:10123000936E13F4003FFBD06F4A136A23F09B7345
:1012400023F4803343F45C131362936E13F4803FF2
:10125000FBD02AF47063694A136029F4706302F5C5
:1012600000721360042C09D1A2F50062136A23F402
:101270005C1323F0010343F45C1313625B4C012302
:101280002370BFF35F8F62B65F4B984772B6BFF3B0
:101290005F8F0023237018F0020F0FD0564A136A95
:1012A0005A4919405A4B0B431362136A23F45C13D7
:1012B00023F0780343F45C1313622FE018F0010F5E
:1012C0002CD04D4B1B6A13F0010F0ED14A4A136A02
:1012D00023F45C1323F0030343F45C1343F0010392
:1012E0001362936E13F0010FFBD0434B1B6A13F094
:1012F000807F0AD1404A136A43F09B7343F48033E2
:101300001362936E13F4803FFBD03B4A136A23F4BD
:101310005C1323F0780343F45C1313623D4B3B40B2
:101320002BB147F00057344B9F62022200E00022AD
:10133000384B0BEA030323B12F4BC3F82CB042F018
:101340000402022E02D0032E06D00AE02A498B6E38
:1013500013F0020FFBD004E027498B6E13F0040F4B
:10136000FBD02548016B05F0700321F070010B43A1
:10137000036301468B6E13F0080FFBD01F4BC3F8BD
:1013800000A003F50073C3F80090A3F500631D638C
:1013900019468B6E13F0080FFBD017498B6E1A425B
:1013A000FCD00022134B1A701B4B1B681BB19847D3
:1013B0000022194B1A6001220C4B1A70BFF35F8F89
:1013C00062B6BDE8F88F084A136943F0040313615D
:1013D000124A134B1A600122044B1A70BFF35F8F3D
:1013E00062B630BFBDE8F88F00ED00E000000020DD
:1013F00015114000E80C002000040E40000A0E40C9
:1014000095104000B510400021114000FCFFC8FEBF
:10141000020037010000FF07E40C0020040000A5D3
:1014200010140E4010B4AC2303600B684A68B3FB81
:10143000F2F31B095C1E4FF6FE7294420AD8036257
:101440008B68436040F20223C0F8203150230360D0
:10145000002000E001205DF8044B7047436913F061
:10146000020F1ABFC161002001207047436913F0C9
:10147000010F1DBF83690B7000200120704700BF62
:10148000436913F0020F1DBFC1F30801C1610020C1
:1014900001207047436913F0010F05D08369C3F33E
:1014A00008030B600020704701207047FEE700BF73
:1014B00008B5204B204A9A4213D9204B1D4A9A4224
:1014C0001FD21146043203339B1A23F00303043363
:1014D000194A134452F8040B41F8040B9A42F9D10B
:1014E0000FE0144B144A9A420BD2144B114A9A1A29
:1014F000134881182AB151F8042943F8042D814278
:10150000F9D100BF0F4B104A9A420BD2131D0F4A5C
:10151000D21A22F003021A44043B002143F8041BB0
:101520009342FBD10A4B0B4A9A600B4B98470B4BEB
:101530009847FEE7000000203C7640008C08002021
:1015400038764000500D00208C080020530D0020FC
:1015500000ED00E000004000F11B40007119400068
:101560003D4B1B6B03F00303032B5DD8DFE803F057
:10157000020E2B2B394B5B6913F0800F14BF4FF415
:1015800000424FF4FA42364B1A604DE0324B1B6A70
:1015900013F0807F03D0334A314B1A6044E0324A63
:1015A0002F4B1A602C4B1B6A03F07003102B02D0D8
:1015B000202B04D038E02D4A294B1A6034E0294A08
:1015C000274B1A6030E0244B1B6A13F0807F03D056
:1015D000244A234B1A6012E0234A214B1A601E4B07
:1015E0001B6A03F07003102B02D0202B04D006E0FE
:1015F0001E4A1B4B1A6002E01A4A194B1A60164B1E
:101600001B6B03F00303022B134A07BF936A926A12
:10161000D36AD26A1248C3F30A41036801FB033359
:10162000D2B2B3FBF2F303600B4B1B6B03F07003FE
:10163000702B07D10A4A13680D49A1FB03135B08FD
:1016400013607047044B1A6B0549C2F302120B6812
:10165000D3400B60704700BF00040E4010140E40D2
:1016600010000020001BB70000093D0000127A00A6
:10167000ABAAAAAA1A4B984207D84FF08063194A1E
:10168000136002F5007213607047174B984206D83A
:10169000164B144A136002F5007213607047144B26
:1016A000984206D8134B0F4A136002F5007213607C
:1016B0007047114B984206D8104B0A4A136002F546
:1016C0000072136070470E4B984294BF4FF0042392
:1016D0000C4B044A136002F500721360704700BFA0
:1016E000FF2C3101000A0E40FF5962020001000484
:1016F000FF86930300020004FFB3C4040003000448
:10170000FFE0F50500050004094B1B6813B9094A01
:10171000074B1A60064B1B681A180749914204DBF5
:101720001046034A1060184670474FF0FF3070476C
:10173000EC0C0020503D0020FC7F02204FF0FF30D9
:10174000704700BF00207047024A136801331360DE
:10175000704700BFF00C0020024A1368013B136081
:10176000704700BFF00C0020F0B583B005460C4672
:1017700000230193184B984207D11F46174E384655
:101780002146B0470028FAD117E0154B984207D1FF
:101790001E46124D30462146A8470028FAD118E0CF
:1017A000104B984209D11E460F4D304601A9A8475B
:1017B0000028FAD1019B23700BE00C4B9D4208D10D
:1017C0001E46094D304601A9A8470028FAD1019BC1
:1017D000237003B0F0BD00BF00060E406D14400042
:1017E00000080E4000400240951440000080024076
:1017F00070B50C46184B984208D11E46174D30461E
:101800002146A8470028FAD1012070BD144B984208
:1018100008D11E46114D30462146A8470028FAD16E
:10182000012070BD0F4B984208D11E460E4D304628
:101830002146A8470028FAD1012070BD0B4B9842E1
:1018400008D11E46084D30462146A8470028FAD147
:10185000012070BD002070BD00060E405D144000E8
:1018600000080E4000400240811440000080024009
:1018700000B583B00B4800210B4B98470190019BAA
:101880000A4A136801331360094B9B6B13F4002F52
:1018900007484FF4002114BF064B074B984703B08D
:1018A0005DF804FB000001405D014000F40C0020E5
:1018B000000E0E40B10B4000AD0B400010B50020F3
:1018C0000D4B98470A2014210C4A0D4CA0470A20C2
:1018D00028210C4AA0470A203C210B4AA04700209F
:1018E0006421F0226E23094CA04700207021F022D1
:1018F0007A23A04710BD00BFC10540003C744000E2
:10190000C50A40004474400058744000010A400079
:1019100030B59BB005460A4668460F490F4CA047B4
:101920000DA80F492A46A0476FF07F400D4CA047F5
:1019300014208221F0224FF4A0730B4DA847002001
:10194000A04714208C216A46084CA0471420A021EF
:101950000DAAA0471BB030BD6C744000E51D4000CF
:101960007C744000C1054000010A4000C50A4000E7
:101970002DE9804887B06C4B98476C4B98474FF4E3
:1019800000466B4B5E6017206A4DA8476A4C2046A4
:10199000002144F20402694B984720460021324658
:1019A000674B9847204600211022664B9847664EA9
:1019B0004FF40003336020460021644B98470B200E
:1019C000A8470024009462484FF4002101222346D6
:1019D000604FB8470C20A8470D20A8470C200821CD
:1019E0007922DFF8FCB1D8475B4F384608216422E2
:1019F000DFF8F0A1D047594B009338460C2108225C
:101A00005023DFF8E491C84738460821544FB847BF
:101A10004FF0100886F80C834FF4805333600D208C
:101A200019465922D847DFF8C4B158464FF48051BF
:101A30006422D0474B4B009358460D214FF48052FF
:101A40005023C84758464FF48051B84786F80D8355
:101A50004FF4005333600820A847434E434B1E60A9
:101A6000434A444B1A60444A444B1A60444B039324
:101A70004FF4E13304934FF4006305930820A84723
:101A8000304603A93F4B98473F4F3B689868214633
:101A90003E4EB0473B6858682146B0470A20A847E9
:101AA0003B4D284601214FF002323A4B98472846D9
:101AB0000121394A394B984728460121384A394B88
:101AC0009847284601210322374B9847374DF02786
:101AD0002F604FF4A0766E60AC606FF07F49C5F860
:101AE0000C90334B98472846324B98474046324B30
:101AF00098474846314B9847204621463A46334658
:101B00002F4DA8472F4B9847204621462E4B9847EC
:101B10002E4B98472E4E2F4D2F4C30682968A047EA
:101B200002202E4B9847F8E765014000550240001F
:101B300050140E40C1104000000001402901400037
:101B40004D0140005501400000E100E0450140002A
:101B5000000E0E407D0C400000100E404917400062
:101B6000D50C40005917400000060E40340D0020EF
:101B7000F1174000300D0020691740002C0D0020A7
:101B8000000E27072514400040040020DD1C400003
:101B900000000E40710B400004040A0A790B40005B
:101BA0000A001600810B4000890B40003C0D00200C
:101BB00069034000A10640000D034000C10540003C
:101BC000010A40008D0540007D064000BD18400020
:101BD000F40C0020F00C002011194000711140009D
:101BE000490C4000910B40004D0F400000120E4088
:101BF00070B50F4E0F4D761BB61018BF002405D0E0
:101C0000013455F8043B9847A642F9D10A4E0B4DD2
:101C1000761B05F0FDFCB61018BF002406D0013479
:101C200055F8043B9847A642F9D170BD70BD00BF7E
:101C30001C7640001C764000247640001C76400054
:101C400070B4840746D0541E002A41D0CDB203465A
:101C500002E0621EE4B3144603F8015B9A07F8D170
:101C6000032C2ED9CDB245EA05250F2C45EA0545B2
:101C700019D903F110022646103E0F2E42F8105CCF
:101C800042F80C5C42F8085C42F8045C02F1100275
:101C9000F2D8A4F1100222F00F0204F00F04103267
:101CA000032C13440DD91E462246043A032A46F853
:101CB000045BFAD8221F22F003020432134404F01A
:101CC00003042CB1C9B21C4403F8011BA342FBD18D
:101CD00070BC704714460346C2E700BF00290CBF22
:101CE000022200224FF4806300F000B82DE9F04199
:101CF0003A4C26680D46044690461F4616B1B36B13
:101D0000002B3CD0B8F1020F2FD8002F2DDB21463D
:101D1000304602F071FBA18900236360A3610B06CA
:101D200027D421F0830189B2B8F1020FA1812AD012
:101D3000002D36D0B8F1010F11D089B201F00800A2
:101D4000274BF36380B225602561676178B111F09C
:101D5000030F18BF0027A7600020BDE8F08141F005
:101D600001017B42A181A361E7E74FF0FF30BDE8AD
:101D7000F0812169304602F041FCA189D1E730466B
:101D800002F0CEFBBEE7002004F1430341F0020164
:101D900000250122A181A560236023616261BDE865
:101DA000F081002F08BF4FF48067384602F02CFD09
:101DB000054628B1A18941F0800189B2A181B9E726
:101DC0004FF4806002F020FD054618B9A1894FF05C
:101DD000FF30D9E74FF48067ECE700BF40040020F4
:101DE000254440000EB4F0B59CB021AB0F4953F828
:101DF000042B019305466FF00044086802954FF4E8
:101E000002774FF6FF7602A90695ADF81470049498
:101E10000794ADF8166000F00BF8029B00221A70D0
:101E20001CB0BDE8F04003B0704700BF4004002084
:101E30002DE9F04FC1B089460A920E93089002F046
:101E4000DFFC03681793184603F02EFEB9F80C3038
:101E500018901A0604D5D9F81030002B01F08C80A8
:101E6000002330AF139325932493169319930B9368
:101E70002397149315933C464E460A9D2B78002BCE
:101E800000F0A980252B02D1A5E0252B03D015F861
:101E9000013F002BF9D10A9BEB1A73B1249A2599C3
:101EA0000A98206001321944072A63602591249220
:101EB00072DC08340B9A1A440B922B78002B00F03A
:101EC000B5870023691C6D788DF86F301A460C9326
:101ED00007934FF0FF3A4B1CA5F12001582900F25F
:101EE000D983DFE811F07002D703D7037403D70357
:101EF000D703D703D703D703D703F0020D02D703C5
:101F0000F4011102D7037B03BA02BA02BA02BA0281
:101F1000BA02BA02BA02BA02BA02D703D703D70387
:101F2000D703D703D703D703D703D703D703C902F0
:101F30008B03D7038B03D703D703D703D7036D03D3
:101F4000D703D7030503D703D703D703D703D70393
:101F50002303D703D7033D03D703D703D703D703FF
:101F6000D703D703D703D703D703D70358032C02CC
:101F70008B038B038B03FE022C02D703D703E602ED
:101F8000D7037E02FB01C0037702D7039202D70377
:101F90007A00D703D7034A0208980793314623AA49
:101FA00003F0B0FD50B93C46079B83E708983146E3
:101FB00023AA03F0A7FD002800F08581B146B9F8F7
:101FC0000C3013F0400F0B9B18BF4FF0FF33184637
:101FD00041B0BDE8F08F0A9D6FE70A93079B980612
:101FE00040F1AD820E9B03F1070929F0070303F1CD
:101FF0000802D3E900890E9201234FF0000C8DF8FE
:102000006FC0CDF844A0BAF1000F03DB079A22F0AD
:102010008002079258EA090240F04C83BAF1000F9F
:1020200000F05184012B00F04F83022B00F09084CC
:1020300039464FEAD80242EA49724FEAD90008F01D
:10204000070381469046303358EA090201F8013D02
:10205000EFD1079A1091D20700F144857B1A0D93B6
:102060000D9A92455346B8BF134609930023129325
:10207000BCF1000F02D0099B01330993079B13F0B9
:1020800002030F9302D0099B02330993079B13F0BD
:10209000840940F00C830C9B099AC2EB0308B8F149
:1020A000000F40F30483B8F1100F2599249ADFF84C
:1020B00044A529DD53464FF0100BC246A8461D46E5
:1020C00006E0AAF1100ABAF1100F04F1080417DDB6
:1020D00001321031072A2591249284E82008F0DD8E
:1020E0000898314623AA03F00DFD00287FF466AF5F
:1020F000AAF1100ABAF1100F2599249A3C46E7DCA0
:102100002B464546D0469A46013208EB010B072A7A
:10211000CDF894B02492C4F800A0C4F8048000F371
:102120007B849DF86FC00834BCF1000F0FD0249B56
:1021300001330BF1010B0DF16F010122072BCDF8DB
:1021400094B0249384E8060000F3DA8308340F9BEC
:1021500073B1249B01330BF1020B1CA90222072B44
:10216000CDF894B0249384E8060000F3D5830834B6
:10217000B9F1800F00F01183119B0D9AC2EB030A95
:10218000BAF1000F3CDDBAF1100F249ADFF8689421
:102190002BDD49465B46A9464FF01008DDF820B01C
:1021A0000D4606E0AAF1100ABAF1100F04F1080476
:1021B00017DD01321033072A2593249284E8200189
:1021C000F0DD5846314623AA03F09CFC00287FF43A
:1021D000F5AEAAF1100ABAF1100F259B249A3C46DD
:1021E000E7DC9B462B464D4699460132D344072AED
:1021F000CDF894B0249284E8000600F37583083487
:10220000079BD90500F16C82249B0D99109A2260DE
:1022100001338B44072BCDF894B06160249300F315
:1022200046830834079B5A0741D50C9B099A9D1A8F
:10223000002D3CDD102D249BDFF8B8A323DD4FF0EB
:1022400010085A46DDF8209004E0103D102D04F1EE
:10225000080417DD01331032072B25922493C4F8AC
:1022600000A0C4F80480F0DD4846314623AA03F0FC
:1022700049FC00287FF4A2AE103D102D259A249B26
:102280003C46E7DC93460133AB44072BCDF894B0D2
:102290002493C4F800A0656009DD0898314623AA9C
:1022A00003F030FC00287FF489AEDDF894B00B9B7E
:1022B000099A0C998A42ACBF9B185B180B93BBF12F
:1022C000000F7FF473AE002324933C46D5E51946F6
:1022D00007981D7840F004000790FCE50A93079BDF
:1022E00013F0200300F00E810E9B03F1070929F083
:1022F000070303F10802D3E900890E9200237CE66C
:102300001D7819462B22E6E51D782A2D03F10101DF
:1023100000F0AD87A5F1300009280B464FF0000A08
:102320003FF6DAAD13F8015B0AEB8A0A00EB4A0AC2
:10233000A5F130000928F5D94AEAEA7ACCE50A93F2
:10234000079B8DF86F209B0640F1A1800E9B03F147
:10235000070929F00709D9E9002309F108010E91BD
:1023600090469946002A73F10003C0F20B849DF851
:102370006FC0CDF844A0012345E60A939B4B16930A
:10238000079B8DF86F209B0640F1F3800E9B03F1B5
:10239000070929F00703D3E9008903F108020E9227
:1023A000079BD90740F1F58058EA090300F0F18056
:1023B000079A8DF87150302342F002028DF8703088
:1023C0000792022319E61D781946002A7FF483AD8F
:1023D000202280E5079941F0200107911D781946D8
:1023E00079E50A93079B8DF86F209A0640F1A18446
:1023F0000B990E9A4FEAE179136808468846043231
:1024000049460E92C3E9000137E50E9A0A93136814
:1024100010934FF0000B8DF86FB002F10409002B00
:1024200000F03B86BAF1000F1098C0F2E9855946DA
:10243000524602F083FC002800F06C86109BCDF819
:1024400044B0C31A0D93CDF8389023EAE37309938F
:10245000CDF848B09DF86FC00AE6A5F13000002124
:1024600013F8015B01EB810100EB4101A5F13000A4
:102470000928F5D90C912FE50A93079B8DF86F2059
:1024800043F010030793079B9B063FF55FAF079B45
:10249000D80600F16883079B590640F164830E99C2
:1024A000B1F9008004314FEAE87942464B460E917B
:1024B00058E71D7807996C2D00F0CB8441F010018E
:1024C0000791194607E50E9D29680C9108460028DA
:1024D000294601F10401C0F2B5840E911D78194618
:1024E000F9E4079941F0400107911D781946F2E49B
:1024F0000A93079B43F010030793079B13F02003F5
:102500007FF4F2AE079A12F0100240F01983079B95
:1025100013F0400300F014830E9913460A46043268
:10252000B1F800800E924FF0000966E50A93079B10
:1025300043F010030793079B98063FF553AD079BA5
:10254000D90600F10683079B5A0640F102830E9AD2
:10255000B2F8008004324FF0000901230E924CE5DE
:102560000A93234B1693079B8DF86F209B063FF52C
:102570000DAF079BD80640F1CD830E9A13461B681A
:102580009846079B0432D9070E924FF000093FF599
:102590000BAF022331E50E990A930A688DF8982053
:1025A0000023012204319C4609920E918DF86F3070
:1025B00026ABCDF844C0CDF848C00D9210935DE530
:1025C000079941F0080107911D78194683E407999E
:1025D00041F0010107911D7819467CE4079941F00B
:1025E000800107911D78194675E400BFD47440003E
:1025F000C0744000A0744000907440000A930E9B89
:102600008DF86F2003F1070929F0070303F1080291
:102610000E921A6814925B6815931599149803F03A
:10262000C3F90128D3461498159940F05983002224
:10263000002304F025F8002840F064859DF86FC061
:10264000079BBE4ADFF800E323F08003079313469D
:1026500003210020472DD8BF734609911190109394
:102660000D91129004E50E9807990A9330220368A1
:102670008DF870200246782541F002010432984618
:10268000AF4B169307910E924FF000098DF87150E1
:102690000223B2E40A938DF86F20002D00F0C68368
:1026A000002301229C4609928DF898507EE7DDF8C0
:1026B00094B039E5012B7FF4B8ACB9F1000F08BF35
:1026C000B8F10A0F80F01C820DF5807B08F130080C
:1026D0000BF8418DCBEB07030D93CDF840B0BFE471
:1026E000652D40F3A080149815990022002303F073
:1026F000BDFF002800F04581249B924A22600133EF
:102700000BF1010B0122072BCDF894B024936260EA
:1027100000F3348308341D9B139A934203DB079B19
:10272000DA077FF57FAD249B1899179A2260013351
:102730008B44072BCDF894B06160249300F3908311
:102740000834139B5D1E002D7FF76CAD102D249B6C
:10275000DFF8F89140F3BA814FF010085A46DDF8DF
:1027600020A004E00834103D102D40F3AE81013369
:102770001032072B25922493C4F80090C4F80480EB
:10278000F0DD5046314623AA03F0BCF900287FF45F
:1027900015AC259A249B3C46E5E70C9B099AC2EBB5
:1027A000030ABAF1000F7FF7E7ACBAF1100F249AD1
:1027B000DFF898912BDD49465B46A9464FF010089B
:1027C000DDF820B00D4606E0AAF1100ABAF1100FAC
:1027D00004F1080417DD01321033072A25932492EF
:1027E00084E82001F0DD5846314623AA03F08AF937
:1027F00000287FF4E3ABAAF1100ABAF1100F259B71
:10280000249A3C46E7DC9B462B464D4699460132CE
:10281000D344072ACDF894B0249284E8000600F34C
:1028200052820834A8E4139B249D012B40F320829C
:10283000109B236001350BF101030122072D259325
:102840002495626000F3268208341899616001358E
:1028500003EB010B072D179BCDF894B02495236053
:1028600000F324820834002314981599002203F001
:10287000FDFE139B002840F0DE80109A013B0135DD
:1028800001329B44072D2495CDF894B022606360FB
:1028900000F30E810834199A6260013593441FAB2E
:1028A000072DCDF894B0249523607FF7BAAC089833
:1028B000314623AA03F026F900287FF47FABDDF828
:1028C00094B03C46AEE4002B32D1079BD8072FD5FD
:1028D0000DF5807B30230BF8413DCBEB07030D93C7
:1028E000CDF840B0FFF7BCBB0898314623AA03F0EF
:1028F00009F900287FF462ABDDF894B03C467FE430
:102900000898314623AA03F0FDF800287FF456AB5F
:10291000DDF894B03C461AE40898314623AA03F047
:10292000F1F800287FF44AABDDF894B03C461FE490
:10293000CDF834A01097FFF793BB00BFB4744000EC
:10294000D4744000F0744000B074400090744000B3
:102950001698BB464FEA181308F00F0143EA0973B3
:102960004FEA191298469146435C0BF8013D58EA2C
:102970000903EFD15B46CDF840B0FB1A0D93FFF78A
:102980006FBB1D9D002D40F30582139A12998A4258
:102990001346A8BF0B461D461099002D01EB020AF5
:1029A0000BDD249B21600133AB44072BCDF894B0A1
:1029B0006560249300F34D830834129B002DA8BF5B
:1029C0005B1B002B1D4640F3F580102D249BDFF888
:1029D000F49540F3C6815A464FF01008DDF820B058
:1029E00004E00834103D102D40F3BA810133103259
:1029F000072B25922493C4F80090C4F80480F0DDDE
:102A00005846314623AA03F07DF800287FF4D6AA61
:102A1000259A249B3C46E5E70898314623AA03F013
:102A200071F800287FF4CAAA9DF86FC0DDF894B051
:102A30003C46FFF779BB03F1FF38B8F1000F7FF791
:102A40002AAFB8F1100FDFF87C9525DD5B464FF01B
:102A5000100ADDF820B006E0A8F11008B8F1100F58
:102A600004F1080417DD01351033072D2593249553
:102A700084E80006F0DD5846314623AA03F042F808
:102A800000287FF49BAAA8F11008B8F1100F259B2D
:102A9000249D3C46E7DC9B460135C344072DCDF819
:102AA00094B02495C4F80090C4F804807FF7F2AE87
:102AB0000898314623AA03F025F800287FF47EAA5F
:102AC000DDF894B0249D3C46E5E693460133AB44E3
:102AD000072BCDF894B02493C4F8009065607FF77D
:102AE000A0ABE4E6302B109B3FF447AF013B1A4606
:102AF0001093BA1A30230D9201F8013CFFF7B0BAD7
:102B0000BB46CDF824C0404649460A22002303F0C4
:102B100007FE3032404649460BF8012D00230A22B9
:102B200003F0FEFD8046894658EA0903EBD15B4677
:102B3000FB1ADDF824C0CDF840B00D93FFF790BA32
:102B40000E990A6804310E9190464FF00009FFF784
:102B500054BA0E990A68043101230E9190464FF041
:102B60000009FFF74ABA0E9A136898464FEAE379CC
:102B70001346043342460E93002A4B4673F100037A
:102B8000BFF6F5AB4FF02D0CD8F1000869EB490901
:102B90008DF86FC0CDF844A00123FFF734BA089830
:102BA000314623AA02F0AEFF00287FF407AADDF821
:102BB00094B03C46109A12991D9B0A449046139A71
:102BC000934246DB079AD00743D4139AC8EB0A0511
:102BD000D31A9D42A8BF1D46002D0CDD249AC4F8CF
:102BE00000800132AB44072ACDF894B0656024928E
:102BF00000F367820834002DACBF5D1B1D46002D1D
:102C00007FF710AB102D249BDFF8B8937FF75EAFF2
:102C10004FF010085A46DDF820A004E00834103DBB
:102C2000102D7FF752AF01331032072B25922493DA
:102C3000C4F80090C4F80480F0DD5046314623AA61
:102C400002F060FF00287FF4B9A9259A249B3C4636
:102C5000E5E7249A18981799216001328344072ADE
:102C6000CDF894B06060249200F30A820834ACE797
:102C7000079BD9073FF5DCAD109B236001350BF1B5
:102C8000010B0123072DCDF894B0249563607FF7E5
:102C900001AE0DE70898314623AA02F033FF002861
:102CA0007FF48CA9259B249D3C46CEE508983146AF
:102CB00023AA02F027FF00287FF480A9DDF894B052
:102CC000249D3C46CFE50898314623AA02F01AFF1E
:102CD00000287FF473A9DDF894B03C46FFF74CBAA6
:102CE00002F062FE002840F0C7808646B24AB34B2D
:102CF000119007989DF86FC0CDF848E0032120F0AF
:102D00008000472DD8BF1A460991079010920D9167
:102D1000FFF7AEB9079B0E9A13F0400F13463FF42E
:102D20002EAC0433B2F800800E934FF00009FFF789
:102D300037BB079BDB060BD4079B5D0608D50E9AB5
:102D4000136804320E92BDF82C201A80FFF795B854
:102D50000E9A136804320E920B9A1A60FFF78DB820
:102D600093460133AB44072BCDF894B02493C4F8B9
:102D7000009065603FF713AF08341BE708983146B1
:102D800023AA02F0BFFE00287FF418A9DDF894B052
:102D90003C46C0E4249B8A4A226001330BF1010BBC
:102DA0000122072BCDF894B02493626000F3F480E5
:102DB00008342DB9139B1BB9079BDB077FF532AA9B
:102DC000249B1898179A226001330BEB0001072B04
:102DD00025916060249300F3F38104F108026D42B1
:102DE000002D40F3FC80102DDFF8D89140F33D8199
:102DF0001024DDF8208004E00832103D102D40F34F
:102E0000348101331031072B25912493C2F80090AF
:102E10005460F1DD4046314623AA02F073FE0028DB
:102E20007FF4CCA82599249B3A46E6E7259BB1463A
:102E3000002B3FF4C4A80898314623AA02F062FE92
:102E4000FFF7BDB80C980E9140420C901946FFF761
:102E50003FBA41F0200107915D78591CFFF73BB85C
:102E60000898314623AA02F04DFE00287FF4A6A858
:102E7000DDF894B03C4664E425F02003BAF1FF3F4E
:102E80000D9300F09680472B05D1BAF1000F14BFC7
:102E9000D3464FF0010B079B43F480731193159BAE
:102EA000B3F1000A149B0993BBBF534603F1004AD8
:102EB00000232D23662D0F9300F0AC80462D00F0EB
:102EC000A9800D9B099A452B0CBF0BF10109D9462E
:102ED00002201DA98DE8010202911EA821A90390DC
:102EE00053460491089800F093FA672D109002D091
:102EF000472D40F09F80079BDB0740F18981109BA5
:102F000003EB0908099851460022002303F0AEFBA9
:102F1000002840F0FD80219B984506D930215A1C9D
:102F200021921970219B9845F9D8109A9B1A1393F6
:102F30000D9B472B1D9B00F0DE80652D40F3F88034
:102F4000662D129300F05781139B129A934200F35F
:102F50004481079BD90700F1738122EAE2730D9245
:102F60000F9A002A40F0BC800993119B079311929D
:102F70009DF86FC0FFF77CB80898402101F04CFC29
:102F8000C9F80000C9F81000002800F08C81402327
:102F9000C9F81430FEF764BF0898314623AA02F03E
:102FA000B1FD00287FF40AA81D9DDDF894B03C46D1
:102FB000FFE64FF0060B6EE7BC744000B8744000AB
:102FC000F0744000907440000898314623AA02F043
:102FD00099FD00287EF4F2AF2599249B3A46139C74
:102FE0005460013301EB040B072B1099CDF894B01A
:102FF000249311603FF75BAC02F10804FFF712B9AC
:10300000CDF844B002F050FDCDF838900D90034655
:10301000FFF71BBA03201DA98DE8010802911EA825
:1030200021A90390099A04915346089800F0F0F9F9
:10303000D9461090109B03EB09080D9B462B7FF49B
:1030400061AF109B1B78302B00F0E4801D9B9844EF
:1030500058E70898314623AA02F054FD00287EF470
:10306000ADAFDDF894B03C46A7E401332944072B0B
:1030700025912493C2F800905560A5DC0832AEE794
:103080000898314623AA02F03DFD00287EF496AF51
:103090001D9BDDF894B03C4697E55346062B28BFB0
:1030A00006230D9323EAE373DDF840C00993834BB5
:1030B000CDF83890CDF844C0CDF848C01093FEF755
:1030C000D7BF0898314623AA02F01CFD00287EF4E1
:1030D00075AF1D9B139ADDF894B0D31A3C468AE570
:1030E0000993119B07934FF02D0C00238DF86FC0AF
:1030F0001193FEF7C0BFDA1C19DB9B4517DB129357
:10310000672521E74FF02D0C8DF86FC0FFF798BAB7
:1031100043460AE72AEAEA731190CDF838901290F4
:103120009DF86FC00993CDF834A0FEF7A1BF023D12
:10313000013B002B1D93BABF5B422D222B22092B92
:103140008DF87C508DF87D2072DD0DF18B0E704670
:103150005B4A82FB0321DA17C2EBA10202EB820178
:10316000A3EB410303F13001092A134600F8011DC6
:10317000EEDC02463033D9B202F8011D964540F22A
:1031800099800DF17E02034601E013F8011B02F85D
:10319000011B7345F9D123AB1B1A0DF17E021344B9
:1031A0001FAA9B1A139A1993012A13440D936BDDDE
:1031B0000D9B002201330D93129223EAE373CFE6B5
:1031C0000898314623AA02F09DFC00287EF4F6AE52
:1031D0001D9D2599249B3A4601E6129B002BD8BFE2
:1031E000C3F10208139BC8BF4FF0010843440D937D
:1031F00023EAE373B4E6002B30DDBBF1000F25D1E9
:10320000079BDB0722D4129A0D9222EAE273A7E60B
:10321000219B8AE6099851460022002303F026FAF2
:1032200000287FF413AFC9F101031D93984469E6A8
:10323000303330228DF87F308DF87E2020ABAFE721
:10324000129B01330D9323EAE37389E6129B0BF182
:10325000010843440D9323EAE37381E6BBF1000FB9
:103260001BD1079BD80718D401230D9378E60E9D38
:10327000D5F800A028460430BAF1000F5D780E9012
:10328000BEF629AEFEF725BE079B13F001038FD1D2
:1032900012930D9B23EAE37362E60BF102030D9395
:1032A00023EAE3735CE6089A0C2313604FF0FF30C7
:1032B000FEF78EBE0DF17E0372E700BFE87440009A
:1032C00067666666024B13B1024800F005B87047A6
:1032D000000000003545400001460020024603463C
:1032E00002F0A6BC02690B69934200F38F802DE9BE
:1032F000F04F03F1FF3801F1140700F1140B57F8F8
:1033000028205BF828304FEA880483B00132B3FBF1
:10331000F2F90BEB0403009407EB040A0193B9F1F3
:10332000000F3BD000263246BC46DE4634465CF8F1
:10333000046BDEF80050B3B2360C03FB094406FB05
:1033400009F606EB1446A3B2D31AB4B213FA85F306
:10335000C4EB154404EB23449BB243EA0443E24527
:103360004FEA24424EF8043B4FEA1644DFD2009B5A
:103370005BF8033093B9019C231F9B450CD254F892
:10338000043C4BB9A4F1080302E01A68043B1AB9E3
:103390009B4508F1FF38F8D3C0F81080044602F0CE
:1033A00023F800282EDB09F101095D46002357F8B8
:1033B000041B28688AB29A1A090C12FA80F2C1EB2F
:1033C000104303EB224391B241EA0341BA4545F869
:1033D000041B4FEA2343EAD25BF828200BEB880357
:1033E00082B91A1F93450BD253F8042C42B9083BFB
:1033F00002E01A68043B1AB99B4508F1FF38F8D37C
:10340000C4F81080484603B0BDE8F08F0020704734
:103410002DE9F04F016C97B00446239DCDE90223BE
:1034200041B1426C4A60012393408B6001F0F8FD8A
:1034300000232364DDE90223002B994636DB0023B9
:103440002B60A54B1A4609EA0303934217D0DDE926
:103450000267002230463946002303F007F9804610
:1034600000282BD0229A01231360249B002B00F00C
:10347000CB809A481860013817B0BDE8F08F229AC7
:1034800042F20F731360029B002B00F0A680944859
:10349000249B002BF0D0C378002B00F0B78000F104
:1034A0000803249A136017B0BDE8F08F039A012334
:1034B00022F000492B60CDF80C90C2E715AA14AB9E
:1034C0008DE80C00204632463B4602F01BF85FEACE
:1034D0001955834640F08A80DDF85080159D6FF4C1
:1034E000826345449D42C0F297827E4A521B09FA8C
:1034F00002F9029A05F2124322FA03F049EA0000A7
:1035000002F0D6FD0123013DA1F1F8710D930022D7
:10351000754B02F08FFC6AA3D3E9002302F03EFE54
:1035200069A3D3E9002302F087FC064628460F462C
:1035300002F0CEFD66A3D3E9002302F02FFE02467F
:103540000B463046394602F077FC06460F4603F03C
:10355000BFF83946049000223046002303F090F86B
:10356000002840F0A681049B162B00F29F81049A4C
:103570005E4B03EBC203D3E90001DDE9022303F054
:103580009DF8002800F04E82049B013B0493002329
:103590000B93C5EB0805B5F1010A00F1A1810023E9
:1035A0000593049B002BC0F292819A440A93002356
:1035B0000893209B092B2BD8052B40F37086043BE6
:1035C00020930025209B023B032B00F24E86DFE870
:1035D00013F0CC03BE03B2026306414B444AC9F365
:1035E0001300002814BF1846104651E7C7F3130311
:1035F00043F07F51CDF834803046A5F2FF3541F4D9
:103600004011DDF8508082E73A4835E7C31C48E7AF
:10361000002161642046209101F0DCFC4FF0FF3373
:103620000693209A0C93012307902192206409931A
:10363000159B002BC0F2D280049A0E2A00F3CE8094
:103640002A4B03EBC203D3E90089219B002BC0F274
:103650008F83DDE9026742464B463046394602F029
:10366000C7FE03F035F8824602F032FD42464B4673
:1036700002F094FD0B4602463946304602F0DAFB72
:10368000079D0AF130032B70069B012B06460F465F
:1036900005F1010562D00022174B02F07FFD0022E8
:1036A000002306460F4602F0E1FF002840F0838029
:1036B000CDF808B00594DDF81CB0069C29E000BFE9
:1036C00061436F63A787D23FB3C8608B288AC63F28
:1036D000FB799F501344D33F0000F07FF17440000A
:1036E000007540000EFCFFFF0000F83F1075400021
:1036F000F4744000F07440000000244002F04EFDDD
:103700000022002306460F4602F0B0FF002840F0DA
:10371000DE8342464B463046394602F069FE02F0EF
:10372000D7FF824602F0D4FC42464B4602F036FDFB
:1037300002460B463046394602F07CFB0AF1300E59
:1037400005F801EBCBEB050E744506460F464FF02E
:103750000002B54BD2D1DDF808B0059C32463B469D
:103760003046394602F068FB06460F464046494659
:1037700032463B4602F084FF48B94046494632464D
:103780003B4602F073FFB0B11AF0010F13D015F8E9
:10379000018C07996B1E04E08B4200F0408413F803
:1037A000018DB8F1390F03F101051A46F4D008F183
:1037B0000103DBB213702046594601F031FC0022B0
:1037C000049B2A70229A01331360249B002B00F083
:1037D000458307981D6017B0BDE8F08F099A002A4D
:1037E00000F08480209A012A40F30483069B5F1E28
:1037F000089BBB42C0F2A983DF1B069B002BC0F2D3
:103800009C84059D069B059A20461A440121059239
:103810009A4401F09FFC064665B1BAF1000F09DD3C
:10382000AA45059A5346A8BF2B46D21A0592ED1A0F
:10383000C3EB0A0A089B002B1ADD099B002B00F042
:103840007D83002F10DD31463A46204601F026FDEB
:1038500006465A463146204601F086FC59468046C7
:10386000204601F0DDFBC346089BDA1B40F0A28234
:103870002046012101F06EFC0A9B002B804639DDB9
:1038800001461A46204601F009FD209B012B804687
:1038900040F396824FF00009D8F8103008EB83030C
:1038A000186901F009FCC0F120002DE001230B9301
:1038B0006FE6049802F00CFC32463B4602F0D6FE5E
:1038C00000287FF450AE049B013B04934BE6059A1D
:1038D000049BD21A5B420893002305920A9368E680
:1038E000CAF1000305934FF0000A5AE6089F059DB0
:1038F000099E91E7209B012B40F3B3824FF0000912
:103900000A9B002BC8D10120504410F01F0000F08A
:103910008180C0F12003042B40F3B884C0F11C0067
:10392000059B0344059305448244059B002B05DD5C
:1039300059461A46204601F001FD8346BAF1000FB0
:1039400005DD41465246204601F0F8FC80460B9BBF
:10395000002B40F06882069B002B40F39582099B68
:10396000002B71D1DDF81C90069F4D4602E001F05E
:1039700061FB834641465846FFF7B4FC00F1300C2A
:1039800005F801CBC9EB0503BB42204659464FF071
:103990000A024FF00003EADB079B069A012AACBF3C
:1039A0009B1801331D464FF0000A5946012220465C
:1039B000CDF808C001F0C2FC4146834601F014FD79
:1039C0000028DDF808C040F3F68215F8012C0799AD
:1039D0006B1E04E08B4200F0738213F8012D392A2C
:1039E00003F10105F6D001321A704146204601F07C
:1039F00017FB002E3FF4DFAEBAF1000F05D0B24541
:103A000003D05146204601F00BFB3146204601F021
:103A100007FBD0E61C2083E7044B029A5B1B02FAEB
:103A200003F06DE50B90B4E500002440EEFBFFFFD2
:103A30003146002320460A2201F0FCFA0C9B002BA1
:103A4000064640F30C840693002D05DD31462A46D8
:103A5000204601F073FC0646B9F1000F40F0E98200
:103A6000B146069B079A013BD3180893029B03F0CB
:103A700001030993174641465846FFF733FC314688
:103A80000546584601F0B0FC4A468246414620466B
:103A900001F0CEFCC268034605F1300C002A40F06C
:103AA000B88119465846CDF818C0059301F09CFC22
:103AB000059B02901946204601F0B2FA029ADDF801
:103AC00018C02AB9209B1BB9099B002B00F0A783C3
:103AD000BAF1000FC0F2518205D1209B1BB9099B9E
:103AE000002B00F04A82002A00F3B782089B87F877
:103AF00000C007F1010A9F42554600F0BA825946BC
:103B00000A220023204601F095FA4E4583463146AD
:103B100020464FF00A024FF0000300F0748101F0DC
:103B200089FA494606460A222046002301F082FA15
:103B3000574681469FE701230993219B002B40F3C1
:103B400013821F461E460C9306930021172F6164B3
:103B50000AD9012204235B0003F1140087421146B5
:103B600002F10102F7D26164204601F033FA0E2E11
:103B7000079020643FF65CAD002D3FF459ADDDE9C0
:103B8000022304990029CDE90E2340F32182B74B8B
:103B900001F00F020D1103EBC203E906D3E9006740
:103BA00040F1DB81B24BDDE90E01D3E9082302F0DD
:103BB0001FFCCDE9020105F00F054FF003088DB1A0
:103BC000DFF8AC9230463946EA0705D5D9E900233B
:103BD00008F1010802F0E2FA6D1009F10809F3D1C9
:103BE00006460F46DDE9020132463B4602F000FC84
:103BF000CDE902010B9B43B1DDE9020100229D4B9F
:103C000002F03EFD002840F0AC82404602F060FA2F
:103C1000DDE9022302F0C2FA974B002202F00CF910
:103C2000069B0646A1F15077002B00F06281049BB1
:103C3000DDF818901293099B002B00F021828B4B2A
:103C40008E4903EBC90353E90223002002F0D0FBA5
:103C500032463B4602F0EEF8DDE90267CDE910019D
:103C60003946304602F034FD054602F031FA30356F
:103C700002460B463046394602F0DCF85FFA85F81A
:103C8000079DDDE9102385F8008006460F460135C3
:103C900002F0F6FC002840F0B28232463B4600209B
:103CA000744902F0C7F802460B46DDE9100102F044
:103CB00005FD002840F0AC82B9F1010F40F33881D6
:103CC000079BCDF84CA0CDF808B09944DDE910ABC6
:103CD000A0460DE00020674902F0ACF852465B4672
:103CE00002F0CEFC002840F08E824D4500F01B8192
:103CF000504659460022624B02F050FA0022604BB7
:103D000082468B463046394602F048FA0F46064650
:103D100002F0DEFC044602F0DBF902460B463046B8
:103D2000394602F087F83034E4B252465B4605F873
:103D3000014B06460F4602F0A3FC32463B460028E4
:103D4000C8D0129BDDF808B00493444633E5002345
:103D50000993219B049A13440C930133002B06937F
:103D600040F30981069E3746EFE600230993E4E617
:103D7000069B002B3FF76DAC40F06282404600226C
:103D8000404B494602F00AFADDE9022302F08CFCBE
:103D9000DDF818804646002800F08A80219B079DA8
:103DA000DB4304934146204601F03AF9002E7FF4AC
:103DB0002CAE00E55946204601F070FA834657E5DF
:103DC000029B002B7FF466AD039BC3F31303002B10
:103DD0007FF494AD039B23F000473F0D3F05002F78
:103DE00000F01A82059B013305930AF1010A4FF096
:103DF000010985E50D9A002A00F0A58103F23343FD
:103E0000089F059DFFE401F015F9574606468146D7
:103E100031E601462046CDF808C001F001F9012243
:103E2000DDF808C054E65846414601F0DDFA0028A6
:103E3000BFF691AD049F5946002320460A22013F58
:103E4000049701F0F7F8099B8346002B7FF4F0AD4F
:103E50000C9B002B40F3F881069383E50798FFF74E
:103E60000BBB029B002B7FF449ADADE71075400002
:103E7000E87540000000F03F00001C400000E03FFB
:103E80000000244000001440209B022B7FF767AD08
:103E9000069B002B82D141460522204601F0CAF83C
:103EA00080464146584601F09FFA00287FF776AFDA
:103EB000049A07993123013204920B704D1C71E76B
:103EC000049A01320492079A312313708DE5DDF8CC
:103ED00008B0059C6FE4404602F0FAF8DDE90223E1
:103EE00002F05CF90022BC4B01F0A6FF0646A1F1EE
:103EF0005077DDE902010022B84B01F09BFF32460A
:103F00003B46CDE9020102F0D9FB8046002840F093
:103F1000B380324607F10043DDE9020102F0B0FB55
:103F200030B146463AE7DDF84CA0DDF808B044462B
:103F3000DDE90E23CDE90223FFF77ABB5946089A43
:103F4000204601F0ABF9834692E4089B0A9A089751
:103F5000FB1A1A440A9200274FE4DDE90E234FF0C2
:103F60000208CDE902232AE6012621960C96069640
:103F700000216164F8E51E46FAE7002A15DD59467E
:103F800001222046CDF808C001F0D8F94146834609
:103F900001F02AFA0028DDF808C040F34A81BCF19C
:103FA000390F00F006810CF1010CB24687F800C011
:103FB0007D1C4E4619E504D11CF0010F01D004E52B
:103FC000154615F8013C302B05F1FF32F8D00CE511
:103FD000049B5D42002D00F0BD80814B05F00F0277
:103FE00003EBC203D3E90023DDE90E0102F0D6F8AA
:103FF0002D11CDE9020100F02C817A4E4FF002081C
:10400000EB0705D5D6E9002308F1010802F0C6F850
:104010006D1006F10806F3D1CDE90201EAE5049A34
:1040200001320492079A3023137031231370FFF783
:10403000C2BB7168204600F0CDFF33699A1C05466B
:10404000920006F10C010C3000F0C2FE2046294619
:10405000012201F073F9814603E5BCF1390F00F04C
:10406000A8800CF1010CB24687F800C07D1C4E46BA
:10407000BBE4B2464E4698E44FF00008464617E7C8
:10408000574909F1FF3301EBC30132461393D1E9DC
:1040900000013B4602F082F8DDE90267CDE910013C
:1040A0003946304602F014FB054602F011F802468C
:1040B0000B463046394601F0BDFE079A3035B9F15E
:1040C000010F157006460F4602F1010523D0079B2C
:1040D000CDF808A04B445E469A46AB460022424BC0
:1040E00002F05CF88946804602F0F2FA074601F0D9
:1040F000EFFF303702460B464046494601F09AFE34
:104100000BF8017BD345E9D1139BDDF808A0B3463A
:104110000F4606461D440022344BDDE9100101F034
:104120008BFE32463B4602F0ABFA002847D0129B8A
:10413000049315F8018CFFF72CBB059B069A9D1A7A
:104140000023FFF760BB149B089F059DC3F1360356
:10415000FFF759BBDDE90E234FF00208CDE902233A
:1041600048E5069B002B3FF4B6AE0C9D002D7FF773
:10417000DFAE00221C4BDDE9020102F00FF806461B
:104180000F4608F10100CDE9026701F0A1FF0246E8
:104190000B463046394602F001F80F4B002201F081
:1041A0004BFE049B013B0646A1F150771293A946B2
:1041B00041E53922B2463A704E467D1C07E4DDE9FE
:1041C00010230020094901F035FE32463B4602F03B
:1041D00075FA70B9ACE600BF00001C400000144046
:1041E00010754000E8754000000024400000E03FEA
:1041F000154615F8013C302B05F1FF32F8D0129B23
:104200000493FFF7D8BA4346DDF808B0A0461C4631
:10421000129B0493FFF7BDBAB946FFF771BBBCF11F
:10422000390FC6D0BAF1000F7FF7BFAE05F1310CE0
:10423000BBE67FF4BAAE1CF0010F3FF4B6AEAEE6BB
:104240004FF000084646A9E5209B022B04DC0C9B9E
:1042500002E64FF00208CDE40C9B069318E6209B83
:10426000022BF9DC0C9BFFF7EEBB002565642946A9
:10427000204600F0AFFE4FF0FF3306930C9301236E
:104280000790219520640993FFF7D2B93FF44DAB15
:10429000C0F13C00FFF744BB0123099359E5012518
:1042A000FFF790B98B899AB22DE9F0410D461107BD
:1042B00080463CD46A6843F40063002AAB8165DD24
:1042C000AE6A002E4BD09BB203F48052002192B212
:1042D000D8F80040C8F80010002A5BD02A6D5F07AC
:1042E00005D569682B6B521A0BB1EB6BD21A40469D
:1042F000E9690023B047461C56D0AB892A692A6079
:1043000023F400639BB200226A60DA04AB813BD4E1
:10431000296BC8F8004011B305F14003994202D05F
:10432000404600F06BF900202863BDE8F0812E695B
:10433000AEB12C682E6091070CBF6B690023A41BE3
:10434000AB600AE0324623466F6AE9694046B847E7
:104350000028A4EB0004064404DD002CF2DC00205D
:10436000BDE8F081AB8943F04003AB814FF0FF30F3
:10437000BDE8F081AB892A69696023F400639BB2D0
:10438000AB81DB042A60C3D52865C1E7EA6B002A4C
:1043900096DCE4E701234046E969B047431C024646
:1043A00019D0AB89AE6A9AE7D8F800100029E1D09D
:1043B0001D2907D0162905D0AB8943F04003AB81F6
:1043C000BDE8F081AB892A692A6023F400630022EA
:1043D000AB816A609CE7D8F80030002BE1D01D2B40
:1043E00007D0162B05D0AB8943F04003AB81BDE865
:1043F000F081C8F80040B2E710B5044682B008B1B9
:10440000836B53B1B1F90C0008B902B010BD20465E
:1044100002B0BDE81040FFF745BF019100F080F801
:104420000199EFE7014900F0C1B900BF595D4000B3
:104430002DE9F04F354B4568C3630024074600F56E
:104440003B7204230321C0F8E412C0F8E822C0F84C
:10445000E04283B02C606C60AC606C66EC812C61D7
:104460006C61AC61AB81214605F15C000822FDF76F
:10447000E7FBBE68DFF898B0DFF898A0DFF8989007
:10448000DFF89880C5F820B001230922C5F824A0E0
:10449000C5F82890C5F82C80ED612146F381B281E2
:1044A00006F15C0034607460B460746634617461F9
:1044B000B46108220193FDF7C3FBFD68F661122089
:1044C0000222C6F820B0C6F824A0C6F82890C6F884
:1044D0002C802146A881EA812C606C60AC606C66FF
:1044E0002C616C61AC6105F15C000822FDF7A8FB52
:1044F000019BED61C5F820B0C5F824A0C5F828904F
:10450000C5F82C80BB6303B0BDE8F08F25444000A4
:10451000255A4000495A4000815A4000A15A4000A3
:10452000836B03B17047FFF783BF00BF704700BFC5
:10453000704700BF38B5084B084DED1AAC1018BFD6
:10454000ED1805D0013C55F8043D9847002CF9D1F1
:10455000BDE8384003F066B830764000347640005D
:10456000F8B5234F0C46064600F030FDBB685D6889
:1045700025F00305291B01F6EF7121F47F6121F07D
:104580000F01A1F58054B4F5805F07DB30460021B0
:1045900001F036FABB682B44984204D0304600F054
:1045A00017FD0020F8BD3046614201F029FA0130C4
:1045B0000DD0104BBA6819682D1B45F00105304627
:1045C000091B5560196000F003FD0120F8BD30465D
:1045D000002101F015FABA68831A0F2BDEDD064CB4
:1045E0000449246843F00103001B53600860D5E7C9
:1045F0007C040020040D00208808002000294ED0F3
:104600002DE9F0410C46804600F0E0FC54F8047CB3
:10461000624927F00102A4F10805AB188E685868BA
:104620009E4220F003005AD0FE0758600BD454F885
:10463000087CED1B01F1080EAC6874453A4467D064
:10464000EF68E760BC601C186468E4070CD4544F42
:104650009C68BC4202447CD0D868E06042F0010310
:1046600084606B60AA5003E042F001036B60AA50C3
:10467000B2F5007F14D2D20801EBC20348689F68EC
:10468000AF609210012404FA02F21043EB6048601C
:104690009D60FD604046BDE8F04100F099BC704768
:1046A000530A042B47D8930903F13804600001EB47
:1046B00080003A498368834243D0596821F003015E
:1046C000914202D99B689842F7D1DA68EA60AB6000
:1046D00040469560DD60BDE8F04100F079BCFF0721
:1046E000024407D454F8083CED1A1A44A868EB6851
:1046F000C36098602B4B1B6842F001009A426860CF
:104700008D60C7D3284B40461968FFF729FFC1E7E2
:1047100019184968C90709D4D9689B68024442F04E
:104720000100D9608B606860AA50B3E742F00103D2
:104730006B60AA50AEE7142B14D803F15B04600041
:10474000B5E74A68A4100120A04002434A601A4617
:10475000BCE742F001034D610D61EC60AC606B6041
:10476000AA5097E7542B04D8130B03F16E04600092
:104770009DE7B3F5AA7F04D8D30B03F1770460005B
:1047800095E740F25450834204D8930C03F17C0423
:1047900060008CE7FC207E2489E700BF7C040020B9
:1047A0008404002084080020000D00202DE9F84337
:1047B00010F538771FD0884606464FF000097D680F
:1047C000BC68013D11D4A389012B05F1FF3508D93F
:1047D000B4F90E3001332146304602D0C04749EAD1
:1047E00000096B1C04F16804EDD13F68002FE6D18D
:1047F0004846BDE8F883B9464846BDE8F88300BF9F
:104800000048704744040020024B0146186800F03D
:1048100003B800BF400400202DE9F04F01F10B0563
:10482000162D83B0064627D935F0070500F1B6806E
:10483000A94200F2B38000F0C9FBB5F5FC7F22D29B
:10484000C24FE80807EBC003DC689C4200F0C88157
:104850006368E168A56823F00303234430465A687F
:10486000E96042F001028D605A6000F0B1FB08344B
:10487000204603B0BDE8F08F102900F28F8000F0D1
:10488000A5FB1025DCE7680A00F08F80042800F201
:104890005481A80938304100AC4F07EB8101CC6846
:1048A000A14206D10CE0002A80F28280E468A14295
:1048B00006D0636823F003035A1B0F2AF3DD013887
:1048C0000130A2493C6901F1080E744500F07D8178
:1048D000636823F003035A1B0F2A00F36381002A45
:1048E000C1F814E0C1F810E073DAB3F5007F80F08E
:1048F0003981DB0801EBC3084FEAA30C4A68D8F8FA
:104900000890C4F80890012303FA0CF31343C4F889
:104910000C804B60C8F80840C9F80C408210012494
:1049200094409C4262D8234206D120F003006400E8
:10493000234200F10400FAD007EBC008C4468146C8
:10494000DCF80C309C4507D141E1002980F251810F
:10495000DB689C4500F03B815A6822F00302511B42
:104960000F29F2DD1C46D3F80CC054F8088F5A19F1
:1049700045F0010941F00105C3F804903046C8F83C
:104980000CC0CCF808807A613A61C2F80CE0C2F839
:1049900008E05560515000F01BFB69E700240C2330
:1049A0002046336003B0BDE8F08F7E213F2073E7DF
:1049B0002344E1685A68A56842F00102E960304684
:1049C0008D605A6000F004FB0834204603B0BDE857
:1049D000F08F234430465A6842F001025A6000F0DA
:1049E000F7FA0834204603B0BDE8F08FBC6863686E
:1049F00023F00308454504D8C5EB08030F2B00F34B
:104A00008C80534BDFF858A11A68DAF80030013374
:104A10002A4404EB080B00F0508102F580520F325B
:104A200022F47F6222F00F0211463046019200F01C
:104A3000E7FFB0F1FF3F8146019A00F047818345CF
:104A400000F2EE80434B1968CB451144196000F029
:104A50004281DAF80000DFF808E101301BBFCBEB40
:104A6000090B5944CEF80090196019F0070100F0C5
:104A70000781C1F10800C1F58051814408314A44E1
:104A8000C2F30B02C2EB010A51463046019300F01B
:104A9000B7FF431C019B00F02C81C9EB000252447C
:104AA00042F001021968C7F808905144BC42C9F8A5
:104AB00004201960DFF89CA016D0B8F10F0F40F267
:104AC000EE806268A8F10C0323F00703E01802F0FF
:104AD00001024FF0050E1A430F2B6260C0F804E08C
:104AE000C0F808E000F209811B4BBC681A689142CB
:104AF00088BF1960194B1A689142626888BF1960B3
:104B000022F003029542A2EB050301D80F2B04DC2F
:104B1000304600F05DFA0024AAE6621943F0010372
:104B200045F0010565603046BA60536000F050FA08
:104B30000834204603B0BDE8F08F142868D9542803
:104B400000F29780280B6E304100A5E67C0400201F
:104B5000000D0020040D0020FC0C0020F80C0020AB
:104B6000880800205A0A042A55D9142A00F2A7807E
:104B70005B324FEA420C07EB8C0CDFF8BC81DCF8AF
:104B8000081061457FD04A6822F00302934202D2A6
:104B900089688C45F7D1CA687B68E260A16094603F
:104BA000CC60BBE6631942F0010745F00105656082
:104BB00030464B610B61C3F80CE0C3F808E05F605E
:104BC0009A50083400F004FA52E64B68A6E609F160
:104BD000010919F0030F0CF1080C7FF4B1AE2CE0C1
:104BE00004F108036469A34208BF02303FF469AED0
:104BF0002EE61A441C465168DB6854F8085F41F001
:104C0000010151603046EB609D6000F0E1F92FE654
:104C10005B30410040E69A0938324FEA420CAAE77D
:104C2000BC42454B3FF40EAF9C68626822F0030221
:104C300068E7D8F8008098457CD110F0030FA8F100
:104C4000080300F1FF30F4D17B6823EA04037B60A2
:104C500064009C423FF6CAAE002C3FF4C7AE23422C
:104C600048467FF469AE6400234200F10400FAD0A4
:104C700062E6B0F5AA7F18D8E80B773041000BE662
:104C80004FF48051FBE6D8F8043092104FF0010C3D
:104C90000CFA02F21343C8F804300A467DE70123F8
:104CA000C9F804304C4600222CE740F25453984295
:104CB0001CD8A80C7C304100EEE51032B4E6542A32
:104CC00023D81A0B6E324FEA420C54E7BC68626874
:104CD00022F0030216E7CBF30B0000287FF4B9AEF5
:104CE0004244BB6842F001025A60FDE6FC217E208E
:104CF000D2E501224FF0000AD4E604F10801304663
:104D0000FFF77CFCDAF80010EEE6B2F5AA7F04D8D3
:104D1000DA0B77324FEA420C2DE740F254518A42C7
:104D200004D89A0C7C324FEA420C24E74FF0FC0C7A
:104D30007E2220E77B688BE77C040020830770B429
:104D4000C9B240D0541E002A3FD003788B4218BF0E
:104D5000431C06D11DE0F4B102788A4204F1FF340D
:104D600017D013F0030F184603F10103F3D1032CFE
:104D700014D884B103788B420BD00519431C02E090
:104D800002788A4205D0AB42184603F10103F7D1FD
:104D9000002070BC7047204670BC704741EA012675
:104DA000024646EA06461046043203687340A3F101
:104DB000013525EA030313F0803FDAD1043C032CCC
:104DC0001046F0D8D5E71446D1E71046E1E700BF1A
:104DD000844641EA000313F003036DD1403A41D306
:104DE00051F8043B40F8043B51F8043B40F8043BC5
:104DF00051F8043B40F8043B51F8043B40F8043BB5
:104E000051F8043B40F8043B51F8043B40F8043BA4
:104E100051F8043B40F8043B51F8043B40F8043B94
:104E200051F8043B40F8043B51F8043B40F8043B84
:104E300051F8043B40F8043B51F8043B40F8043B74
:104E400051F8043B40F8043B51F8043B40F8043B64
:104E500051F8043B40F8043B51F8043B40F8043B54
:104E6000403ABDD2303211D351F8043B40F8043BF4
:104E700051F8043B40F8043B51F8043B40F8043B34
:104E800051F8043B40F8043B103AEDD20C3205D304
:104E900051F8043B40F8043B043AF9D2043208D0FC
:104EA000D2071CBF11F8013B00F8013B01D30B886E
:104EB00003806046704700BF082A13D38B078DD04C
:104EC00010F003038AD0C3F10403D21ADB071CBF1E
:104ED00011F8013B00F8013B80D331F8023B20F888
:104EE000023B7BE7043AD9D3013A11F8013B00F8C1
:104EF000013BF9D20B7803704B7843708B78837049
:104F0000604670478842F0B50DD98B1898420AD296
:104F10008118002A54D09A1A13F8014D01F8014D56
:104F20009342F9D1F0BD0F2A48D940EA01039B070B
:104F300047D100F1100401F11003154653F8106C2D
:104F400044F8106C53F80C6C44F80C6C53F8086C73
:104F500044F8086C103D53F8046C44F8046C0F2DB1
:104F600003F1100304F11004E8D8A2F1100323F0B8
:104F70000F0302F00F0E1033BEF1030F1944034468
:104F800021D91E1F0D467446043C55F8047B46F893
:104F9000047F032CF8D8AEF1040424F00304043495
:104FA0002344214402F0030252B1013B0A4411F8A8
:104FB000014B03F8014F9142F9D1F0BD0346F3E7ED
:104FC000F0BD0346F1E77246EEE700BF704700BF51
:104FD000704700BFC36C70B505460C464BB153F823
:104FE000240080B1026843F8242000230361C360D9
:104FF00070BD0421212200F06DFEE8640346002804
:10500000EDD1002070BD012101FA04F6721D284681
:10501000920000F05FFE0028F3D044608660E4E771
:1050200031B1C36C4A6853F82200086043F822107B
:10503000704700BFF0B50C6983B00D46064601F11C
:10504000140E0027DEF8001088B2090C02FB0033B2
:1050500002FB01F101EB134101379BB203EB01436A
:10506000BC424EF8043B4FEA1143EBDC3BB1AA686B
:10507000944207DA05EB8402013453612C6128461F
:1050800003B0F0BD6968019301313046FFF7A2FF1C
:105090002A69023205F10C01074692000C30FFF735
:1050A00097FEF26C6968019B52F82100286042F873
:1050B00021503D46DEE700BF030C1B04B3B90004DA
:1050C000102310F07F4F04BF0002083310F0704F20
:1050D00004BF0001043310F0404F04BF80000233CE
:1050E000002807DB420003D4202070470023E8E7B4
:1050F000581C704718467047036813F0070207D022
:10510000D90720D49A0720D49B0803600220704757
:1051100099B209B91B0C102213F0FF0F04BF1B0A30
:105120000832190704BF1B090432990704BF9B0802
:105130000232D90704D45B0801D120207047013224
:10514000036010467047002070475B080360012031
:10515000704700BF10B50C460121FFF73BFF01224D
:105160004461026110BD00BF2DE9F04F0F6916695F
:10517000B74283B00D461446C0F28D8033463E469A
:105180001F46AB68696806EB07089845C8BF013140
:10519000FFF720FF00F1140C0CEB8809CC450090C0
:1051A00005D26346002143F8041B9945FBD804F15E
:1051B000140202EB870A05F11403524503EB860E35
:1051C00054D2CDF80490994652F8043B1FFA83FB61
:1051D000BBF1000F20D000204F466646054600E098
:1051E0001E4657F8044B3068A1B283B20BFB013165
:1051F000240C000C4B190BFB040000EB134099B27C
:10520000334641EA0041BE454FEA104543F8041BCE
:10521000E6D8756052F8043C5FEA134B20D0DCF806
:105220000030674618464D46002100E037462C887E
:10523000000C0BFB040001449CB23E4644EA0143CF
:1052400046F8043B786855F8044B83B2240C0BFBFA
:10525000043404EB1143AE454FEA1341E6D87B60BA
:1052600092450CF1040CAFD8DDF80490B8F1000FB2
:105270000BDD59F8043CA9F104091BB105E059F80C
:10528000043D13B9B8F10108F9D10098C0F81080B5
:1052900003B0BDE8F08F15460C4672E712F0030329
:1052A0002DE9F041144607460E462DD1A4101CD01E
:1052B000BD6C95B3E3074FF0000806D4641014D01A
:1052C0002868A8B10546E307F8D5384631462A468E
:1052D000FFF74AFFB6B17268FB6C641053F82210F6
:1052E000316043F822600646EAD13046BDE8F081DD
:1052F00029462A463846FFF737FF2860C0F8008065
:105300000546E0E70646D9E75A1E0B4D002355F83F
:105310002220FFF78FFE0646C8E701213846FFF737
:1053200059FE40F2712101220023416102610546CC
:10533000B8640360BEE700BFD87540002DE9F047B0
:105340000F698B684FEA62194F447D1C9D420E46DF
:1053500014464968804604DD5B009D4201F101016D
:10536000FADC4046FFF736FEB9F1000F00F11401F8
:1053700009DD00239E460A4601334B4542F804EB03
:10538000FAD101EB8301326906F1140314F01F0C0A
:1053900003EB820E1FD0CCF1200900221C6804FA16
:1053A0000CF414438A4641F8044B53F8044B9E45D1
:1053B00024FA09F2F2D8CAF8042002B1BD1CD8F8C8
:1053C0004C307268013D53F822100561316043F89A
:1053D0002260BDE8F087043953F8042B41F8042F0C
:1053E0009E45F9D8EBE700BF02690B69D21A13D1C9
:1053F0009B0014301431194410B4034401E0984266
:105400000CD253F8044D51F8042D9442F7D009D32F
:1054100001205DF8044B70471046704700205DF88E
:10542000044B70474FF0FF305DF8044B704700BFEE
:105430002DE9F0410E460546114630461446FFF769
:10544000D3FF071E54D04DDB4FF00008716828468B
:10545000FFF7C0FD37692369C0F80C80143604F1EA
:10546000140202EB830C00F1140506EB870E0023F7
:1054700056F8048B52F8044B13FA88F3A1B2240CAB
:10548000591AC4EB184303EB214389B241EA0341A3
:10549000944545F8041B4FEA23433446E8D8B64503
:1054A000AC4615D954F8042B13FA82F1130C03EB14
:1054B000214389B241EA0341A64545F8041B4FEA5E
:1054C0002343EFD8F643764426F0030504356544BC
:1054D000043D21B955F8043D013F002BFAD0076186
:1054E000BDE8F08133464FF0010826461C46ADE783
:1054F00028463946FFF76EFD012347610361BDE889
:10550000F08100BF2DE9F04182B001211C46C3F3B8
:105510000A571546089EFFF75DFDC4F31304804645
:105520000FB144F4801401941DB302A840F8085D43
:10553000FFF7E2FD002834D19DE80C00C8F81420E4
:10554000002B14BF02240124C8F81830C8F81040FA
:10555000DFB908EB8403A0F2324030601869FFF72E
:10556000ABFD099BC0EB44101860404602B0BDE89B
:10557000F08101A8FFF7C0FD0124019BC8F8143099
:105580002030C8F81040002FE3D0099BA7F2334722
:105590000744C0F1350037601860404602B0BDE8EE
:1055A000F0819DE80C00C0F1200103FA01F10A43EB
:1055B000C3400193C8F81420C2E700BF2DE9F04FA3
:1055C000174683B00E46002900F0E780814607F1B8
:1055D0000B05FFF7FBFC56F8043C162D23F00304E3
:1055E000A6F108084CD810221546AF424DD8944277
:1055F00080F28480DFF8ACB3DBF8080008EB04012C
:10560000884200F0D680486820F0010E8E44DEF813
:1056100004E01EF0010F3FD120F00300204490422F
:1056200080F2C180DB0700F18F8056F8083CC3EBA5
:10563000080ADAF8043023F0030300EB030E964562
:1056400034DBCB688A685746D3609A6057F8081FE6
:10565000DAF80C30CB60221F242A996000F23681E0
:10566000132A40F2FD803368CAF808307368CAF81C
:105670000C301B2A00F2408108360AF11003F0E0DA
:1056800025F00705002D2A46AFDA0C230020C9F8C3
:10569000003003B0BDE8F08FD90755D456F8083C68
:1056A000C3EB080ADAF8043023F0030323449342DF
:1056B0004ADB5746DAF80C1057F8080F221F242A45
:1056C000C160886000F20E81132A40F209813168BE
:1056D000CAF808107168CAF80C101B2A00F2218160
:1056E00008360AF110023168116071685160B168C2
:1056F00091601C46DAF804303E46D046621B0F2A01
:1057000003F001030ED823434444C8F8043063680F
:1057100043F0010363604846FFF75AFC304603B08C
:10572000BDE8F08F08EB05011D4342F001030A4478
:10573000C8F804504B60536843F0010308315360CC
:105740004846FEF75BFFE6E739464846FFF764F850
:105750000746D8B156F8043C23F001024244A0F1B8
:105760000801914200F0AC80221F242A00F29980A7
:10577000132A6AD803463246116819605168596085
:1057800092689A6031464846FEF738FF4846FFF770
:105790001FFC384603B0BDE8F08F114603B0BDE8EA
:1057A000F04FFFF739B8CA6889680446CA6091604B
:1057B000A4E7416821F00301214405F11000814272
:1057C0005BDADB07C0D456F8083CC3EB080ADAF80A
:1057D000043023F0030301EB030C60453FF766AF91
:1057E0005746DAF80C3057F8081F221F242ACB60DE
:1057F000996000F2B880132A40F2A9803368CAF891
:1058000008307368CAF80C301B2A00F2B5800836DD
:105810000AF1100332681A6072685A60B2689A60BE
:105820000AEB0502C5EB0C0343F00103CBF808209B
:105830005360DAF8043003F001031D434846CAF808
:105840000450FFF7C5FB384669E7336803607368A7
:1058500043601B2A29D800F1080306F108028BE7F0
:105860003B4632681A6072685A60B2689A603E4677
:105870007446DAF80430D04640E708EB05024B1BCB
:1058800043F00103CBF80820536056F8043C03F0C2
:1058900001031D43484646F8045CFFF799FB304678
:1058A0003DE73146FFF72EFB6CE7B3688360F36892
:1058B000C360242A2CD000F1100306F110025BE72C
:1058C00050F8042C22F00302144417E731463846FE
:1058D00074463E46FFF716FBD046DAF804300DE773
:1058E0003A4600E7314638461C463E46FFF70AFB7B
:1058F000D046DAF8043001E7B368CAF81030F3682C
:10590000CAF81430242A18D010360AF11803A8E770
:10591000336903617369436106F1180200F11803EA
:105920002AE7B168CAF81010F168CAF81410242ADE
:105930000FD010360AF11802D5E63369CAF81830CC
:105940007369CAF81C3018360AF1200389E73B4610
:1059500060E73269CAF818207269CAF81C20183644
:105960000AF12002BFE631463846CDF804C0FFF701
:10597000C9FADDF804C053E7B368CAF81030F36819
:10598000CAF81430242A03D010360AF1180341E76C
:105990003369CAF818307369CAF81C3018360AF12E
:1059A000200337E77C04002010B431F0004408D015
:1059B000114BA1F580129A4208D804205DF8044BDF
:1059C000704718B902205DF8044B704701F1FF41A0
:1059D000094B01F5E0019942EFD9B4F5801F01D2DE
:1059E0000320EBE7054B9C4201D00020E6E7B0FA2C
:1059F00080F04009E2E700BFFFFFDF7F0000F07F9B
:105A000038B5074C0023054608462360FBF77CFEAB
:105A1000431C00D038BD2368002BFBD02B6038BD61
:105A20004C0D002010B50C46B1F90E1000F0EAF94B
:105A3000002803DB236D0344236510BDA38923F4F1
:105A40008053A38110BD00BF2DE9F04116468A891D
:105A50001D46D3050C46074606D50022B1F90E10A7
:105A6000022300F0BBF9A289B4F90E1022F480528F
:105A7000A281384632462B46BDE8F04100F0C4B85A
:105A800010B50C46B1F90E1000F0A8F9A389421C1C
:105A90000EBF23F4805343F480532065A38110BDCF
:105AA000B1F90E1000F046B920F0030110F0030028
:105AB000C0F1000051F8043B00F1040C4FEACC0C9B
:105AC0006FF000021CBF22FA0CF213434FF0010CDE
:105AD0004CEA0C2C4CEA0C4CA3EB0C0222EA03021D
