:020000040040BA
:10000000B03B002095094000910940009109400053
:100010009109400091094000910940000000000052
:10002000000000000000000000000000A10C4000E3
:100030009109400000000000590D40009109400066
:100040009109400091094000910940009109400048
:100050009109400091094000910940009109400038
:100060009109400091094000000000000105400096
:10007000F9054000F1064000910940009109400057
:1000800000000000000000009109400091094000BC
:1000900091094000910940009109400091094000F8
:1000A00091094000910940009109400091094000E8
:1000B00091094000910940009109400091094000D8
:1000C00091094000910940009109400010B5054C8C
:1000D000237833B9044B13B10448AFF300800123F4
:1000E000237010BDAC08002000000000B88640005E
:1000F000084B10B51BB108490848AFF30080084809
:10010000036803B910BD074B002BFBD0BDE81040BE
:10011000184700BF00000000B0080020B88640006B
:10012000B88640000000000070B50F480F4D104C1D
:10013000A8473E2100200F4B9847A0470028FCD03D
:100140000D4B0E4C98470E4B0E4A9A62A047002862
:10015000FCD00D4B002098470C4B98472B4602488B
:10016000BDE87040184700BF000E2707150B400080
:100170009508400045084000A5084000B50840002B
:1001800000040E40033F1D20E9074000250A4000FF
:10019000A0B9002A2DE9F04190460DDD094F0A4E25
:1001A0000C468D1821463868336801349847AC42B4
:1001B000F8D14046BDE8F081BDE8F0814FF0FF3056
:1001C000704700BFA40B00209C0B002001380228C0
:1001D0001ED82DE9F0411546BAB10E46DFF83C8035
:1001E0000D4F0C4601E0013D0DD014F8011BD8F86D
:1001F00000003B6898470028A4EB0600F3DA4FF0B4
:10020000FF30BDE8F081BDE8F0811046BDE8F08127
:100210004FF0FF30704700BFA00B0020A40B002060
:10022000114B4FF4004270B50B205A600F4D104C2B
:10023000A8470C20A8470D20A8474FF06051132075
:10024000A0474FF060511420A0470A492320A0473F
:1002500009494C20A0474FF000624FF4C0610748A5
:10026000074BBDE87040184750140E40C5084000C9
:10027000B10240007900002859000028000E0E400D
:10028000F9034000C06C7047806C7047430903F568
:10029000001303F207735B0200F01F00996B012249
:1002A00002FA00F0014214BF58631863704700BFA0
:1002B000430903F5001301F0F04203F20773B2F1B2
:1002C000005F70B44FEA432300F086800BD8B2F190
:1002D000805F28D0B2F1C05F6AD0B2F1006F37D032
:1002E000002070BC7047B2F1405F48D0B2F1605F4F
:1002F00045D0B2F1205FF3D100F01F00012282400F
:10030000CD075A644CBF5A661A6611F00A0F14BF23
:100310001A625A628C0768D5C3F880205A611A6045
:10032000012070BC704700F01F02012000FA02F2A9
:100330005A641C6F14431C675D6F5C6F2C4024EA89
:100340000204C9075C675A6016D55A6670BC7047CC
:1003500000F01F02012000FA02F25A641E6F1C6FA7
:10036000D54334402C401C675E6F5C6F34402540A1
:10037000CC075D675A60E8D41A6670BC704700F01D
:100380001F000122824001F0040401F06050C907FF
:100390005A644CBF5A661A6664B31A65B0F1605F5E
:1003A0000CBF1A635A631A611A60012070BC70474F
:1003B00000F01F02012000FA02F25A641D6F1C6F48
:1003C0002C4024EA02041C675C6FCE0744EA020456
:1003D0005C675A60D0D5B8E700F01F02012000FA30
:1003E00002F25A641C6F1443EDE7080748BFC3F8D4
:1003F000842093E75A65D1E730B402F0F044B4F1B9
:10040000005F034670D00BD8B4F1805F24D0B4F104
:10041000C05F5AD0B4F1006F2FD0002030BC7047BD
:10042000B4F1405F3CD0B4F1605F39D0B4F1205FEB
:10043000F3D1D50741644CBF4166016612F00A0F43
:1004400014BF01624162940752D5C0F8801059610F
:100450001960012030BC70474164006F0843186781
:100460005C6F586F204020EA01005867D007596040
:1004700012D55966012030BC70474164056F046F86
:10048000C8432C4004401C675D6F5C6F2C402040CB
:10049000D40758675960ECD41966012030BC704706
:1004A00002F0605002F00404D20759644CBF596650
:1004B000196614B31965B0F1605F0CBF1963596315
:1004C00019611960012030BC70474164046F006FEE
:1004D000204020EA01001867586FD20740EA010067
:1004E00058675960D8D5C4E74164006F0843F2E704
:1004F000100748BFC3F88410A9E75965DBE700BFC0
:1005000070B5374B37489847374B044635489847BE
:1005100014EA00051BD0354C20680B2823D0206935
:10052000324E0B282ED0206A304E0B2833D0206B51
:100530002E4E0B2838D0206C2C4E0B283DD0206D31
:100540002A4E0B2842D0206E284B0B2814D0284B63
:100550001B683BB1274B1B681BB12248BDE87040AC
:10056000184770BD70BD61680D42D8D0E3689847E8
:1005700063689D43EBD0D2E7596E2942E7D0DB6E2A
:100580009847E4E771692942CDD0F36998477369C8
:100590009D43DCD0C7E7716A2942C8D0F36A984707
:1005A000736A9D43D3D0C2E7716B2942C3D0F36B0A
:1005B0009847736B9D43CAD0BDE7716C2942BED08A
:1005C000F36C9847736C9D43C1D0B8E7716D2942B5
:1005D000B9D0F36D9847736D9D43B8D0B3E700BFB2
:1005E00085024000000E0E4089024000CC08002029
:1005F000A80B0020C808002070B5374B3748984733
:10060000374B04463548984714EA00051BD0354C53
:1006100020680C2823D02069324E0C282ED0206A66
:10062000304E0C2833D0206B2E4E0C2838D0206C46
:100630002C4E0C283DD0206D2A4E0C2842D0206E26
:10064000284B0C2814D0284B1B683BB1274B1B6848
:100650001BB12248BDE87040184770BD70BD61688D
:100660000D42D8D0E368984763689D43EBD0D2E74A
:10067000596E2942E7D0DB6E9847E4E77169294259
:10068000CDD0F369984773699D43DCD0C7E7716AA1
:100690002942C8D0F36A9847736A9D43D3D0C2E712
:1006A000716B2942C3D0F36B9847736B9D43CAD0DB
:1006B000BDE7716C2942BED0F36C9847736C9D43C3
:1006C000C1D0B8E7716D2942B9D0F36D9847736D09
:1006D0009D43B8D0B3E700BF8502400000100E4034
:1006E00089024000CC080020A80B0020C808002088
:1006F00070B5374B37489847374B044635489847CD
:1007000014EA00051BD0354C20680D2823D0206941
:10071000324E0D282ED0206A304E0D2833D0206B5B
:100720002E4E0D2838D0206C2C4E0D283DD0206D3B
:100730002A4E0D2842D0206E284B0D2814D0284B6D
:100740001B683BB1274B1B681BB12248BDE87040BA
:10075000184770BD70BD61680D42D8D0E3689847F6
:1007600063689D43EBD0D2E7596E2942E7D0DB6E38
:100770009847E4E771692942CDD0F36998477369D6
:100780009D43DCD0C7E7716A2942C8D0F36A984715
:10079000736A9D43D3D0C2E7716B2942C3D0F36B18
:1007A0009847736B9D43CAD0BDE7716C2942BED098
:1007B000F36C9847736C9D43C1D0B8E7716D2942C3
:1007C000B9D0F36D9847736D9D43B8D0B3E700BFC0
:1007D0008502400000120E4089024000CC08002033
:1007E000A80B0020C808002015490B6B23F07003EC
:1007F000184308638B6E1B0758BF4FF4006302D584
:1008000004E0013B17D08A6E1007FAD50C490B6B38
:1008100023F0030343F002030B63886E10F008001B
:1008200008BF4FF4006302D007E0013B03D08A6E9B
:100830001207FAD57047012070470020704700BFAB
:1008400000040E40C0B9104A136A23F45C1323F06D
:100850000303090243F45C1389B243F001030B4321
:100860001362936E0849DB07FBD50B6A43F09B7359
:1008700043F480330B6270470349044A086A044B0F
:10088000024013430B62704700040E40FCFFC8FE99
:1008900002003701024B986E00F48030704700BFB1
:1008A00000040E40024B4FF000529A62704700BFA6
:1008B00000040E40024B986E00F00200704700BF2B
:1008C00000040E40222819D81F280E4A09D80123F7
:1008D000916903FA00F030EA010311D010610020A1
:1008E000704701232038D2F8081103FA00F030EAEB
:1008F000010305D0C2F800010020704701207047B5
:100900000020704700040E4010B4AC230360024680
:100910000B684868B3FBF0F31B095C1E4FF6FE70D2
:1009200084420BD813628B68536040F2022150233B
:10093000C2F820111360002010BC7047012010BCC9
:10094000704700BF43699B0746BFC161002001207B
:10095000704700BF4369DB0743BF83690B7000200A
:100960000120704743699B0743BFC1F30801C16180
:1009700000200120704700BF4369DB0705D583696C
:10098000C3F308030B60002070470120704700BFCD
:10099000FEE700BF18491948814208B50CD815D2A6
:1009A000174B0439181A421880B152F8040943F859
:1009B000040D8A42F9D109E0114B984206D2C24394
:1009C000134423F0030204320E4B984700BF0E4835
:1009D0000E4B984207D2C243134423F00302043261
:1009E00000210B4B98470B4B0B4A9A600B4B9847D7
:1009F0000B4B9847FEE700BFB88640000000002080
:100A0000AC0800200D214000AC080020B00B0020F5
:100A10004122400000ED00E000004000A11A40002B
:100A20008119400010B434490B6B03F00303012B10
:100A30003CD023D30B6ADA0149D53048304B0360F0
:100A40002D490A6B02F00302022A0BBF8C6ACC6AA2
:100A50008A6ACA6AC4F30A4101FB03332649D2B247
:100A6000B3FBF2F20B6B03F07003702B16D1254B26
:100A7000A3FB02235B08036010BC7047224B1F4896
:100A80005B6913F0800F14BF4FF400424FF4FA4239
:100A900019490B6B03F07003702BE8D00B6BC3F399
:100AA000021322FA03F3036010BC70470B6ADB01E8
:100AB0001AD41248154C04600A6A02F07003102B15
:100AC00018D00F49202B0CBF0A462246E0E70B48FE
:100AD0000E4B03600A6A02F07002102A07D0202A27
:100AE000AED1074B0360ABE7054A0448D0E7084B9B
:100AF0000360A5E7064ACBE700040E400000002093
:100B0000001BB700ABAAAAAA10140E4000093D00B2
:100B100000127A00174B984219D9174B984210D9F6
:100B2000164B984220D9164B984217D9154B1649A7
:100B3000164A984294BF4FF00423154B0B60136084
:100B400070471149114A134B0B60136070470E49EF
:100B50000E4A4FF080630B60136070470A490B4ADE
:100B60000D4B0B60136070470749084A0B4B0B6035
:100B700013607047FF2C3101FF596202FF86930317
:100B8000FFB3C404FFE0F505000A0E40000C0E4060
:100B9000000500040001000400030004000200043A
:100BA000074A084913683BB118448142A6BF106048
:100BB00018464FF0FF307047034B1360F4E700BF57
:100BC0003C090020FC7F0220B03B00204FF0FF30AA
:100BD000704700BF4FF400534B600020704700BFC8
:100BE000012070470020704700F108034FF0FF31EB
:100BF000002281604360C36003610260704700BFF0
:100C000000230361704700BF43685A684A60426826
:100C10008A605A68916059604160086103680133D5
:100C20000360704710B40C68631C15D0C3681A6861
:100C3000944200F1080304D35B685A681268944236
:100C4000FAD25A684A6091608B6059600861036803
:100C500010BC0133036070470369F2E743688268A0
:100C60009A60836842685A6003695A68904204BF78
:100C700082685A60002202611A68013A1A6070475D
:100C800010B400234FF0807440F8081C40F8202C6A
:100C900040F8044C40F80C3C10BC4038704700BF92
:100CA000064B19680868B0E8F00F80F309884FF028
:100CB000000080F311884EF00D0E7047DC09002013
:100CC00002480068006880F3088800DF08ED00E053
:100CD000F8B50B4B0B4F1A680B4DDFF838E00B4C97
:100CE0000B4942F470021A601A68072642F07042FB
:100CF0001A600020C7F800E02E6020608847F8BD29
:100D000020ED00E014E000E010E000E0040000202E
:100D1000C10C4000BFD40100024B4FF080521A605A
:100D2000704700BF04ED00E04FF0500080F31188E1
:100D3000024A136801331360704700BF04000020AB
:100D4000044A1368013B13601BB94FF0000080F3A5
:100D50001188704704000020EFF309800C4B1A68DB
:100D600020E9F00F10602DE908404FF0500080F3AB
:100D7000118800F033FD4FF0000080F31188BDE8CA
:100D8000084019680868B0E8F00F80F309887047D8
:100D9000DC09002010B5054B044698472046044B5B
:100DA0009847044B04469847204610BD85124000E2
:100DB000191B4000E113400050B110B5054B04462B
:100DC00098472046044B9847044BBDE8104018470D
:100DD000704700BF85124000291B4000E11340000E
:100DE00008B5024D024CA847A047FCE7190D40008A
:100DF0007919400070B5314C2268236812681B6B6A
:100E00009A4242D923682E49186B2E4B2B4D14223F
:100E10009847002833D12C4A2C49136803EB8303ED
:100E20009B00CB584BB91368013B1360136803EB6D
:100E3000830351F82330002BF5D0136803EB8303B1
:100E40009B00C818083342685268426019448A42BD
:100E500031D01F4BD1681A682160184872B10268FE
:100E60001C4C516C2268914208D01B4A1B4D1168E2
:100E70002D6808318D420ED800221A6070BD286896
:100E80002968174B34319847C5E720682168144B0F
:100E900034319847B6E7134B016815681E6813682C
:100EA000496C216004331360106813682E600433AA
:100EB0000160136070BD52684260CAE7DC0900201F
:100EC00008844000A9204000540900205C0900204B
:100ED000C80900200C000020D8090020600A00206A
:100EE00061194000580900202DE9F04F83B0814678
:100EF000DFF8C0810D9E0E9D4C208A4614469B460D
:100F0000C047002800F08A800746002D7AD005638C
:100F1000A2002846544B554DA52198473A6B04F141
:100F2000804001385146524C02EB800A102207F1F2
:100F30003400A0470C9C042C28BF0424002207F195
:100F4000040887F84320FC62BC644046A847C4F10B
:100F5000050407F118002AF0070AA847BC615046AB
:100F60003F617F625A464946424CA047386006B10D
:100F70003760414A414C904741490A6801320A6052
:100F80002268002A37D03F4D2A6842B33E4E3F497F
:100F9000F86A0A68DFF820E1904288BF08603C499F
:100FA000DEF800300A687A64984202F1010288BFD4
:100FB000CEF8000000EB80000A6006EB800041469E
:100FC000344B9847344B98472B6823B123680C9ACD
:100FD000DB6A9A420BD8012003B0BDE8F08F22688B
:100FE0000C9BD26A284E934228BF2760CFE72B4B39
:100FF00098470120F0E727600A68234E012A12D0A3
:10100000204DC4E7A20010460192C047019A386300
:1010100000287FF47FAF3846214B98474FF0FF30D0
:1010200003B0BDE8F08FDFF894A0354606F16409FF
:1010300028461435D047A945DFF880B0F8D1DFF84D
:1010400080A0DFF880900F4D5046D8474846D847DB
:101050001448D8471448D8471449154AC1F800A085
:10106000C2F8009093E700BF41224000010C40000D
:10107000B1254000810C4000290D4000DC09002012
:10108000280A0020D00900205C090020640A002002
:10109000540A0020090C4000410D4000190D400089
:1010A000B90D400040090020140A0020CC0900209E
:1010B000C0090020950D400054090020E90B4000B4
:1010C0002C0A0020400A00202DE9F04F4C2081B06E
:1010D000514DA847002868D004464FF48C70A847AB
:1010E0002063002800F092804FF48C72A5214B4BB6
:1010F000DFF880914A4E9847206B4A494A4B1022AC
:10110000002700F58A7504F1040804F134009847BB
:10111000404684F84370E762A764C84704F11800AA
:10112000C84725F0070505233A46A3613F49404BD0
:1011300024612846646298473E4B206098473E4AA7
:101140001368013313603368002B38D03B4D2B6894
:10115000002B2DD03A4F3B4BE06A1A683A49904237
:101160003A4A88BF1860136863640C68A04288BF5D
:101170000860013300EB8000136007EB80004146FC
:10118000334B9847334B98472B6803B133684FF084
:10119000500080F31188304A304B01200021286034
:1011A000116001B0BDE8F04F184701B0BDE8F08F05
:1011B0003368234FDB6A002BCDD13460CBE734603A
:1011C00013681F4F012B01D01C4DC4E7DFF8A8B0F6
:1011D0003D4607F1640A28461435D8475545DFF8DF
:1011E0009890F8D1DFF894B0DFF894A0134D5846EA
:1011F000C8475046C8471A48C8471A48C8471A4AF5
:101200001A4BC2F800B0C3F800A0A4E7184B204660
:1012100001B0BDE8F04F1847950D40004122400055
:10122000DC090020EC834000B1254000E10D4000C6
:10123000810C4000290D4000280A0020D009002020
:101240005C090020640A002054090020540A002090
:10125000090C4000410D400058090020D10C40000D
:1012600040090020140A0020CC090020C0090020F9
:10127000B90D4000010C4000E90B40002C0A002091
:10128000400A0020024A136801331360704700BF10
:10129000580A0020014B1868704700BF280A002038
:1012A0002DE9F04F424B1B6883B0002B6CD1414CB1
:1012B0002368013323602368002B4CD03E4B0193FD
:1012C0001B6822683B499A423FD33C4D2B681B6800
:1012D000002B36D02B68DB68D3F80CB00968DBF83C
:1012E00004208A425FD8364F364EDFF8EC90DFF8A4
:1012F000EC8009E0314B1B68DB68D3F80CB0236845
:10130000DBF804209A424ED80BF1040A5046B84745
:10131000DBF828300BF118000BB1294B9847DBF8AC
:101320002C303268934203EB830088BF254A514634
:1013300009EB800088BF1360C0472B681B68002B37
:10134000D8D1019A4FF0FF3313601F4C2368B3B11B
:1013500003B0BDE8F08F194B1C4A18681C4915688A
:101360001D6010600A6801320A601A68126892B93A
:10137000114B01931A464FF0FF331360A1E7154B51
:1013800003B0BDE8F04F18470F4C124A23680133F1
:1013900023609047DAE71B68074ADB680192DB6845
:1013A0005B6813608DE7019B074C1A60CEE700BFB6
:1013B000580A00205809002008000020CC0900200D
:1013C0005D0C4000540900205C0A0020C009002088
:1013D000C40900207D1940005C090020090C400070
:1013E0002DE9F0472C4B98472C4B1A68013A1A60AC
:1013F0001E68002E40D12A4B1B68002B3CD0DFF822
:10140000C890284FDFF8C480CA461EE0DAF80C30D6
:10141000DC6804F11800251DB8472846B847E36A80
:10142000D8F800E02048214A03EB830C7345294695
:1014300000EB8C0088BFC8F8003090471C4BE26A74
:101440001B68DB6A9A4228BF0126D9F80030002BBE
:10145000DCD1184C23684BB123683BB1164DA8472B
:101460002368013B23602368002BF8D1012E134B26
:1014700008D01A68012A05D00024114B984720464D
:10148000BDE8F08700210F4A1960012490470C4BFA
:1014900098472046BDE8F087290D4000580A0020F3
:1014A000280A00205D0C40005C090020090C400067
:1014B000DC0900205C0A0020A1124000D4090020B1
:1014C000410D4000190D4000400900205409002042
:1014D00008B9184B18472DE9F0411749174D0A680C
:1014E000174F184E01320A6003462C6838680430E2
:1014F0001C44B0473A682B6854609C420FD3124A90
:10150000124B1068396804319847114B1A6894429D
:1015100038BF1C600F4B984740B1BDE8F0810E4AC0
:101520000A4B1068396804319847F3E7014BBDE86E
:10153000F0411847190D4000580A002058090020B2
:10154000DC0900205D0C4000CC090020250C400087
:1015500008000020E1134000C00900202DE9F04FF1
:10156000924B934A1F6893491368DFF868B20C885E
:10157000DFF858A28978DFF858920480013707EB2A
:10158000870501330BEB850585B006468170136036
:101590000C3D013F07EB87035BF82330C3B9143DD3
:1015A000002FF6D1844B1A681268002A40F0C080E0
:1015B000824B1A681268002A7DD1DFF81C82D8F8A5
:1015C0000030002B39D17E4B05B0BDE8F04F1847F5
:1015D00055F8043C5B6845F8043CAB4204BF6B68BB
:1015E00045F8043CD3F80C805B6845F8043CAB42FA
:1015F00004BF6B6845F8043CDC68226B1378A52BAC
:101600004FF0000306D112F8011F0133A5299BB248
:10161000F9D09B08E26A616C02918DE80C0069497F
:101620006948522304F13402D04767493046C8471D
:10163000A045B4D055F8043CD6E7D8F80430634F41
:101640005B68C8F8043008F108094B4508BFD8F8B2
:101650000C305F4DD3F80CA0DFF87CB108BFC8F8A0
:1016600004305B68C8F804304B4504BFDBF80C302D
:10167000CBF80430DC68226B1378A52B4FF0000305
:1016800006D112F8011F0133A5299BB2F9D09B089E
:10169000E26A616C02918DE80C004A494A48532382
:1016A00004F13402B84748493046A847A2458AD0D9
:1016B000D8F80430D5E7D3F80080444FD8F8043088
:1016C000434D5B68C8F8043008F108094B4504BF76
:1016D0005B68C8F80430D3F80CA05B68C8F8043025
:1016E000994504BFD8F80C30C8F80430DC68226B88
:1016F0001378A52B4FF0000306D112F8011F013318
:10170000A5299BB2F9D09B08E26A616C02918DE831
:101710000C002C492C48422304F13402B8472A49D2
:101720003046A847A2453FF448AFD8F80430D4E784
:10173000D3F80080254FD8F80430254D5B68C8F8F1
:10174000043008F108094B4504BF5B68C8F8043051
:10175000D3F80CA05B68C8F80430994504BFD8F8EA
:101760000C30C8F80430DC68226B1378A52B4FF0DE
:10177000000306D112F8011F0133A5299BB2F9D04D
:101780009B08E26A616C02918DE80C000D490E48DD
:10179000422304F13402B8470B493046A847A2451A
:1017A0003FF406AFD8F80430D4E700BF640A002045
:1017B000580A002054844000CC090020C0090020B1
:1017C000E1134000F4834000E00900206924400058
:1017D000B52440005C090020140A0020044B1B685B
:1017E0000BB9044B1847044B01221A60704700BF25
:1017F000580A0020F50D4000D409002008B5054E18
:10180000054D064C1320B0470548A8474FF47A70A1
:10181000A047F7E78D024000F11A4000D1144000C4
:101820001C84400080B5084C084F094E094DB8474C
:1018300001460948A0470948B0470848A0474FF467
:101840007A70A847F3E700BFF11A400095124000F4
:101850005D154000D114400030844000680A00202B
:1018600070B51B4B82B0002298420C4601921FD0EB
:10187000184B984224D0184B98420FD0174B9842DF
:1018800001D002B070BD164E01AD29461348B047D5
:101890000028FAD1019B237002B070BD104E01AD3B
:1018A00029460D48B0470028FAD1019B2370F3E781
:1018B0000C4D07482146A8470028FAD102B070BD58
:1018C000084D04482146A8470028FAD102B070BD4F
:1018D00000060E4000080E4000400240008002401A
:1018E000790940005509400038B5174B98420C461D
:1018F00012D0164B984217D0154B98421CD0154B5E
:10190000984201D0002038BD134D12482146A84707
:101910000028FAD1012038BD104D0B482146A847B8
:101920000028FAD1012038BD0C4D08482146A847AF
:101930000028FAD1012038BD074D05482146A847A7
:101940000028FAD1012038BD00060E4000080E40E4
:101950000040024000800240650940004509400007
:1019600008B50A46024B014602489847FEE700BF09
:10197000F11A400040844000704700BF704700BF2C
:101980002DE9F0412B4BDFF814812B4E2B4C2C4DC5
:101990002C4F88B098472C4B98472C492C4A2D4BFC
:1019A000C1F800802C4911602C4A1A604FF4E133D1
:1019B0004FF400622A49069308202A4B07920591AA
:1019C000984705A9284B40469847336800219868F6
:1019D000A047336800215868A04733680021986801
:1019E000A0472248A847224922480024A847224A63
:1019F00022492348A84723464FF400722149039403
:101A00000294019400942048B847039402940194EE
:101A1000009423464FF480721C491D48B8470128A2
:101A200001D01C48A8471C4B9847002008B0BDE8CF
:101A3000F08100BF29014000380400200923400044
:101A4000F11A4000E90E400021024000A40B0020E2
:101A5000A00B00209C0B0020E918400061184000FA
:101A6000000E2707C50840000909400058844000BF
:101A70007484400080844000888440009484400046
:101A8000A0844000B884400025184000C084400075
:101A9000FD174000C4844000C910400000060E40FD
:101AA00070B50F4E0F4D761BB61018BF002405D031
:101AB000013455F8043B9847A642F9D10A4E0B4D24
:101AC000761B06F0E3FDB61018BF002406D00134E3
:101AD00055F8043B9847A642F9D170BD70BD00BFD0
:101AE0009886400098864000A08640009886400076
:101AF0000FB400B5074983B004AB086853F8042B52
:101B00008168019302F012F903B05DF804EB04B0B0
:101B1000704700BF38040020024B0146186800F0EF
:101B20000BB800BF38040020024B0146186804F0CF
:101B300069BA00BF380400202DE9F04F01F10B0510
:101B4000162D83B0064640F29F8035F0070500F160
:101B5000BF80A94200F2BC8000F0C0FBB5F5FC7F5D
:101B6000C0F09C826B0A00F0BA80042B00F28381E3
:101B7000A80900F1390E4FEA4E033830C44F07EB85
:101B80008303A3F108015C68A14207D1ACE0002AFD
:101B900080F2AC80E468A14200F0A680636823F084
:101BA00003035A1B0F2AF2DDB9493C6901F1080E03
:101BB000744500F0B381636823F003035A1B0F2AB6
:101BC00000F39981002AC1F814E0C1F810E080F216
:101BD0009E80B3F5007F80F06781DB0803F1010C84
:101BE00001229B1002FA03F34A6851F83C80C4F8C2
:101BF000088001EBCC091A43A9F10803E3604A60AD
:101C000041F83C40C8F80C40831001249C409442A9
:101C100000F28A80144206D120F0030064001442CE
:101C200000F10400FAD007EBC009CC468046DCF88E
:101C30000C108C4507D173E1002A80F28181C968BC
:101C40008C4500F06D814B6823F003035A1B0F2A6B
:101C5000F2DD0C46D1F80CC054F8088F4B1945F052
:101C600001054D6042F00101C8F80CC03046CCF8C7
:101C700008807B613B61C3F80CE0C3F808E0596061
:101C80009A5000F02DFB1FE0102921D800F026FB10
:101C90001025062302207E4F07EB8303A3F10802E1
:101CA0005C68944200F045816368E168A56823F0B0
:101CB0000303234430465A68E96042F001028D6014
:101CC0005A6000F00DFB0834204603B0BDE8F08FE9
:101CD00000240C232046336003B0BDE8F08F80233E
:101CE0004FF0400E3F2049E770465DE72344E1682E
:101CF0005A68A56842F00102E96030468D605A607A
:101D000000F0EEFA0834204603B0BDE8F08F23441B
:101D100030465A6842F001025A6000F0E1FA083495
:101D2000204603B0BDE8F08FBC68636823F0030869
:101D3000A84504D3C5EB08030F2B00F38C80554B4B
:101D4000DFF860911A68D9F8003001332A4404EBB7
:101D5000080A00F0608102F580520F3222F47F629F
:101D600022F00F0211463046019200F0BBFAB0F1AA
:101D7000FF3F8346019A00F05881824500F2FC80C3
:101D8000454B1968DA451144196000F05381D9F8C0
:101D90000000DFF810E101301BBFCAEB0B0A514411
:101DA000CEF800B019601BF0070100F01781C1F1F7
:101DB0000800C1F58051834408315A44C2F30B0234
:101DC000C2EB010949463046019300F08BFA431CEF
:101DD000019B00F03F81CBEB00024A4442F001023C
:101DE0001968C7F808B04944BC42CBF80420196010
:101DF000DFF8A49016D0B8F10F0F40F2FD806268B2
:101E0000A8F10C0323F00703E01802F001024FF0E1
:101E1000050E1A430F2B6260C0F804E0C0F808E01A
:101E200000F21C811D4BBC681A68914288BF196082
:101E30001B4B1A689142626888BF196022F0030246
:101E40009542A2EB050301D80F2B04DC304600F0CD
:101E500047FA002438E7621943F0010345F0010511
:101E600065603046BA60536000F03AFA08342046A4
:101E700003B0BDE8F08F142B71D9542B00F2A4806D
:101E8000280B00F16F0E4FEA4E036E3076E600BF6E
:101E90003C040020700B0020740B00206C0B002011
:101EA000680B0020480800205A0A042A5ED9142A28
:101EB00000F2B38002F15C0149005B3207EB810C58
:101EC00057F82110DFF8DC81ACF1080C8C4500F0EC
:101ED00088804A6822F00302934202D289688C45C6
:101EE000F7D1D1F80CC07A68C4F80CC0A160CCF866
:101EF0000840CC6088E6631942F0010745F001050F
:101F0000656030464B610B61C3F80CE0C3F808E034
:101F10005F609A50083400F0E3F9D5E64A6873E64A
:101F200008F1010818F0030F0CF1080C7FF47FAEE4
:101F300030E0DC68A34208BF02303FF435AEB3E6C0
:101F40000B440C465A68C96854F8085F42F0010215
:101F50005A603046E9608D6000F0C2F9B4E603F1E2
:101F60005C0E03F15B004FEA4E0307E69A0902F1AB
:101F7000390149003832A1E7BC424A4B3FF400AF77
:101F80009C68626822F003025AE759F808399945BB
:101F900040F0828010F0030F00F1FF30F5D17B6834
:101FA00023EA04037B6064009C423FF6BDAE002C34
:101FB0003FF4BAAE1C4240467FF435AE64001C428A
:101FC00000F10400FAD02EE6B3F5AA7F18D8E80B8A
:101FD00000F1780E4FEA4E037730CFE54FF4805191
:101FE000EBE60121D8F80430921001FA02F21A430C
:101FF000C8F80420614677E70123CBF8043025E7D1
:1020000040F25452934220D8A80C00F17D0E4FEAC2
:102010004E037C30B2E51032A4E6542A26D81A0BBF
:1020200002F16F0149006E3248E7BC68626822F035
:10203000030205E7CAF30B0000287FF4A8AE424470
:10204000BB6842F001025A60ECE6FE234FF07F0EBF
:102050007E2093E501224FF00009C1E604F108015A
:10206000304603F0CFFFD9F80010DBE6B2F5AA7FC7
:1020700005D8DA0B02F17801490077321EE740F209
:1020800054518A4205D89A0C02F17D0149007C32F4
:1020900014E7FE217E2211E77B6884E7E808431CF1
:1020A0005B00F8E53C040020032A70B426D940EA1E
:1020B00001039B0711D004780D78AC4222D1024471
:1020C000431C05E013F8014B11F8015FAC4219D134
:1020D0009342F7D1002070BC70470C4603461E683F
:1020E0002568AE421846214603F1040304F10404B6
:1020F000E1D1043A032A18462146F0D8002ADAD161
:102100001046E8E7601B70BC704700BF844641EA98
:10211000000313F003036DD1403A41D351F8043B5F
:1021200040F8043B51F8043B40F8043B51F8043BB1
:1021300040F8043B51F8043B40F8043B51F8043BA1
:1021400040F8043B51F8043B40F8043B51F8043B91
:1021500040F8043B51F8043B40F8043B51F8043B81
:1021600040F8043B51F8043B40F8043B51F8043B71
:1021700040F8043B51F8043B40F8043B51F8043B61
:1021800040F8043B51F8043B40F8043B51F8043B51
:1021900040F8043B51F8043B40F8043B403ABDD2C0
:1021A000303211D351F8043B40F8043B51F8043B62
:1021B00040F8043B51F8043B40F8043B51F8043B21
:1021C00040F8043B103AEDD20C3205D351F8043BF1
:1021D00040F8043B043AF9D2043208D0D2071CBFBD
:1021E00011F8013B00F8013B01D30B8803806046E6
:1021F000704700BF082A13D38B078DD010F003035C
:102200008AD0C3F10403D21ADB071CBF11F8013BCB
:1022100000F8013B80D331F8023B20F8023B7BE71A
:10222000043AD9D3013A11F8013B00F8013BF9D245
:102230000B7803704B7843708B78837060467047DF
:1022400070B4840746D0541E002A41D0CDB2034654
:1022500002E0621EE4B3144603F8015B9A07F8D16A
:10226000032C2ED9CDB245EA05250F2C45EA0545AC
:1022700019D903F110022646103E0F2E42F8105CC9
:1022800042F80C5C42F8085C42F8045C02F110026F
:10229000F2D8A4F1100222F00F0204F00F04103261
:1022A000032C13440DD91E462246043A032A46F84D
:1022B000045BFAD8221F22F003020432134404F014
:1022C00003042CB1C9B21C4403F8011BA342FBD187
:1022D00070BC704714460346C2E700BF704700BF9A
:1022E000704700BF38B5074C0023054608462360F9
:1022F000FEF756FC431C00D038BD2368002BFBD0F2
:102300002B6038BDAC0B002000290CBF022200223C
:102310004FF4806300F000B82DE9F043514C25687C
:1023200083B004460F4690461E4615B1AB6B002B9A
:1023300079D0B8F1020F04D0B8F1010F7FD8002E88
:102340007DDB2146284603F0FFFC216B41B104F1FF
:102350004003994202D0284603F054FE0023236331
:10236000B4F90C300022A26162601A0654D423F43E
:102370004A6323F00303B8F1020FA38139D001AB04
:102380006A462146284604F0DFF8A3891843A08155
:1023900026B327B3AB6B002B4DD0009BB4F90C00D8
:1023A00027609E421CBF40F40060A081B8F1010F7D
:1023B00008BF40F0010083B208BFA08103F008000D
:1023C00080B22761666118B313F001002FD000209E
:1023D0007642A661A06003B0BDE8F083009E30465F
:1023E000FFF79AFB074668B3A38943F08003A381F4
:1023F000D0E7002004F1430243F00203002501214D
:10240000A381A56022602261616103B0BDE8F08311
:10241000A06003B0BDE8F0832169284603F0F2FD17
:10242000B4F90C30A3E7284603F022FD81E7A6604B
:1024300003B0BDE8F083284603F01AFDADE74FF086
:10244000FF30E2E7DDF80090B14506D04846FFF7DF
:1024500063FB074608B14E46C6E7B4F90C304FF0AF
:10246000FF30C7E7380400200EB4F0B59CB021ABB4
:102470000F4953F8042B019305466FF00044086898
:1024800002954FF402774FF6FF7602A90695ADF854
:10249000147004940794ADF8166000F0BDF8029B28
:1024A00000221A701CB0BDE8F04003B0704700BFB6
:1024B00038040020830710B5044610D10268A2F149
:1024C000013323EA020313F0803F08D150F8042FB0
:1024D000A2F1013323EA020313F0803FF6D0037820
:1024E0001BB110F8013F002BFBD100F003F8204690
:1024F00010BD00BF80EA0102844612F0030F4FD1E5
:1025000011F0030F32D14DF8044D11F0040F51F8C2
:10251000043B0BD0A3F101329A4312F0803F04BF79
:102520004CF8043B51F8043B16D100BF51F8044B62
:10253000A3F101329A4312F0803FA4F101320BD192
:102540004CF8043BA24312F0803F04BF51F8043B17
:102550004CF8044BEAD023460CF8013B13F0FF0F74
:102560004FEA3323F8D15DF8044B704711F0010FA7
:1025700006D011F8012B0CF8012B002A08BF704778
:1025800011F0020FBFD031F8022B12F0FF0F16BF6F
:102590002CF8022B8CF8002012F47F4FB3D1704737
:1025A00011F8012B0CF8012B002AF9D1704700BF5C
:1025B00040EA01039B0770B42BD1032A29D90C46AA
:1025C0000346214654F8046BA6F1013525EA0605B9
:1025D00015F0803F06D1043A032A43F8046B2146E4
:1025E000EFD8A2B10C781C70013A013301313CB133
:1025F0006AB111F8014B03F8014B013A002CF7D1F5
:102600002AB11A44002103F8011B9A42FBD170BC85
:1026100070470346E5E700BF2DE9F04FC1B00C4617
:10262000099115460E930A9003F08AFF03681793E9
:10263000184604F005FEA38916901E0603D52369EB
:10264000002B01F0198100231A461293259324933D
:1026500019930B93DFF864A4149230AB239399463B
:102660001592A84698F800304446EBB1252B02D1CC
:102670001AE0252B03D014F8013F002BF9D1C8EB49
:1026800004058DB1249B259AC9F8008001332A44A2
:10269000072BC9F804502592249300F3A68009F172
:1026A00008090B9B2B440B932378002B00F0A6808A
:1026B00000231A468DF86F3019460C9307934FF09C
:1026C000FF3B637804F101085D4608F10108A3F1BE
:1026D0002000582800F22584DFE810F08803230446
:1026E0002304900323042304230423042304230446
:1026F0009703A50323045D00E2002304FE00050107
:102700000501050105010501050105010501050199
:102710002304230423042304230423042304230481
:1027200023042304150181022304810223042304CA
:1027300023042304C60223042304CD022304230418
:10274000230423042304F70223042304250323047E
:102750002304230423042304230423042304230441
:1027600023046603790381028102810281037903D4
:1027700023042304D1032304DB03A3006400EE033A
:102780002304F5032304AA0323042304BC030C98A5
:102790000E9340420C90079B43F00403079398F874
:1027A000003092E70E98AB46002104688DF86F1058
:1027B000071D0798302378228B458DF870304FF035
:1027C00000058DF8712040F00203C0F2C78320F0AD
:1027D000800343F00203079354EA05030E9700F0C9
:1027E00093830F461192B348CEE223AA09990A981F
:1027F00004F094FD48B90DF1C00952E7259B23B1BF
:102800000A98099923AA04F089FD099B9B8913F072
:10281000400F0B9B18BF4FF0FF33184641B0BDE887
:10282000F08F1193AB46002A41F02382079A12F0F1
:10283000200300F02E820E9F073727F007030027A2
:1028400003F10801BB450E91D3E900458DF86F7087
:10285000C0F2528722F08003079354EA050300F088
:10286000758330AEE20842EA4572E90804F00703D6
:102870000D461446303354EA050206F8013DF1D105
:10288000079AD10740F18480302B00F081803022FC
:10289000731E06F8012C30AAD21A0D921E467AE059
:1028A00098F800302A2B08F1010401F0B181A3F15E
:1028B0003000092898BF002501F2648114F8013B1B
:1028C00005EB850500EB4505A3F130000928F5D996
:1028D00045EAE575A046FAE6079B43F080030793B7
:1028E00098F80030F1E6A3F1300000231C4618F8F8
:1028F000013B04EB840400EB4404A3F130000928FD
:10290000F5D90C94E3E61193AB46002A41F0C98156
:10291000079B43F010030793079B980640F130850F
:102920000E9F073727F00707D7E9002307F10801B3
:102930000E9114461D46002A73F10003C0F25B8518
:10294000BBF1000F9DF86F70C0F23885079B23F034
:102950008003079354EA050300F0DB81002D08BFD4
:102960000A2CC0F0DB8130AE204629460A22002323
:1029700005F0B0FB303206F8012D20462946002331
:102980000A2205F0A7FB04460D4654EA0503EBD1E5
:1029900030AB9B1B0D930D9B5B45B8BF5B4608930B
:1029A0000023139317B1089B01330893079B13F07F
:1029B00002030F9302D0089B02330893079B13F086
:1029C0008403109340F0D7820C9B089A9D1A002D27
:1029D00040F3D182102D2599249A374F27DD189680
:1029E00048461024B946099E2F460A9D04E0103F30
:1029F000102F00F1080016DD01322F4B2492103108
:102A0000072A259180E81800F1DD23AA31462846DF
:102A100004F084FC00287FF4F8AE103F102F2599B5
:102A2000249A30A8E8DC189E3D464F468146013284
:102A30006C18072A25942492C9F80070C9F804502C
:102A400000F328849DF86F7009F1080977B1249B81
:102A5000013301340DF16F010122072B25942493DA
:102A600089E8060000F3A08309F108090F9B6BB108
:102A7000249B013302341CA90222072B25942493A2
:102A800089E8060000F39C8309F10809109B802B5C
:102A900000F0D5820D9BC3EB0B07002F39DD074AF1
:102AA000249B0F92102F28DD22464FF0100B0A9D19
:102AB000099C0AE02485400044854000F0844000E1
:102AC000103F102F09F1080916DD01331032072BD2
:102AD0002592249389E8000CF2DD23AA214628469A
:102AE00004F01CFC00287FF490AE103F102F259AB4
:102AF000249B0DF1C009E8DC144601330F9A24939E
:102B00003C44072B259489E8840000F3418309F1B4
:102B10000809079BDA0500F13082249B0D99C9F85A
:102B2000006001330C44072B2594C9F8041024934A
:102B300000F3188309F10809079B59073FD50C9B3F
:102B4000089A9D1A002D3ADD102D249BBC4F23DDE1
:102B500022461026DDF828B0099C04E0103D102D17
:102B600009F1080917DD0133B54924931032072B09
:102B7000259289E84200F1DD23AA2146584604F057
:102B8000CDFB00287FF441AE103D102D259A249BEB
:102B90000DF1C009E7DC144601332C44072B2594C2
:102BA0002493C9F80070C9F8045008DD23AA0999D4
:102BB0000A9804F0B3FB00287FF427AE259C0B9BFA
:102BC0000C9A08998A42ACBF9B185B180B93002C97
:102BD00040F0D482002324930DF1C00942E5119303
:102BE000AB46002A41F059800E9F073727F00703B4
:102BF00003F108020E921A6814925B681593159BF4
:102C0000149D23F00044284621464FF0FF328D4B9F
:102C100005F022FA002840F0C184284621464FF0F2
:102C2000FF32884B05F0FAF9002840F0B784149879
:102C300015990022002305F0E7F9002840F04B87A2
:102C40009DF86F70804E814B079921F080010791AC
:102C5000119903224FF0000B08924729D8BF1E4656
:102C60000D92CDF84CB09DE6079B43F00803079307
:102C700098F8003029E51193AB46002A41F009800D
:102C8000079B43F010030793079A12F020037FF489
:102C9000D2AD079911F0100200F007850E988DF85B
:102CA0006F30BBF1000F046800F104074FF000051E
:102CB000C0F221850A4622F08002079254EA0502FA
:102CC0000E9700F043811F46CBE51193AB46002AD7
:102CD00040F0D787079B43F010030793079A12F041
:102CE000200300F032830E9F073727F007030027E9
:102CF00003F10801BB450E91D3E900458DF86F70D3
:102D0000C0F25C8322F08003079354EA05037FF44A
:102D100025AEBBF1000F00F0FE80002440AE303441
:102D200006F8414D34E61193AB46002A40F0A587E2
:102D3000079B47489D0640F197800E9F073727F075
:102D40000703D3E9004503F108020E92079A12F037
:102D5000010700F0418254EA050300F0F5849DF874
:102D600044208DF871200027079A8DF86F7030236A
:102D7000BB458DF8703042F00203C0F2A98622F004
:102D8000800343F00203079330AE230904F00F01E0
:102D900043EA05732A091C461546435C06F8013DC3
:102DA00054EA0503F1D1F3E50E9911930A688DF801
:102DB000982000230A461F468DF86F300432012305
:102DC0000893BB4613970E920D9326AEEEE5119332
:102DD000AB46002A3FF4A0AD8DF86F109CE5079B31
:102DE00043F04003079398F800306EE498F8003001
:102DF00000297FF46AAC0122202166E4079B43F09E
:102E00000103079398F800305FE40E9C23680C934D
:102E100018460028234603F10403FFF6B8AC0E93CE
:102E200098F8003051E498F8003001222B214CE44E
:102E30001193AB46002A3FF451AF8DF86F104DE768
:102E400044854000FFFFEF7F04854000008540007F
:102E5000108540001193AB46002A40F00387079B82
:102E600099489D063FF569AF079BDC0640F15E84FB
:102E70000E9A1346043314680E93002566E798F8FB
:102E800000306C2B00F0E184079840F010000790B0
:102E90001BE4002A40F0DB86079B9B0640F12F8451
:102EA0000E9A0B991368CD170846043229460E92E4
:102EB000C3E90001FFF7D6BB079B43F0200307934C
:102EC00098F8003001E40E9A1193166800248DF8EA
:102ED0006F40171D002E00F0BD85002DC0F20F853C
:102EE0002A462146304603F0A3FB002800F0048662
:102EF000831B0D93A34623EAE3730E970893CDF843
:102F00004CB09DF86F704DE56F481192BBF1000F0A
:102F100040F073815F464FF0000BCDF834B030AE17
:102F200039E51193002A40F0B086119A002A3FF447
:102F300065AC002301211F4608918DF898208DF87B
:102F40006F309B4613930D9126AE2FE5BBF1000F1A
:102F500000F0DD8500270024002582E45A4807930D
:102F6000119254EA05030E974FF000077FF40CAF5F
:102F70000024002508E7259C68E5119B652B40F39C
:102F8000A980149815990022002305F033F8002831
:102F900000F03581249B4D4AC9F8002001330134EB
:102FA0000122072B25942493C9F8042000F3E6831B
:102FB00009F108091D9B129A934203DB079BDB076B
:102FC0007FF5BAAD249B1699179AC9F800200133F2
:102FD0000C44072B2594C9F80410249300F33F8474
:102FE00009F10809129B5D1E002D7FF7A5AD384A37
:102FF000249B0F92102D40F3E68110260A9FDDF8E6
:1030000024B005E009F10809103D102D40F3DB81E3
:1030100001331034072B25942493C9F800A0C9F874
:103020000460EFDD23AA5946384604F077F90028FA
:103030007FF4EBAB259C249B0DF1C009E4E70C9BCE
:10304000089A9F1A002F7FF725AD214A249B0F92E3
:10305000102F2BDD4A462146B946102537460A9CDB
:10306000099E06E0A9F11009B9F1100F02F108025A
:1030700018DD01331031072B25912493C2F800A0ED
:103080005560EFDD23AA3146204604F047F90028B9
:103090007FF4BBABA9F11009B9F1100F2599249B5E
:1030A00030AAE6DC3E460C464F46914601330F9A65
:1030B00024933C44072B259489E8840000F345823F
:1030C00009F10809E6E400BF24854000408540007E
:1030D000F0844000129B249D012B40F308820135AF
:1030E00001340123072D25942495C9F80060C9F8FF
:1030F000043000F30D8209F10809169A179BC9F8EC
:10310000003001351444072D25942495C9F8042076
:1031100000F30E8209F10809002314981599002282
:1031200004F068FF129B002840F0C380013B01358A
:1031300001361C44072D24952594C9F80060C9F870
:10314000043000F3F58009F10809199AC9F8042040
:10315000013514441FAB072D25942495C9F8003080
:103160007FF7E8AC23AA09990A9804F0D7F8002859
:103170007FF44BAB259C0DF1C009DDE423AA09992E
:103180000A9804F0CBF800283FF424ADFFF73DBBCC
:1031900023AA09990A9804F0C1F800287FF435ABF6
:1031A000259C0DF1C009B4E423AA09990A9804F0FA
:1031B000B5F800287FF429AB259C0DF1C00955E432
:1031C00023AA09990A9804F0A9F800287FF41DABF6
:1031D000259C0DF1C00959E4BBF1000F8DF86F700B
:1031E000C0F2D88222F08003079354EA05037FF4EB
:1031F000CBADBBF1000F3FF48DAE0027B8E61D9DAF
:10320000002D40F3CA82139B129A9342A8BF134623
:10321000002B1D460DDD249BC9F8006001332C44B2
:10322000072B2594C9F80450249300F39C8309F1DB
:103230000809139B002DA8BF5B1B002B1D4640F304
:10324000F680BA4A249B0F92102D40F38A822246C0
:103250001027DDF828B0099C05E009F10809103DA8
:10326000102D40F37D8201331032072B25922493D9
:10327000C9F800A0C9F80470EFDD23AA214658461A
:1032800004F04CF800287FF4C0AA259A249B0DF185
:10329000C009E4E723AA09990A9804F03FF8002836
:1032A0007FF4B3AA9DF86F70259C0DF1C009FFF75C
:1032B000CDBB5E1E002E7FF748AF9C4B0F93102EA8
:1032C0002CDDCDF834801027B046DDF828B0099EFB
:1032D00006E0A8F11008B8F1100F09F108091ADD8D
:1032E00001351034072D25942495C9F800A0C9F89C
:1032F0000470EEDD23AA3146584604F00FF800288A
:103300007FF483AAA8F11008B8F1100F259C249D22
:103310000DF1C009E4DC4646DDF834800F9B013531
:103320003444072D2594249589E848007FF70BAF96
:1033300023AA09990A9803F0F1FF00287FF465AAEF
:10334000259C249D0DF1C009FFE6079911F010029C
:1033500000F008810E988DF86F30BBF1000F046803
:1033600000F104074FF0000526DB0A4622F0800238
:10337000079254EA05020E971F467FF4EFAAC8E4AD
:10338000079BD9062AD4079B5A0627D50E99B1F96F
:1033900000400431E51722462B460E91FFF7CBBAC9
:1033A0000E998DF86F30BBF1000F0C6801F1040726
:1033B0004FF0000580F247820E971F4654EA05033E
:1033C0007FF4CCAAAAE401330F9A24932C44072B50
:1033D000259489E824007FF7ADABC3E60E9A146804
:1033E00013460433E51722460E93002A2B4673F149
:1033F0000003BFF6A5AA64424FF02D0765EB450513
:10340000BBF1000F8DF86F70FFF6A8AA079B23F0A1
:1034100080030793FFF7A2BA23AA09990A9803F039
:103420007DFF00287FF4F1A9259C0DF1C009139AB6
:103430001D9B32441746129A934247DB079AD507E1
:1034400044D412990E44F51BCB1A9D42A8BF1D46C9
:10345000002D2E460DDD249AC9F8007001322C444F
:10346000072A2594C9F80450249200F30B8309F12C
:103470000809002EACBF9D1B1D46002D7FF75CABDD
:103480002A4A249B0F92102D9DDD10260A9FDDF8FD
:1034900024B004E009F10809103D102D93DD01333B
:1034A0001034072B25942493C9F800A0C9F80460B0
:1034B000F0DD23AA5946384603F030FF00287FF498
:1034C000A4A9259C249B0DF1C009E5E7249A169830
:1034D0001799C9F8001001320444072A2594C9F845
:1034E0000400249200F3A98209F10809A9E7079BC7
:1034F000D8073FF5F4AD013501340123072D25949C
:103500002495C9F80060C9F804307FF71CAE0FE7B6
:1035100023AA09990A9803F001FF00287FF475A9EE
:10352000259C249D0DF1C009E7E500BFF084400013
:1035300023AA09990A9803F0F1FE00287FF465A9EF
:10354000259C249D0DF1C009E6E523AA09990A9856
:1035500003F0E4FE00287FF458A9259C0DF1C00972
:10356000FFF798BA079911F040033FF419AF0E988E
:103570008DF86F20BBF1000F048800F104074FF0B5
:103580000005C0F2B98121F08003079354EA0503D6
:103590000E9717467FF4E2A9FFF7BBBB149C2246A7
:1035A0002046159C2346214604F056FD002840F095
:1035B0001783119BBBF1FF3F23F020030D9300F015
:1035C0007082472B00F09281079B43F48073109325
:1035D000159B1F1E149B0893BBBF3B4603F100477E
:1035E00000232D230F93119B662B00F05D82462B49
:1035F00000F051810D9B089A452B21A81EA90CBFF4
:103600000BF101055D46049003911DA802213B4684
:103610000290019500910A9801F0C6FB119B672B5F
:10362000064640F09082079BDA0740F1AF8274199A
:10363000089839460022002304F0DCFC002840F002
:103640009081219B9C4206D930215A1C21921970ED
:10365000219B9C42F9D89B1B12930D9B472B00F09A
:103660007981119B652B40F37D82119B662B1D9BFD
:10367000139300F05B82139A12998A42C0F230824F
:10368000079BD90700F1848222EAE2730D92672238
:1036900011920F9A002A40F053810893109B0793D0
:1036A00093469DF86F70FFF77DB9079911F04003BD
:1036B00015D00E988DF86F20BBF1000F048800F133
:1036C00004074FF0000516DB21F08003079354EA4E
:1036D00005030E973FF43AAC1746FFF7C2B80E99B0
:1036E0008DF86F30BBF1000F0C6801F104074FF04B
:1036F000000580F2A5800E970027FFF7B2B8079B60
:10370000DF060BD4079B5E0608D50E9A13680432B9
:103710000E92BDF82C201A80FEF7A4BF0E9A1368F3
:1037200004320E920B9A1A60FEF79CBF0E9A079B0A
:1037300013F0400F134603F104030CBF1468148800
:103740000E930025FFF702BB0027BB458DF86F7075
:10375000FFF60EAC079B23F080030793FFF7D6BB61
:10376000144601330F9A24932C44072B259489E89F
:1037700024003FF751AE09F1080958E623AA099938
:103780000A9803F0CBFD00287FF43FA8259C0DF19B
:10379000C0090FE40E9FFFF7E4BB249BB54AC9F8AC
:1037A0000020013301340122072B25942493C9F80A
:1037B000042000F38E8009F108092DB9129B1BB972
:1037C000079BDF077FF5B8A9249B1699179AC9F8BC
:1037D000002001330C44072B2594C9F804102493CE
:1037E00000F3C28109F108096D42002D40F39B806E
:1037F000A14A0F92102D40F3C38022461027DDF816
:1038000028B0099C05E009F10809103D102D40F38E
:10381000B68001331032072B25922493C9F800A0FB
:10382000C9F80470EFDD23AA2146584603F076FD5F
:1038300000287EF4EAAF259A249B0DF1C009E4E745
:10384000079AFFF738BA079A90E5079B43F02003E1
:10385000079308F1010898F80030FEF736BF23AA55
:1038600009990A9803F05AFD00287EF4CEAF259CF2
:103870000DF1C009FFF7B6BB40210A98FEF75CF9CD
:10388000099A10601061002800F0E581099A402330
:103890005361FEF7D8BE21A81EA9049003911DA86C
:1038A00003210290089ACDF804B03B4600910A9893
:1038B00001F07AFA5D460646119B462B06EB05049D
:1038C0007FF4B6AE3378302B00F07C811D9D2C4404
:1038D000AEE623AA09990A9803F020FD00287EF499
:1038E00094AF1D9D259C0DF1C00966E7BBF1000F4B
:1038F00008BF4FF0010B67E60E9717465EE53046AE
:1039000003F09EFCA34603460D90FFF7F4BA23AAEA
:1039100009990A9803F002FD00287EF476AF259CF1
:10392000249B0DF1C0091299C9F8006001330C44C1
:10393000072B25942493C9F804107FF7FBA811E402
:103940002D270893109B07938DF86F704FF0000B95
:10395000FFF729B81D9BDD1C1EDB9B451CDB139369
:1039600089E6234677E623AA09990A9803F0D6FC4C
:1039700000287EF44AAF259C0DF1C00959E4144695
:1039800001330F9A24932C44072B259489E82400B3
:10399000BDDC09F10809C6E7119A023A1192013B10
:1039A000002B9DF844201D93B8BF5B428DF87C200E
:1039B000B4BF2D222B22092B8DF87D2040F3F180FE
:1039C0000DF18B0004462D4A82FB0321DA17C2EB6E
:1039D000A10202EB8201A3EB410303F13001092AAA
:1039E000134604F8011DEEDC21463033DAB201F84B
:1039F000012D884240F23A810DF17E01234601E01B
:103A000013F8012B01F8012B9842F9D1431C1B1B21
:103A10000DF17E0213441FAA9B1A129A1993012AD0
:103A200013440D9340F3EA800D9B169A1344002231
:103A30000D93139223EAE3732BE623AA09990A98BC
:103A400003F06CFC00287EF4E0AE1D9B259C0DF17C
:103A5000C009F6E4062D2B4628BF06230D9323EA62
:103A6000E373B3460E97139637460893044EFEF75A
:103A700099BF00BF40854000F084400067666666DD
:103A80003885400023AA09990A9803F047FC0028CA
:103A90007EF4BBAE1D9B129A259CD31A0DF1C00972
:103AA000E7E44FF0060B8FE521A81EA904900391CF
:103AB0001DA803210290089ACDF804B03B4600915E
:103AC0000A9801F071F95D46064600EB0B04F9E631
:103AD0000793FFF759B92D278DF86F70FFF7B2B82C
:103AE000169A129B1344139A0D93002A7EDD6722C7
:103AF00023EAE3731192CCE525EAE5730E97089368
:103B00000D95834613909DF86F70FEF74BBF079B92
:103B1000DB075F4605D540AE302306F8413DFEF792
:103B200037BFCDF834B030AEFEF735BF002B7DDDAA
:103B3000BBF1000F3DD1079AD4073AD41A460D9233
:103B400023EAE373A5E5119B472B7FF470AD079B38
:103B5000DB073FF5B1AE219B9B1B12930D9B472BBF
:103B60003FF4F8AE1D9B1AE723AA09990A9803F0BF
:103B7000D5FB00287EF449AE1D9D259C249B0DF1AC
:103B8000C00931E6A0460025FEF7A1BD219B62E5F4
:103B9000169A139B134467220D93119223EAE37341
:103BA00077E5303330228DF87F308DF87E2020ABE2
:103BB00031E7139B169A9D1805EB0B030D9323EA2F
:103BC000E37366E5089839460022002304F012FAF0
:103BD00000287FF47BAEC5F101051D952C4427E537
:103BE000324E334B9DF86F70FFF72EB8139B0D9A32
:103BF000C3F101031A4413460D9278E7079B13F0B3
:103C000001037FF411AF13930D9B23EAE37340E5A7
:103C10000E9898F8013005680430002D0E90A046EB
:103C2000BEF653AD4FF0FF35FEF74FBDBBF1000FB1
:103C300002D1079BD80707D5169B5D1C05EB0B032C
:103C40000D9323EAE37324E501230D9321E58DF819
:103C50006F10FFF721B90A9A0C2313604FF0FF3061
:103C6000FEF7DCBD8DF86F10FFF7F9B80DF17E039C
:103C7000D1E68DF86F10FEF7D9BD8DF86F10FFF704
:103C800057B88DF86F10FFF725B88DF86F10FFF754
:103C90004CB98DF86F10FEF7F3BF8DF86F10FEF77B
:103CA000A3BF8DF86F10FEF733BE00BF0C85400038
:103CB000088540004B6E2DE9F0479C0492462CD5B8
:103CC000936812683BB30F46804602F1080919E970
:103CD0006000B60817D0043D002401E0A64210D0D1
:103CE0003A4655F8041F404602F02CF9431C04F1F3
:103CF0000104F3D10023CAF80830CAF80430BDE843
:103D0000F087DAF80830A3EB8603CAF8083009F127
:103D10000809002BDBD10020ECE702F05BFA00235E
:103D2000CAF80830CAF80430BDE8F0872DE9F04F32
:103D3000ABB01C46009190460493059018B1836B7C
:103D4000002B00F0DE800098B0F90C108AB29504C8
:103D500007D4436E41F4005223F40053828143663A
:103D600092B2110740F1B180009B1B69002B00F05B
:103D7000AC8002F01A020A2A00F0B58000230DF18F
:103D8000680B02930F930E93CDF834B0DA4698F88F
:103D900000304446FBB1252B02D11CE0252B03D07B
:103DA00014F8013F002BF9D1C8EB04059DB10E9B1F
:103DB0000F9ACAF8008001332A44072BCAF804502E
:103DC0000F920E937BDD002A40F02885029B0E9215
:103DD0002B44DA4602932378002B00F03E84002126
:103DE0004FF000034FF0FF328DF82F3004F101083F
:103DF0006378019208460E460C4608F10108A3F1CB
:103E00002002582A00F29383DFE812F04603910360
:103E100091034E0391039103910391039103910345
:103E200089026702910380006C029103C601590266
:103E300059025902590259025902590259025902AA
:103E400091039103910391039103910391039103D2
:103E500091039103CB01910391039103910391038A
:103E60009103910391039103910314029103910330
:103E7000910391039103EE029103910311039103C6
:103E80009103910391039103910391039103910392
:103E9000910334038A0391039103910367038A0317
:103EA000910391036C039103790395028500E90264
:103EB00091039B029103BA029103910353030AF108
:103EC000080A029B2B44029385E70099059800F0AD
:103ED00061FE002840F05885009B9A8902F01A0282
:103EE0000A2A7FF44BAF0099B1F90E30002BFFF690
:103EF00045AF23464246059800F016FE2BB0BDE8BC
:103F0000F08F01F0B5FF1EE76442049346F004060B
:103F100098F8003071E7302104988DF8301001993D
:103F200006944FF0000378228DF82F3000290346C5
:103F30008DF83120046803F104034FF0000546F0CA
:103F40000202C0F2258526F0800654EA050246F0FA
:103F50000206049340F0BF84B348019B002B40F05D
:103F60001C8499460023019303935F46019B039AA7
:103F70009342B8BF13461D46B9F1000F00D001357A
:103F800016F00203079318BF023516F08403089356
:103F900040F0F182069B5C1B002C40F3EC82102C5D
:103FA00040F35685DFF88492DDF838E00F9AD44666
:103FB0001023C2467046A8464D46DDF8149007E02F
:103FC00000F1020E0CF1080C0846103C102C13DD19
:103FD000411C103207290F92CCF80050CCF8043065
:103FE0000E91EDDD002A40F0B782103C102C1046F7
:103FF0004FF0010EDC46EBDCA94670464546D04644
:10400000E246224407280F92CAF80090CAF80440FA
:104010000E9000F375839DF82F300AF1080A00F125
:10402000010E002B40F0B082079B002B00F0C382F2
:1040300002320CA90223BEF1070F0F92CDF838E02F
:104040008AE80A0040F37883002A40F00A84089B3B
:10405000802B4FF0010E1046DA4640F0B082069BEE
:104060005C1B002C40F3AB82102CDFF8C49140F3B2
:104070000B85D6461023C246A8464D46DDF814905F
:1040800007E000F1020C0EF1080E0846103C102C5F
:1040900013DD411C103207290F92CEF80050CEF8E4
:1040A00004300E91EDDD002A40F01583103C102CF9
:1040B0004FF0010C1046DE46EBDCA9464546D046E3
:1040C000F2462244BCF1070F0F92CAF80090CAF8DA
:1040D0000440CDF838C000F3D283019B03995C1AE9
:1040E000002C0AF1080A0CF1010E604600F36D8203
:1040F0000399CAF800700A44BEF1070F0F92CAF87C
:104100000410CDF838E040F3CE82002A40F03A8324
:1041100070070E9238D5069B5C1B002C34DDDA4606
:10412000102C40F3AB84DFF804910E994F46102613
:10413000DDF8149006E0881C0AF1080A1946103CC4
:10414000102C13DD4B1C1032072B0F92CAF8007095
:10415000CAF804600E93EEDD002A40F08E82103C17
:10416000102C4FF001001146DA46EBDCB946224430
:1041700007280F92CAF80090CAF804400E9040F346
:104180009B82002A40F02584029B069AAA42ACBF7B
:104190009B185B19029399E246F0800698F800306C
:1041A0002BE60694002940F0AF8446F01006B306D3
:1041B00040F112830499073121F00701D1E900236E
:1041C0000831049114461D46002A73F10003C0F221
:1041D0008683019B9DF82F90002BC0F21A8354EA2E
:1041E000050326F0800600F0ED80002D08BF0A2CA4
:1041F000C0F0ED805F46204629460A22002303F0E6
:1042000069FF303207F8012D2046294600230A2293
:1042100003F060FF04460D4654EA0503EBD1C7EBFB
:104220000B030393A2E600BF248540006485400091
:10423000548540000694002940F0628446F0100640
:1042400016F0200300F0AE82049B073323F007032F
:104250004FF000028DF82F20D3E9004503F108024A
:10426000019B0492002BC0F2748154EA050326F0EE
:10427000800640F06E81019B002B00F030844FF0EF
:104280000009002400255F46E20842EA4572E90879
:1042900004F007030D461446303354EA050207F8CC
:1042A000013DF1D1F407BAD5302BB8D030227B1EB6
:1042B00007F8012CC3EB0B0203921F4656E6A3F14D
:1042C0003002002418F8013B04EB840402EB4404A0
:1042D000A3F13002092AF5D991E598F800300121BF
:1042E0002B208AE598F800302A2B08F1010500F010
:1042F000DD83A3F13002092AA84698BF002500F209
:10430000CE8318F8013B05EB850502EB4505A3F1CB
:104310003002092AF5D945EAE57201926FE5049A5F
:1043200014681346002C03F10403FFF6EDAD04936B
:1043300098F8003061E50694002981D08DF82F00AF
:104340007EE7049A069417684FF000038DF82F302B
:10435000141D019B002F00F08683002BC0F25F83A9
:104360001A460021384602F063F9002800F08F83D6
:10437000C31B0393002304949DF82F900193F5E54C
:104380000694002940F0B98316F0200935D116F0C3
:10439000100303D116F0400940F02A83049A134613
:1043A0001468019A8DF82F90002A03F104034FF04E
:1043B0000005C0F2328354EA050226F08006049319
:1043C0007FF413AF019B002B3FF4CCAD00242AAF48
:1043D000303407F8414DC7EB0B030393C6E546F0B5
:1043E000200698F8003008E50694002940F06E8316
:1043F00046F0100616F02009C9D0049B073323F0BD
:1044000007034FF000028DF82F20D3E9004503F198
:104410000802019B0492002BC0F2F98154EA0503C3
:1044200026F080064FF000097FF4DFAECAE706945D
:10443000002940F05183B206AE4841D5049A0732B4
:1044400022F00702D2E9004502F10801049116F0BA
:10445000010900F0778154EA050240F026824FF00E
:1044600000038DF82F30019B002BC0F2968126F0BF
:10447000800672E5049A069413688DF8403013465E
:104480004FF00001012504338DF82F10049303959C
:1044900010AF0023019373E598F8003000287FF4F3
:1044A000ACAC01212020A8E446F0010698F80030C9
:1044B000A3E40694002940F00C83B2068E48BDD4D4
:1044C0000499F7060A4600F19D81750640F19A812C
:1044D00004320C8804920025B9E746F0400698F8AB
:1044E00000308AE498F800306C2B03BF98F8013054
:1044F00046F0200608F1010846F010067DE4002988
:1045000040F00983B40640F11C82049A02991368B2
:10451000CD170846043229460492C3E9000136E467
:10452000069400293FF443AE8DF82F003FE6069431
:10453000002940F0ED82002B00F08F8001258DF8DE
:1045400040304FF000038DF82F30039510AFA0E7F7
:1045500004934FF0000996E60DAA00990993484686
:10456000FFF7A8FB00287FD10E980F9A099B00F156
:10457000010EDC4629E50E980F9A00F1010E9DF818
:104580002F30002B3FF450AD01320DF12F010123EC
:10459000BEF1070F0F92CDF838E08AE80A0040F329
:1045A000BF80002A40F04E810799002940F0BE806C
:1045B0009E461046DA46089B802B3FF450AD019B87
:1045C00003995C1A002C7FF793AD102CDFF82C9127
:1045D00025DDD4461023C246A8464D46DDF814908A
:1045E00007E000F1020E0CF1080C0846103C102CFC
:1045F00011DD411C103207290F92CCF80050CCF885
:1046000004300E91EDDDD2B9103C102C4FF0010EAC
:104610001046DC46EDDCA9464546D046E24622443B
:10462000BEF1070F0F92CAF80090CAF80440CDF807
:1046300038E02EDC0AF1080A0EF1010E58E50DAA49
:10464000009901934846FFF735FB68B90E980F9A19
:10465000019B00F1010EDC46C8E70F9B23B10598D2
:1046600000990DAAFFF726FB009B9B895A0600F1D3
:104670008B8102982BB0BDE8F08F0DAA00994846B7
:10468000FFF718FB0028EFD10E990F9A481CDA4665
:1046900055E5002A40F0FB80039A1B9201230F92FC
:1046A0001A970E93DA460AF1080A710704D5069B99
:1046B0005C1B002C3FF734AD029B0699A942ACBFAE
:1046C0005B185B190293002A40F0B38000230E931D
:1046D000DA46FFF75CBB0DAA009907934846FFF73F
:1046E000E9FA0028C0D10E980F9A079B00F1010C3F
:1046F000DE46CBE410854000248540005485400010
:10470000002A40F033819DF82F30002B00F0F58017
:1047100001230DF12F011A461B939E461A91DA468A
:1047200070460AF1080A0EF1010E7DE40CA902227E
:104730009E461A911B92DA4670460AF1080A0EF15B
:10474000010E38E7019B8DF82F90002BC0F22A81D3
:1047500054EA050326F080063FF4FFAB5F462309C9
:1047600004F00F0143EA05732A091C461546435C11
:1047700007F8013D54EA0503F1D1C7EB0B0303939E
:10478000FFF7F4BB0DAA00990598FFF793FA0028EC
:104790007FF46AAF0F9ADA4687E74FF000090024EA
:1047A0000025DBE716F0100200F0B28004998DF8C6
:1047B0002F300A460C680199002902F104024FF0DB
:1047C0000005C0F2598154EA050126F080060492E2
:1047D0003FF451AD994656E5F7060AD4750608D55B
:1047E0000499B1F900400431E51722462B460491A3
:1047F000EAE4049A146813460433E5170493224646
:104800002B46E1E414680432049200251FE64FF0C1
:10481000000954EA05037FF4E8ACD8E50DAA009935
:104820000598FFF747FA00287FF41EAFDA46FFF736
:1048300048BB0DAA00990598FFF73CFA00283FF401
:1048400045AF11E70DAA00990598FFF733FA002844
:104850007FF40AAF0E980F9A00F1010EDA46FFF7C7
:10486000E3BB0DAA00990598FFF724FA00287FF40E
:10487000FBAE0E980F9A00F1010EDA469BE6002A75
:1048800040F0D8804FF0010E1046DA4697E60DAAA8
:1048900000990598FFF70EFA00287FF4E5AE0E9B0D
:1048A0000F9A03F1010EDA4622E430228DF830200F
:1048B000019A8DF83130002A4FF000038DF82F3027
:1048C00046F00203C0F2CB8026F0800646F00206D6
:1048D0004FF0000942E74FF0000990483EE7019B86
:1048E00064424FF02D0965EB4505002B8DF82F90A4
:1048F000FFF67BAC26F0800677E4079B002B72D096
:104900000CAB02221A931B924FF0010EDA4613E70A
:1049100016F0400948D004998DF82F200B460C88DA
:104920000199002903F104034FF00005FFF610AED2
:1049300054EA050126F0800604933FF49CAC9146AE
:10494000A1E4F0060AD4710608D5049A136804326B
:104950000492BDF808201A80FFF719BA049A136868
:1049600004320492029A1A60FFF711BA0DAA009954
:104970000598FFF79FF900287FF476AE0E980F9AFE
:1049800000F1010EDA46FAE54FF0FF30FFF7B6BA54
:104990006248164654EA050204934FF000097FF47A
:1049A000DDAEFCE6049BF5E7049A8DF82F901346E4
:1049B0001468019A002A03F104034FF00005FFF682
:1049C000C7AD54EA050226F0800604937FF45BAC81
:1049D00051E40DAA00990598FFF76CF900287FF4BF
:1049E00043AE0F9A68E610464FF0010EDA46E6E550
:1049F00004998DF82F300A460C880199002902F19C
:104A000004024FF000054EDB54EA050126F0800653
:104A1000049299467FF4E9ABD4E40493F9E638466E
:104A2000049402F00DFC002303909DF82F90019355
:104A3000FFF79CBA0DAA00990598FFF73BF90028EB
:104A40007FF412AE0E980F9A00F1010EDA46B6E529
:104A50000E980F9ADFF8CC900130FFF7D2BA1E46BD
:104A60004FF000097AE6062B28BF0623039304942F
:104A700023EAE3752A4F0CE504926AE50E98DFF805
:104A8000A4900130FFF773BBF446FFF71ABB019BFC
:104A90009DF82F90039304940190FFF767BA0022CA
:104AA0000192FFF7ACB904929946B2E6049A1368F2
:104AB00001930432002B049298F80130A846BFF607
:104AC0009CA94FF0FF320192FFF797B98DF82F00A4
:104AD0008EE48DF82F00F0E48DF82F00ABE49946BA
:104AE000F30705D52AAF302307F8413DFFF797BB01
:104AF000019B03935F46FFF739BA8DF82F0043E41B
:104B00008DF82F00FFF79ABB8DF82F00FFF74DBBF4
:104B10008DF82F000FE58DF82F00F3E42485400079
:104B20003885400064854000F0B50C46ADF26C4D10
:104B30008989666EE589199621F00201666AADF8E9
:104B40000E500025E769ADF80C10099606951AAECF
:104B50004FF480656946009604960295059507977F
:104B60000646FFF7E3F8051E07DB3046694601F00D
:104B7000EBF8002818BF4FF0FF35BDF80C305B068E
:104B800003D5A38943F04003A38128460DF26C4D61
:104B9000F0BD00BF38B5304B1B6805460C4613B15D
:104BA0009A6B002A38D0B4F90C2093B218070CD5B0
:104BB0002069A8B113F001021ED0636900225B4294
:104BC000A361A260F0B1002038BDD9063CD55807DA
:104BD00026D4206942F00803A3819BB20028E9D1C2
:104BE00003F42072B2F5007FE4D02846214601F09C
:104BF000DBFCA3892069DDE7990758BF6269A260E1
:104C00000028E0D1B4F90C301A06DDD543F040039A
:104C1000A3814FF0FF3038BD184601F029F9C2E7F3
:104C2000216B51B104F14003994204D0284601F0B0
:104C3000E9F9B4F90C2000232363002320696360A1
:104C400022F024022060C5E742F0400209232B60D5
:104C50004FF0FF30A28138BD38040020024B13B161
:104C6000024800F005B8704700000000855E400073
:104C7000002301461A46184602F074BC02690B690B
:104C8000934200F38D802DE9F04F03F1FF3801F1DD
:104C9000140700F1140B57F828205BF828304FEA6E
:104CA000880483B00132B3FBF2F90BEB04030094E8
:104CB00007EB040A0193B9F1000F39D00025BC4677
:104CC000DE462B465CF8046BDEF80020B4B209FB2C
:104CD0000455360C2C0C09FB0644ADB25B1BA6B286
:104CE00013FA82F3C6EB124606EB23469BB243EA65
:104CF0000643E2454EF8043B4FEA14454FEA26438B
:104D0000E0D2009B5BF8033093B9019C231F9B45C5
:104D10000CD254F8043C4BB9A4F1080302E01A6821
:104D2000043B1AB99B4508F1FF38F8D3C0F810804E
:104D3000044601F039FF00282EDB09F101095D4628
:104D4000002357F8041B28688AB29A1A090C12FA31
:104D500080F2C1EB104303EB224391B241EA0341DD
:104D6000BA4545F8041B4FEA2343EAD25BF82820F2
:104D70000BEB880382B91A1F93450BD253F8042C0E
:104D800042B9083B02E01A68043B1AB99B4508F196
:104D9000FF38F8D3C4F81080484603B0BDE8F08F60
:104DA00000207047000000002DE9F04F016C97B023
:104DB0008146239C92469B4649B1426C4A6001233E
:104DC00093408B6001F00EFD0023C9F84030BBF129
:104DD000000FD84633DB00232360A54B1A4608EAB0
:104DE0000303934214D0504659460022002303F097
:104DF00001F9054648B3229A01231360249B002B36
:104E000000F0C5809B481860013817B0BDE8F08FEE
:104E1000229A42F20F731360BAF1000F00F0A280E1
:104E20009548249B002BF0D0C378002B00F0B18074
:104E300000F10803249A136017B0BDE8F08F012336
:104E40002BF000482360C346C7E714AA15AB0192B4
:104E5000009352465B46484601F050FF5FEA185403
:104E6000089040F08880149D159C2C4404F2324335
:104E7000202B40F39182C3F1400304F2124008FA60
:104E800003F82AFA00F040EA080002F0D5FD0123F9
:104E9000013CA1F1F87110930022784B02F08EFCD6
:104EA0006DA3D3E9002302F03DFE6DA3D3E90023F7
:104EB00002F086FC064620460F4602F0CDFD6AA3AE
:104EC000D3E9002302F02EFE02460B463046394657
:104ED00002F076FC06460F4603F0D4F80022049058
:104EE00000233046394603F08FF8002840F0308226
:104EF000049E162E00F22982614B03EBC603D3E910
:104F0000000152465B4603F09DF8002800F04982FC
:104F1000731E049300230C932C1B631E029300F159
:104F2000328200230593049B002BC0F22382029A55
:104F30000B9311461944002302910A93209B092BDD
:104F400029D8052B40F35886043B20930025209B4D
:104F5000023B032B00F23586DFE813F02C03280216
:104F600037035904444B474AC8F31300002814BFC1
:104F70001846104655E7CBF3130343F07F511095C5
:104F80005046A4F2FF3441F44011149D84E73E489A
:104F90003BE7C31C4EE70021C9F844104846209166
:104FA00001F0FAFB4FF0FF330693209A0D93012393
:104FB00007902192C9F840000993159B002BC0F27D
:104FC000D180049A0E2A00F3CD802D4B03EBC2034F
:104FD000D3E90034CDE90234219B002BC0F20083D9
:104FE00056465F4650465946DDE902AB52465B469F
:104FF00002F0C2FE03F046F8044602F02DFD5246D0
:105000005B4602F08FFD0B4602463946304602F001
:10501000D5FB079D04F130032B70069B012B064640
:105020000F4605F1010562D00022184B02F07AFD0F
:105030000022002306460F4602F0DCFF00287ED146
:10504000CDF81490DDF818A0DDF81CB0DDE9028978
:1050500029E000BFAFF3008061436F63A787D23FB1
:10506000B3C8608B288AC63FFB799F501344D33F57
:105070000000F07F41854000808540000000F83F3F
:105080009085400074854000408540000000244029
:1050900002F048FD0022002306460F4602F0AAFF58
:1050A000002840F0B78342464B463046394602F06E
:1050B00063FE02F0E7FF044602F0CEFC42464B4698
:1050C00002F030FD02460B463046394602F076FBD0
:1050D00004F1300E05F801EBCBEB050ED645064684
:1050E0000F464FF00002B04BD2D1DDF8149032469B
:1050F0003B463046394602F063FB06460F46024601
:105100000B46DDE9020102F07FFF40B932463B4623
:10511000DDE9020102F06EFF88B1E3070FD515F853
:10512000014C079A6B1E04E09A4200F02C8413F89D
:10513000014D392C03F10105F6D001341C7008999A
:10514000484601F04FFB0022049B2A70229A01334B
:105150001360249B002B00F0A78307981D6017B0F5
:10516000BDE8F08F099A002A00F01281209A012AE6
:1051700040F35882069B0A9A5F1EBA42C0F2978398
:10518000D71B069B002BC0F28A84059D069B059ABF
:105190001A440592029A01211A444846029201F0EB
:1051A000B9FB064665B1029900290B4608DDA94204
:1051B000059AA8BF2B46D21AED1ACB1A0592029374
:1051C0000A9B002B40F3FC82099A002A00F001821E
:1051D000002F00F0FE8131463A46484601F03CFC83
:1051E000DDF82080014642460646484601F09CFB19
:1051F00041460446484601F0F5FA0A9BDB1B0A9338
:1052000040F0E6810121484601F084FB0B9B80467B
:10521000002B00F0198201461A46484601F01CFC9A
:10522000209B012B804640F3F8820027D8F81030ED
:1052300008EB8303186901F01FFBC0F12000029AFC
:10524000104410F01F0000F0F681C0F12003042B81
:1052500040F3CA84059BC0F11C0003440593134628
:10526000034405440293059B002B05DD21461A46A5
:10527000484601F041FC0446029B002B05DD4146F7
:105280001A46484601F038FC80460C9B002B40F043
:105290007C82069B002B40F39582099B002B40F0FB
:1052A000F581DDF81CB0069F5D4602E001F0A4FA2E
:1052B000044641462046FFF7E1FC00F1300A05F8BC
:1052C00001ABCBEB0503BB424FF00A024FF00003EA
:1052D00021464846EADB079B069A012AACBF9B1889
:1052E00001331D464FF0000B21460122484601F0D4
:1052F00003FC4146089001F057FC002840F30D8361
:1053000015F8012C07996B1E04E08B4200F078829F
:1053100013F8012D392A03F10105F6D001321A7074
:105320004146484601F05EFA002E3FF408AFBBF15B
:10533000000F05D0B34503D05946484601F052FA54
:105340003146484601F04EFAF9E601230C93E3E5B5
:10535000DDF81080404602F07FFB02460B463046E7
:10536000394602F047FE00287FF4C2AD08F1FF3352
:105370000493BDE5059A049BD21A5B420A9300236D
:1053800005920B93DAE55B42059300230293CAE58D
:105390000A9F059D099E05E7C3F120080AFA08F057
:1053A00073E50C90B8E500BF00002440002309938A
:1053B000049B219A13440D930133002B069340F371
:1053C0008382069C26460021172EC9F844100BD96B
:1053D000012204235B0003F11400B042114602F1E4
:1053E0000102F7D9C9F84410484601F0D5F90E2C4E
:1053F0000790C9F840003FF6E0AD002D3FF4DDAD69
:1054000004995746D8460029CDE90E7840F3928298
:10541000914B01F00F020E1103EBC203F006D3E92A
:10542000004540F14C828D4B50465946D3E9082344
:1054300002F0A2FC06F00F0682468B464FF00308EE
:1054400086B1864FF10709D520462946D7E90023C2
:1054500002F068FB08F1010804460D46761007F1DA
:105460000807EFD122462B465046594602F084FCED
:1054700006460F460C9B43B10022794B3046394615
:1054800002F0C2FD002840F02083404602F0E4FA1A
:1054900032463B4602F046FB724B002202F090F986
:1054A000069B0446A1F15075002B00F0DF81049BA0
:1054B000DDF818801193099B002B00F09782664B52
:1054C000694903EBC80353E90223002002F054FCAE
:1054D00022462B4602F072F982468B463046394608
:1054E00002F0D0FD044602F0B7FA02460B46304601
:1054F000394602F063F93034079DE4B206460F46A0
:105500002C7002460B4650465946013502F09AFD72
:1055100000284CD132463B460020514902F04EF95A
:1055200002460B465046594602F08CFD002840F0DA
:105530000D83B8F1010F40F3B381079B98440DE050
:105540000020474902F03AF952465B4602F05CFD02
:10555000002840F0FB82454500F0A28150465946A4
:105560000022424B02F0DEFA0022404B82468B467C
:105570003046394602F0D6FA0F46064602F082FD62
:10558000044602F069FA02460B463046394602F0FC
:1055900015F93034E4B252465B4605F8014B064635
:1055A0000F4602F031FD32463B460028C8D0119B21
:1055B0000493C4E500230993219B002B40F38981C8
:1055C0001E461C460D930693FDE601230993F3E75F
:1055D00008940A9A0899484601F03EFA044611E6F2
:1055E000069B002B3FF7FCAC40F0DA820022204BF8
:1055F000DDE9020102F096FA52465B4602F018FD20
:10560000DDF818804646002800F0F280219B079DB7
:10561000DB4304934146484601F0E4F8002E3FF492
:105620008EAD8DE6109A002A00F0418203F23343DA
:105630000A9F059DABE51C20059B03440593029B37
:105640000344054402930EE6209B012B40F3828223
:105650000B9F0120F3E500BF908540005886400075
:105660000000F03F00001C400000E03F000024402C
:1056700000001440314600230A22484601F0BCF8DD
:105680000D9B002B064640F397820693002D05DD07
:1056900031462A46484601F02FFA0646002F40F0D0
:1056A0007C810596069B079ADDF814B0013BD31860
:1056B00008930AF0010309931746C2465146204653
:1056C000FFF7DCFA31460546204601F06DFA5A46EE
:1056D00002905146484601F087FAC268804605F1BB
:1056E0003003002A49D101462046069301F05CFAB6
:1056F00041460590484601F075F8059A069B2AB97F
:10570000209919B90999002900F0368202990029D7
:10571000C0F2E48005D1209919B90999002900F057
:10572000DD80002A00F34D81089A3B7007F10108E3
:105730009742454600F05481214600230A224846FC
:1057400001F05AF85E45044631464FF000034FF031
:105750000A0248460BD001F04FF85946064600238E
:105760000A22484601F048F847468346A6E701F07A
:1057700043F8474606468346A0E701464846059358
:1057800001F030F80122059BC0E74146204601F0B8
:105790000BFA0028BFF67DAD2146049C0023013C96
:1057A0000A224846049401F027F8099B0446002B7E
:1057B0007FF460AF0D9B002B40F3F681069370E5FC
:1057C000089C1FE5209B022B7FF767AD069B002BF3
:1057D00040F0798141460522484601F00DF8014626
:1057E0008046204601F0E0F9002808947FF70EAFCC
:1057F000049A07993123013204920B704D1C09E77A
:10580000049A01320492079A3123137088E5012328
:105810000993CDE5DDF8149091E4BAF1000F7FF41F
:1058200004ADCBF31303002B40F03F812BF0004776
:105830003F0D3F0537B1059B01330593029B0133B3
:10584000029301270B9B0120002B3FF4F8ACEDE401
:10585000404602F001F932463B4602F063F900226D
:10586000BF4B01F0ADFF0446A1F1507530463946FB
:105870000022BC4B01F0A2FF22462B4606460F46F3
:1058800002F0E0FB8046002840F00581224605F149
:1058900000433046394602F0B7FB08B14646B5E64C
:1058A000DDE90EABFFF789BB0798FFF7AEBA0A9B9D
:1058B0000B9A0A97FB1A1A440B92002761E4DDE960
:1058C0000EAB4FF00208BBE51C460021C9F844109E
:1058D0008AE5012421940D940694F6E7002AD04627
:1058E000CDF814B09A4611DD21460122484601F058
:1058F00003F94146044601F057F9002840F3498175
:10590000BAF1390F00F0068105F1310AB34687F884
:1059100000A07D1C059E089402E504D11AF0010F39
:1059200001D0EDE4154615F8013C302B05F1FF32AE
:10593000F8D0F5E4049B5C42002C00F0BF808A4B59
:1059400004F00F0203EBC203D3E90023DDE90E01EB
:1059500002F0E8F8241106460F4600F02A81834D34
:105960004FF00208E20709D530463946D5E9002351
:1059700002F0D8F808F1010806460F46641005F158
:105980000805EFD176E5079930220A70049A15F8D8
:10599000014C01320492FFF7D0BB7168484600F019
:1059A000FBFE33699A1C0546920006F10C010C308F
:1059B000FCF7ACFB29460122484601F09DF8059012
:1059C00070E6392BCDF814B0D04600F0A38003F177
:1059D000010AB34687F800A07D1C059E08949FE449
:1059E0005A46D046B3469A4616467DE45E4908F1CB
:1059F000FF3A01EBCA0122462B46D1E9000102F031
:105A000091F8CDE912013946304602F03BFB0446DD
:105A100002F022F802460B463046394601F0CEFE2F
:105A2000079A3034B8F1010F06460F46147002F1A0
:105A300001051ED0079B03EB080BA84600224C4B28
:105A40003046394602F06EF80F46064602F01AFB61
:105A5000044602F001F8303402460B46304639461F
:105A600001F0ACFE08F8014BC34506460F46E5D1F0
:105A7000554400223F4BDDE9120101F0A1FE324600
:105A80003B4602F0C1FA00284CD0119B049315F854
:105A9000014CFFF746BB4FF000084646A8E6059BC1
:105AA000069A9D1A0023FFF772BB0027CAE6149BD3
:105AB0000A9F059DC3F13603FFF769BBDDE90E6759
:105AC0004FF00208D6E40894A0E5069B002B3FF4B3
:105AD000BFAE0D9B002B7FF7E3AE0022244B304678
